:020000040800F2
:1000000000000220F15E0108415F0108415F010824
:10001000415F0108415F0108415F010800000000E5
:10002000000000000000000000000000415F010827
:10003000415F010800000000415F0108E726010858
:10004000415F0108415F0108415F010875CF000869
:10005000415F0108415F0108612901086729010822
:100060006D2901087329010879290108415F0108F8
:10007000415F0108415F0108415F0108415F0108DC
:10008000415F0108415F0108415F0108F9C10008B3
:10009000E1C10008415F0108415F01087F290108B3
:1000A000811701089916010895170108BD16010866
:1000B000D1160108E5160108F91601086DB9000806
:1000C00079B9000885B9000891B90008415F0108B5
:1000D000415F010849360108613601087D36010893
:1000E000A729010859CF0008F14D0108A9170108F7
:1000F00049170108BD1701086D170108415F010884
:10010000415F0108415F01080D170108415F0108C7
:1001100099360108B1360108211701083517010881
:10012000415F0108415F0108415F0108415F01082B
:10013000415F0108415F0108415F0108FDC10008FE
:10014000EDC10008415F0108415F0108E54D01086C
:10015000415F0108415F0108415F0108C93601089C
:100160009DB90008A9B90008415F0108415F010875
:10017000415F0108415F0108415F01080000000084
:08018000415F0108415F010825
:1001900010F8012B11F8013B012A28BF9A42F7D031
:1001A000D01A7047034613F8012B002AFBD1181A06
:1001B000013870470000000000000000000000004F
:1001C00001F0FF01102A2BDB10F0070F08D010F808
:1001D000013B013A8B422DD010F0070F42B3F6D10C
:1001E000F0B441EA012141EA014122F007047FF025
:1001F00000070023F0E80256083C85EA010586EA7C
:10020000010685FA47F5A3FA87F586FA47F6A5FAB7
:1002100087F68EB9EED1F0BC01F0FF0102F00702C3
:1002200032B110F8013B013A83EA010313B1F8D16E
:100230000020704701387047002D06BF354603384F
:10024000073815F0010F07D1013015F4807F02BF88
:10025000013015F4C03F0130F0BC0138704700BFD9
:1002600081F0004102E000BF83F0004330B54FEA67
:1002700041044FEA430594EA050F08BF90EA020FD4
:100280001FBF54EA000C55EA020C7FEA645C7FEA67
:10029000655C00F0E2804FEA5454D4EB5555B8BF8A
:1002A0006D420CDD2C4480EA020281EA030382EAFB
:1002B000000083EA010180EA020281EA0303362D8D
:1002C00088BF30BD11F0004F4FEA01314FF4801C60
:1002D0004CEA113102D0404261EB410113F0004F72
:1002E0004FEA03334CEA133302D0524263EB430329
:1002F00094EA050F00F0A780A4F10104D5F1200EC7
:100300000DDB02FA0EFC22FA05F2801841F1000121
:1003100003FA0EF2801843FA05F359410EE0A5F1F5
:1003200020050EF1200E012A03FA0EFC28BF4CF026
:10033000020C43FA05F3C01851EBE37101F00045DC
:1003400007D54FF0000EDCF1000C7EEB00006EEBE9
:100350000101B1F5801F1BD3B1F5001F0CD3490873
:100360005FEA30004FEA3C0C04F101044FEA4452CA
:1003700012F5800F80F09A80BCF1004F08BF5FEA51
:10038000500C50F1000041EB045141EA050130BD31
:100390005FEA4C0C404141EB0101013C28BFB1F543
:1003A000801FE9D291F0000F04BF01460020B1FA8E
:1003B00081F308BF2033A3F10B03B3F120020CDA61
:1003C0000C3208DD02F1140CC2F10C0201FA0CF03F
:1003D00021FA02F10CE002F11402D8BFC2F1200CA4
:1003E00001FA02F120FA0CFCDCBF41EA0C0190405A
:1003F000E41AA2BF01EB0451294330BD6FEA0404A3
:100400001F3C1CDA0C340EDC04F11404C4F120028D
:1004100020FA04F001FA02F340EA030021FA04F39F
:1004200045EA030130BDC4F10C04C4F1200220FAF6
:1004300002F001FA04F340EA0300294630BD21FA34
:1004400004F0294630BD94F0000F83F4801306BFFA
:1004500081F480110134013D4EE77FEA645C18BFEE
:100460007FEA655C29D094EA050F08BF90EA020F85
:1004700005D054EA000C04BF1946104630BD91EA7D
:10048000030F1EBF0021002030BD5FEA545C05D180
:100490004000494128BF41F0004130BD14F58004BF
:1004A0003CBF01F5801130BD01F0004545F0FE4133
:1004B00041F470014FF0000030BD7FEA645C1ABF68
:1004C000194610467FEA655C1CBF0B46024650EA9F
:1004D000013406BF52EA033591EA030F41F40021CB
:1004E00030BD00BF90F0000F04BF0021704730B551
:1004F0004FF4806404F132044FF000054FF0000126
:1005000050E700BF90F0000F04BF0021704730B5E6
:100510004FF4806404F1320410F0004548BF4042BB
:100520004FF000013EE700BF42004FEAE2014FEA10
:1005300031014FEA02701FBF12F07F4393F07F4FEB
:1005400081F06051704732F07F4208BF704793F0EE
:100550007F4F04BF41F40021704730B54FF4607401
:1005600001F0004521F000411CE700BF50EA010204
:1005700008BF704730B54FF000050AE050EA0102AD
:1005800008BF704730B511F0004502D5404261EB1D
:1005900041014FF4806404F132045FEA915C3FF45E
:1005A000D8AE4FF003025FEADC0C18BF03325FEAFB
:1005B000DC0C18BF033202EBDC02C2F1200300FAAC
:1005C00003FC20FA02F001FA03FE40EA0E0021FAD1
:1005D00002F11444BDE600BF70B54FF0FF0C4CF4BF
:1005E000E06C1CEA11541DBF1CEA135594EA0C0F71
:1005F00095EA0C0F00F0DEF82C4481EA030621EAAC
:100600004C5123EA4C5350EA013518BF52EA0335E6
:1006100041F4801143F4801338D0A0FB02CE4FF098
:100620000005E1FB02E506F00042E0FB03E54FF0C8
:100630000006E1FB03569CF0000F18BF4EF0010EC0
:10064000A4F1FF04B6F5007F64F5407404D25FEABC
:100650004E0E6D4146EB060642EAC62141EA55516F
:100660004FEAC52040EA5E504FEACE2EB4F1FD0CB1
:1006700088BFBCF5E06F1ED8BEF1004F08BF5FEA2F
:10068000500E50F1000041EB045170BD06F00046E1
:1006900046EA010140EA020081EA0301B4EB5C048E
:1006A000C2BFD4EB0C0541EA045170BD41F4801186
:1006B0004FF0000E013C00F3AB8014F1360FDEBFAB
:1006C000002001F0004170BDC4F10004203C35DA87
:1006D0000C341BDC04F11404C4F1200500FA05F30A
:1006E00020FA04F001FA05F240EA020001F00042AB
:1006F00021F0004110EBD37021FA04F642EB060121
:100700005EEA430E08BF20EAD37070BDC4F10C044A
:10071000C4F1200500FA04F320FA05F001FA04F20E
:1007200040EA020001F0004110EBD37041F10001FA
:100730005EEA430E08BF20EAD37070BDC4F1200505
:1007400000FA05F24EEA020E20FA04F301FA05F26D
:1007500043EA020321FA04F001F0004121FA04F215
:1007600020EA020000EBD3705EEA430E08BF20EAE5
:10077000D37070BD94F0000F0FD101F0004640001F
:1007800041EB010111F4801F08BF013CF7D041EAA1
:10079000060195F0000F18BF704703F000465200A5
:1007A00043EB030313F4801F08BF013DF7D043EA76
:1007B0000603704794EA0C0F0CEA135518BF95EA2C
:1007C0000C0F0CD050EA410618BF52EA4306D1D1B3
:1007D00081EA030101F000414FF0000070BD50EAD2
:1007E000410606BF1046194652EA430619D094EA5C
:1007F0000C0F02D150EA013613D195EA0C0F05D146
:1008000052EA03361CBF104619460AD181EA030199
:1008100001F0004141F0FE4141F470014FF0000051
:1008200070BD41F0FE4141F4780170BD70B54FF0EC
:10083000FF0C4CF4E06C1CEA11541DBF1CEA13556C
:1008400094EA0C0F95EA0C0F00F0A7F8A4EB05044E
:1008500081EA030E52EA03354FEA013100F0888045
:100860004FEA03334FF0805545EA131343EA12630E
:100870004FEA022245EA111545EA10654FEA0026C3
:100880000EF000419D4208BF964244F1FD0404F57C
:10089000407402D25B084FEA3202B61A65EB0305D8
:1008A0005B084FEA32024FF480104FF4002CB6EB95
:1008B000020E75EB030E22BFB61A754640EA0C0015
:1008C0005B084FEA3202B6EB020E75EB030E22BF55
:1008D000B61A754640EA5C005B084FEA3202B6EB96
:1008E000020E75EB030E22BFB61A754640EA9C0055
:1008F0005B084FEA3202B6EB020E75EB030E22BF25
:10090000B61A754640EADC0055EA060E18D04FEAE2
:10091000051545EA16754FEA06164FEAC30343EA82
:1009200052734FEAC2025FEA1C1CC0D111F4801F4F
:100930000BD141EA00014FF000004FF0004CB6E748
:1009400011F4801F04BF01430020B4F1FD0C88BFE7
:10095000BCF5E06F3FF6AFAEB5EB030C04BFB6EBF2
:10096000020C5FEA500C50F1000041EB045170BDE5
:100970000EF0004E4EEA113114EB5C04C2BFD4EB12
:100980000C0541EA045170BD41F480114FF0000E96
:10099000013C90E645EA060E8DE60CEA135594EA12
:1009A0000C0F08BF95EA0C0F3FF43BAF94EA0C0F15
:1009B0000AD150EA01347FF434AF95EA0C0F7FF48A
:1009C00025AF104619462CE795EA0C0F06D152EADE
:1009D00003353FF4FDAE1046194622E750EA4106C2
:1009E00018BF52EA43067FF4C5AE50EA41047FF4D3
:1009F0000DAF52EA43057FF4EBAE12E74FF0FF3C38
:100A000006E000BF4FF0010C02E000BF4FF0010C08
:100A10004DF804CD4FEA410C7FEA6C5C4FEA430C81
:100A200018BF7FEA6C5C1BD001B050EA410C0CBFD0
:100A300052EA430C91EA030F02BF90EA020F002032
:100A4000704710F1000F91EA030F58BF994208BF99
:100A500090422CBFD8176FEAE37040F00100704756
:100A60004FEA410C7FEA6C5C02D150EA013C07D1AD
:100A70004FEA430C7FEA6C5CD6D152EA033CD3D0F8
:100A80005DF8040B704700BF8446104662468C46F2
:100A90001946634600E000BF01B5FFF7B7FF002825
:100AA00048BF10F1000F01BD4DF808EDFFF7F4FF4E
:100AB0000CBF012000205DF808FB00BF4DF808EDD9
:100AC000FFF7EAFF34BF012000205DF808FB00BFFC
:100AD0004DF808EDFFF7E0FF94BF012000205DF81E
:100AE00008FB00BF4DF808EDFFF7CEFF94BF0120D3
:100AF00000205DF808FB00BF4DF808EDFFF7C4FFCC
:100B000034BF012000205DF808FB00BF4FEA410C14
:100B10007FEA6C5C02D150EA013C0AD14FEA430CF7
:100B20007FEA6C5C02D152EA033C02D14FF0000034
:100B300070474FF0010070474FEA410212F5001272
:100B400015D211D56FF47873B3EB625212D94FEA14
:100B5000C12343F0004343EA505311F0004F23FAFE
:100B600002F018BF404270474FF00000704750EA53
:100B7000013005D111F0004008BF6FF00040704710
:100B80004FF00000704700BF4A0011D212F500126A
:100B900011D20DD56FF47873B3EB62520ED44FEAD5
:100BA000C12343F0004343EA505323FA02F0704755
:100BB0004FF00000704750EA013002D14FF0FF3093
:100BC00070474FF0000070474FEA4102B2F1E04336
:100BD00024BFB3F5001CDCF1FE5C0DD901F0004C24
:100BE0004FEAC0024CEA5070B2F1004F40EB830074
:100BF00008BF20F00100704711F0804F21D113F1A0
:100C00003872BCBF01F00040704741F480114FEAD8
:100C10005252C2F11802C2F1200C10FA0CF320FA61
:100C200002F018BF40F001004FEAC1234FEAD3237E
:100C300003FA0CFC40EA0C0023FA02F34FEA4303E8
:100C4000CCE77FEA625307D150EA01331EBF4FF071
:100C5000FE4040F44000704701F0004040F0FE408C
:100C600040F40000704700BF53B94AB9002908BFDB
:100C700000281CBF4FF0FF314FF0FF3000F00CB8E0
:100C8000ADF1080C6DE904CE17F03EFEDDF804E08E
:100C9000DDE9022304B07047704700BF10B5054C72
:100CA000237833B9044B13B10448AFF30080012318
:100CB000237010BDB002002000000000088C010865
:100CC00008B5034B1BB103490348AFF3008008BDCF
:100CD00000000000B4020020088C0108012A02D1A3
:100CE000016000207047022A05D0032AF9D0002AAB
:100CF000F7D10260F5E70B680360F2E70368184775
:100D0000836810B5044613B1032201469847204674
:100D100010BD0000034B01221A70034B00221A7011
:100D2000704700BF6F0300206E030020024A0123BA
:100D30001370024A137070476F0300206E03002087
:100D400008B50F4B0F49104800221A8064230B602E
:100D50000423CB72CA600BF067F80C490A480BF009
:100D6000B9F80028F9D10A4B18700A4B02221A7000
:100D7000094B1870094B1A68094B1A6008BD00BF6F
:100D8000AA03002050000020E008002038000020C6
:100D90006F0300206E030020620300204003002048
:100DA0003C03002008B50A490A4814F057FC0849DA
:100DB000094814F053FC0949094865230B600022D7
:100DC0000423CB72CA60BDE808400BF02DB800BF09
:100DD0004C8C0108902E0020D43B002050000020B5
:100DE000E008002010B506490023DAB28C5C0CB98B
:100DF000885403E0844203F10103F6D110BD00BF23
:100E0000E503002010B5084C23785BB1052B09D011
:100E1000FFF796FF05230C202370FFF7E3FF034B3A
:100E200000221A8010BD00BFF5030020AA03002095
:100E3000F8B54A4B4A4F1B784A4E4B4D4B4C002B52
:100E400047D00A2015F066F938700C2015F062F9C9
:100E500030701B2015F05EF92870072015F05AF944
:100E60002070052015F0D2F90A2015F053F93B78CF
:100E7000984206D0052015F0C9F90A2015F04AF964
:100E800038700C2015F046F93378984206D00520CA
:100E900015F0BCF90C2015F03DF930701B2015F051
:100EA00039F92B78984206D0052015F0AFF91B20B0
:100EB00015F030F92870072015F02CF923789842A6
:100EC00006D0052015F0A2F9072015F023F92070AF
:100ED000F8BD1B2015F01EF93870072015F01AF91F
:100EE00030700A2015F016F928700C2015F012F950
:100EF0002070052015F08AF91B2015F00BF93B78BE
:100F0000984206D0052015F081F91B2015F002F952
:100F10003870072015F0FEF83378984206D0052087
:100F200015F074F9072015F0F5F830700A2015F067
:100F3000F1F82B78984206D0052015F067F90A20C1
:100F400015F0E8F828700C2015F0E4F823789842A2
:100F5000BED0052015F05AF90C20B6E76C0300202E
:100F6000740300207303002072030020710300202B
:100F7000014630B531F8022908301446002331F813
:100F8000025FAA4228BF2A46AC4238BF2C4688429C
:100F90002B44F4D12244981A0323B0FBF3F080B21F
:100FA00030BD0000000000002DE9F04186B015F0D2
:100FB0002BF95F4D5F4B186028780130C0B209F003
:100FC000FDFE2B785C49F0B9CA5C0132D2B2CA543A
:100FD0003BB9062A50D9012006B0BDE8F041FFF721
:100FE00001BF012B03D1062A46D90220F4E7022BC8
:100FF00003D1062A40D90520EEE7032B3CD1062A6F
:101000003AD90620E8E70022581CCA54C0B2694603
:1010100009F01EFFBDF808202C7840F2DC539A42FC
:101020002DD8BDF80E10642948D9511E89B240F25E
:10103000DB50814288BF1A46404B41481978414EE7
:1010400004EB84030B4420F813203F4B1B786BB355
:10105000BCB9FFF78DFF7080013404F00304032C4A
:101060002C7009D135490B7805220133B3FBF2F21C
:1010700002EB82029B1A0B7006B0BDE8F0811A46A3
:10108000DAE7012C04D10A30FFF772FF3080E3E782
:10109000022C04D11430FFF76BFFF080DCE7032C47
:1010A00004D11E30FFF764FFB080D5E70A2303FBAD
:1010B0000400FFF75DFF26F81400CDE79DF80C2033
:1010C000012A17D0204A11781E4A71B10CB95380F9
:1010D000C2E7012C01D11380BEE7022C01D1D380DD
:1010E000BAE7032C01D19380B6E740F2DC5322F833
:1010F0001430B1E72046FFF7F5F99FED0B0B41ECFB
:10110000110B16F0C5FADFF8448057EC106BB8F8F5
:101110000000FFF7F7F932463B46FFF7A7F8FFF765
:1011200033FDA8F8000097E700000000000024400D
:1011300018030020B8030020D8020020DC020020A1
:10114000F0020020980300206C030020DE02002043
:101150002DE9F043774F784E3978784CA3B00C25C1
:1011600005FB016112A814F096FB754912A814F052
:101170007DFC744B197814F08DFC014609A814F01D
:101180008AFB12A814F006FB94F80080B8F1000F57
:1011900040F033836C4B1D786C4B1C786C4B1B7888
:1011A00064356434EDB2E4B21E2B00F22E82DFE827
:1011B00013F01F005F007B00810087008D0093000B
:1011C00099002C022C022C029F00A500AB00BB0052
:1011D000BB00F100F2012C025D022C028E0294028F
:1011E0009A022C02B8022C022C022C029501CE028B
:1011F00009A912A814F04FFB5649574D12A814F034
:1012000035FC564B197814F045FC554914F02EFC6A
:10121000297814F03FFC534914F028FC0146524849
:1012200014F0F6F912A814F0B5FA3B780C2101FB82
:1012300003610FA814F02FFB4C490FA814F016FC03
:10124000297804460A2212A814F048FB12A9204665
:1012500014F000FC434914F009FC0146424814F024
:10126000D7F912A814F096FA0FA814F093FACCE16B
:1012700009A912A814F00FFB3D4912A814F0F6FBBF
:10128000364B197814F006FC354914F0EFFB324B5D
:10129000197814F0FFFB334914F0E8FB014632489B
:1012A00014F0B6F912A8E0E709A912A814F0F3FAAD
:1012B0003049E2E709A912A814F0EDFA2E49DCE75B
:1012C00009A912A814F0E7FA2C49D6E709A912A82F
:1012D00014F0E1FA1F49D0E709A912A814F0DBFACB
:1012E0002749CAE709A912A814F0D5FA2549C4E785
:1012F00009A912A814F0CFFA2349BEE709A912A838
:1013000014F0C9FA2149B8E73B780C2101FB0361CD
:101310000FA814F0C0FA15490FA814F0A7FB0E4B44
:1013200004460A2219788EE709A912A814F0B3FA24
:101330001749A2E7E403002078050020E503002018
:101340005B8C01086803002061030020600300201B
:10135000F50300205E8C0108700300206603002066
:10136000608C0108C09B0108280A0020628C0108DB
:10137000658C0108698C01086D8C0108718C01086D
:10138000B78C0108758C01086E8C0108728C0108FD
:10139000668C010839784FF00C0909FB01610CA833
:1013A00014F079FA9C490CA814F060FB9B4B197857
:1013B00014F070FB9A4B0A22198880460FA814F08B
:1013C0009EFA0FA9404614F045FB964914F04EFBD7
:1013D000954B198814F068FB924914F047FB934B26
:1013E000197814F057FB8F4914F040FB904B0A22F8
:1013F0001988804612A814F082FA12A9404614F007
:1014000029FB8C4914F032FB01468B4814F000F99B
:1014100012A814F0BFF90FA814F0BCF90CA814F02E
:10142000B9F9142014F0F2FE397812A809FB016111
:1014300014F031FA814912A814F018FB014609A8EA
:1014400014F01AFA12A814F0A5F9092D00F28180FF
:101450007B4912A814F0E0F90A2229460FA814F0DB
:101460003DFA0FA912A814F0F5FA014609A814F0E4
:10147000AFFA0FA814F08EF912A814F08BF969498D
:1014800009A814F0A9FA082C74D86D4912A814F010
:10149000C3F90A2221460FA814F020FA0FA912A8B6
:1014A00014F0D8FA014609A814F092FA0FA814F023
:1014B00071F912A814F06EF909A912A814F0EBF949
:1014C0005C4912A814F0D2FA01465B4814F0A0F867
:1014D00012A814F05FF9142014F098FE3B78594CD0
:1014E0000C2101FB036112A814F0D5F9564912A88A
:1014F00014F0BCFA014609A814F0BEF912A814F0C1
:1015000049F9236842F20F72934200F310814F4968
:1015100012A814F081F921684FF47A730A220FA8F7
:1015200091FBF3F114F0EBF90FA912A814F092FA61
:10153000014609A814F04CFA0FA814F02BF912A8D0
:1015400014F028F909A912A814F0A5F9394912A82C
:10155000A2E6632D01D83D497BE70A22294612A85D
:1015600014F0BCF912A909A814F032FA12A814F068
:1015700011F984E7622C01D8344987E70A22214611
:1015800012A814F0ABF912A909A814F021FA12A8B4
:1015900014F000F990E7FFF74BFCFFF705FD3B78EF
:1015A0000C2101FB036112A814F075F9284912A857
:1015B00014F05CFA014609A814F05EF912A814F0C0
:1015C000E9F8244924480D884E888F88B1F80680B0
:1015D000099C0AF047FA214B1B780793204B1B7894
:1015E0000693204B1B7805931F4B1B780096CDE983
:1015F00003034021CDE901782B46224612A814F0BE
:10160000AFFF0D4812A914F008F809A814F0C2F8A9
:1016100023B0BDE8F08300BF788C01086C03002084
:1016200016000020608C010812000020200000201D
:1016300010000020C09B0108280A00207B8C0108B4
:101640007E8C010818000020818C01087F8C010825
:10165000848C0108980300204808002071030020B2
:101660007203002073030020740300203B78894C30
:101670000C2101FB036112A814F00DF9864912A890
:1016800014F0F4F9014609A814F0F6F812A814F0C1
:1016900081F823888149012011F8012B08F1010804
:1016A00000FA02F25FFA88F81343B8F1100F9BB208
:1016B000F2D109A912A8238014F0EDF8784912A8F4
:1016C00014F0D4F9218814F0EFF97649E4E509A97A
:1016D00012A814F0E0F87449CFE509A912A814F093
:1016E000DAF87249C9E53B780C2101FB036112A8C5
:1016F00014F0D1F86E4912A814F0B8F9014609A8FF
:1017000014F0BAF812A814F045F809A90FA814F0BB
:10171000C2F863490FA814F0A9F9664B04460A22DF
:1017200000E609A912A814F0B6F86349A5E54FF43C
:101730007A710A2212A893FBF1F114F0E0F812A9D1
:1017400009A814F045F912A814F024F8FAE63B7839
:101750000C2101FB036112A814F09DF8574912A84F
:1017600014F084F9014609A814F086F812A814F0C0
:1017700011F8082D26D8524912A814F04DF80A2263
:1017800029460FA814F0AAF80FA912A814F062F9BC
:10179000014609A814F01CF90FA813F0FBFF12A8CA
:1017A00013F0F8FF474909A814F016F9082C1AD8C5
:1017B000434912A814F030F80A2221460FA814F069
:1017C0008DF8B1E6622D01D83549D5E70A222946C0
:1017D00012A814F083F812A909A814F0F9F812A8B5
:1017E00013F0D8FFDEE7622C01D82D49E1E70A2289
:1017F000214612A814F072F8A1E709A912A814F062
:101800004AF8314912A814F031F9304B197814F024
:1018100041F92C4914F02AF92D4B197814F03AF9B2
:101820002C4914F023F901462B4813F0F1FE12A8BD
:1018300013F0B0FF322014F0E9FC397812A805FB50
:10184000016114F028F81449124D12A814F00EF991
:10185000014609A814F010F812A813F09BFF2B887A
:101860000022012014F8011B013200FA01F1D2B26A
:101870000B43102A9BB2F5D143F0010309A912A82A
:101880002B8014F008F8064912A814F0EFF8298804
:1018900019E700BFA8030020AB8C0108E503002076
:1018A0007F8C0108AE8C0108B28C0108B68C01084F
:1018B000BA8C010864030020B38C01087B8C0108FA
:1018C0007E8C0108608C0108BD8C01086603002035
:1018D00070030020C09B0108280A00202DE9F8436E
:1018E0008448854C0AF0BEF8B0F5805F206028DCA3
:1018F000824B834A1B7815788249B3FA83F25209E6
:10190000AA426DD0804C2668371A7B1EB3F5FA6F59
:101910002BD272127D4B5FFA82F9C0F34728C14582
:1019200013F802C04FEA602E0FD10CFB07F35B12D5
:10193000002B40F3C6800A68002D71D1D21A0A60CC
:1019400070E06C480AF08EF8CEE712B213F80EE0A1
:10195000A6EB4223C0EB42270CFB03F30EFB07333D
:10196000002BB8BF03F2FF13E1E7831BB3F5FA6F57
:1019700009DD664AD7791278C0F5805313FB07F367
:1019800002FB0633ECE75A1EB2F5FA6F1ED2002EA8
:101990003246B8BF06F2FF12C2F34722DFF86CE10D
:1019A000C0F3472842451EF802704FEA602C01D16F
:1019B0007B43BCE70FFA8CF3A0EB43221EF80CC06C
:1019C000C6EB43237B430CFB0233C9E7B7F5FA6F41
:1019D00077DD4E4BDA791B78C6F580564343CFE767
:1019E0005A1E534253419D426BD0474C2668371ACA
:1019F0007B1EB3F5FA6F27D27212454B5FFA82F95C
:101A0000C0F34728C14513F802C04FEA602E0BD13E
:101A10000CFB07F35B12002B0A6850DD002D8DD103
:101A200013440B6020604CE012B213F80EE0A6EBFA
:101A30004223C0EB42270CFB03F30EFB0733002BC2
:101A4000B8BF03F2FF13E5E7831BB3F5FA6F09DDB7
:101A50002F4AD7791278C0F5805313FB07F302FBA6
:101A60000633ECE75A1EB2F5FA6F1ED2002E32464C
:101A7000B8BF06F2FF12C2F34722DFF894E0C0F3CA
:101A8000472842451EF802704FEA602C01D17B4383
:101A9000C0E70FFA8CF3A0EB43221EF80CC0C6EB94
:101AA00043237B430CFB0233C9E7B7F5FA6F08DD2C
:101AB000174BDA791B78C6F580564343CFE77FF49E
:101AC0003DAF0B68134A002B09DA134C206808B1AC
:101AD000C01A20601068C01A002310600B600F4904
:101AE00010680988401A9842BCBFC9181160BDE847
:101AF000F88300BF48080020540300206E03002034
:101B00006C03002040030020500300202F00002021
:101B1000270000204403002038030020100000208C
:101B2000084B1A7852B100221A70074A074B116805
:101B30001B685B1AA3F548731360704701221A7083
:101B4000704700BF6C0300204003002044030020C6
:101B500010B5002460020AF065FB012804D00134AE
:101B6000082CF7D14FF0FF34204610BD0021400271
:101B70000AF08CBB012140020AF088BB2DE9F0413C
:101B80000546FFF7E5FF431C03F0030843465C00EE
:101B9000FFF7ECFF14F038FB01266F1E06EB8826DA
:101BA0003F3517F8011F30460AF02AFBAF4206F115
:101BB0000106F6D10AF040FB2046FFF7DBFF0121CA
:101BC000132014F06FFA4FF47A7014F01FFBBDE885
:101BD000F0410021132014F065BA70B50546FFF7F7
:101BE000B7FF431C044611D014F00EFB6402661CC0
:101BF000013D413414F008FB30460AF013FB013676
:101C0000A64205F8010FF5D1012070BD0020FCE7C8
:101C10002DE9F84F724B734D1868734F734EDFF810
:101C20000092DFF80082DFF800B2DFF8ECA1FEF7E7
:101C30007BFC69A3D3E90023FEF7CEFC4FF07F5372
:101C40000022FEF7C9FC41EC100B15F0A5FDC4B253
:101C500021460822284614F022FD08222146A81811
:101C600014F01DFD6C1E3B882B82BB783288E37418
:101C7000B378A5F81320A3755D4B5E491B785E48C9
:101C800005F8013C0B68A3610388A383B9F8003011
:101C9000E383B8F800302384584B594A1B7884F802
:101CA00022301378574A84F8233013686362564B06
:101CB00056491868A062087884F82C00BBF8000028
:101CC000E085DAF8000020635148524B007884F830
:101CD0003400042040F60C4C84F8350084F83C00B5
:101CE0001878A4F836C084F83D00DFF840C1C4F885
:101CF00038C02046FFF771FF002859D0DFF830C107
:101D00002868CCF800006868CCF80400DFF824C12B
:101D1000A868CCF80000D4F80D00CCF80400288A9C
:101D20003880E07CB870324BA07D3249B07015F835
:101D3000010C1870A06908602F48A18B0180E18B0D
:101D40002E4BA9F80010218C2D4AA8F8001094F809
:101D50002210197094F8231011702A4A616AB5F89C
:101D60001370294B116037802849A26A1A6094F8D1
:101D70002C300B70E38D2648ABF80030236B254ADE
:101D8000CAF8003094F83430037094F83D30137082
:101D90001E4B1A78322A84BF14221A701E4B1968FF
:101DA00041F28732914207DC41F288321A6007E043
:101DB0002046FFF7E3FEEBE747F230529142F5DCB5
:101DC000164B0022C3E90022C3E90222C3E9042220
:101DD000BDE8F88FAFF300803333333333330B4038
:101DE00000000020790800202400002021000020AD
:101DF000E40300201C000020160000206C030020DB
:101E0000680300200C0000200400002020000020B7
:101E100061030020600300201800002060080020FB
:101E200014000020120000201000002004040C0CFC
:101E30002F000020270000200229D8BF02F1FF3226
:101E400010B54FF06404D8BF0C3192FBF4F304FBDF
:101E500013240D2301FB0333052193FBF1F31844F5
:101E6000231EB8BF0333204400EBA3004FF4C87314
:101E700092FBF3F31844642392FBF3F20723A0EBE5
:101E8000420090FBF3F2C2EBC202801A053090FBD5
:101E9000F3F3C3EBC303C01A0130C0B210BD830714
:101EA0000FD1642290FBF2F302FB13035BB94FF4F2
:101EB000C87390FBF3F203FB1200B0FA80F0400904
:101EC0007047002070470120704710B517281C4646
:101ED000029B22D83B2920D83B2A1ED85A1E0B2A07
:101EE0001BD8621E1E2A18D8022B08D10398FFF7B0
:101EF000D6FF1C308442CCBF0020012010BD0C2B2B
:101F00000DD04FF42560D84000F0010080F00100B2
:101F10001F2C18BF40F00100F0E70020EEE7012081
:101F2000ECE7000010B572B60F4B00244FF0FF3203
:101F30001A621C625A625C621A611C615A615C61BD
:101F40004FF0E02301211C6113205C619C6114F0BF
:101F50003FF82146132014F0A5F8044B1A6882F3C9
:101F600008885B689847FEE7003802400000FF1FC2
:101F700073B54B2423460094C622C721AC4813F006
:101F8000D5F92346009424222321AA48AA4C13F011
:101F9000CDF94FF48073A94900930122A84809F0B4
:101FA0007BFDA84B0026B020C4E9003610F06EF986
:101FB000216805460FF012FCC4E90156A24DA34C5E
:101FC000296811F001010AD14FF400438022204614
:101FD000617084F826100AF0DBF901232B609C4B1A
:101FE0009C499D481C6009F0E5FC9C499C489D4D1E
:101FF00013F012FC9C499D4813F00EFC9C499D482F
:1020000013F00AFC9C499D4813F006FC9C499D482E
:1020100013F002FC9C499D4813F0FEFB9C499D482F
:1020200013F0FAFB9C499D4813F0F6FB9C499D4830
:1020300013F0F2FB9C499D4813F0EEFB9C499D4830
:1020400013F0EAFB9C499D4813F0E6FB9C499D4830
:1020500013F0E2FB9C499D4813F0DEFB9C499D4830
:1020600013F0DAFB9C499D4813F0D6FB9C499D4830
:1020700013F0D2FB9C499D4813F0CEFB9C499D4830
:1020800013F0CAFB9C499D4813F0C6FB9C499D4830
:1020900013F0C2FB9C499D4813F0BEFB9C499D4830
:1020A00013F0BAFB9C499D4813F0B6FB9C499D4830
:1020B00013F0B2FB9C499D4813F0AEFB9C499D4830
:1020C00013F0AAFB9C499D4813F0A6FB9C499D4830
:1020D00013F0A2FB9C499D4813F09EFB9C499D4830
:1020E00013F09AFB9C499D4813F096FB9C499D4830
:1020F00013F092FB9C499D4813F08EFB9C499D4830
:1021000013F08AFB9C499D4813F086FB9C499D482F
:1021100013F082FB9C499D4813F07EFB9C499D482F
:1021200013F07AFB9C499D4813F076FB9C499D482F
:1021300013F072FB9C499D4813F06EFB9C499D482F
:1021400013F06AFB9C499D4813F066FB9C499D482F
:1021500013F062FB9C499D4813F05EFB9C499D482F
:1021600013F05AFB9C499D4813F056FB9C499D482F
:1021700013F052FB9C499D4813F04EFB9C499D482F
:1021800013F04AFB9C499D4813F046FB9C499D482F
:1021900013F042FB9C499D4813F03EFB9C499D482F
:1021A00013F03AFB9C499D4813F036FB9C499D482F
:1021B00013F032FB9C499D4813F02EFB9C499D482F
:1021C00013F02AFB9C499D4813F026FB9C499D482F
:1021D00013F022FB9C499D4813F01EFB9C499D482F
:1021E00013F01AFB9C499D4813F016FB9C499D482F
:1021F00013F012FB9C499D4813F00EFB9C499D482F
:1022000013F00AFB9C499D4813F006FB9C499D482E
:1022100013F002FB9C499D4813F0FEFA9C499D482F
:1022200013F0FAFA9C499D4813F0F6FA38E100BF22
:10223000280A002010090020CC080020006400407B
:10224000E008002000000140400B0020440B00206B
:10225000C80800206C0B002048080020C08C010832
:10226000F806002034040020C98C0108040700206F
:10227000D78C010810070020E28C01081C07002001
:10228000EA8C010828070020F48C0108340700209C
:10229000FF8C0108400700200C8D01084C0700202E
:1022A0001B8D0108580700202B8D010864070020B2
:1022B0003B8D0108700700204D8D01087C07002030
:1022C000578D010888070020688D010894070020B9
:1022D000748D0108A0070020898D0108AC0700203B
:1022E0009E8D0108B8070020AC8D0108C4070020AE
:1022F000C08D0108D0070020D08D0108DC07002028
:10230000DE8D0108E8070020EF8D0108F4070020AA
:10231000F98D010800080020058E01080C08002036
:102320001A8E010818080020268E010824080020B3
:10233000328E0108300800203B8E01083C08002046
:10234000498E0108780500204C8E01088405002084
:102350004F8E010890050020528E01089C05002038
:10236000558E0108A8050020588E0108B4050020EC
:102370005B8E0108C00500205E8E0108CC050020A0
:10238000618E0108D8050020648E0108E405002054
:10239000678E0108F00500206A8E0108FC05002008
:1023A0006D8E010808060020708E010814060020BA
:1023B000738E010820060020768E01082C0600206E
:1023C000798E0108380600207C8E01084406002022
:1023D0007F8E010850060020828E01085C060020D6
:1023E000858E010868060020888E0108740600208A
:1023F0008B8E0108800600208E8E01088C0600203E
:10240000918E010898060020948E0108A4060020F1
:10241000978E0108B00600209A8E0108BC060020A5
:102420009D8E0108C8060020A08E0108D406002059
:10243000A38E0108E0060020A68E0108EC0600200D
:10244000A98E0108B8040020B28E0108C40400203F
:10245000C28E0108D0040020D28E0108DC040020C6
:10246000E38E0108E8040020F48E0108F404002043
:10247000048F010800050020148F01080C050020BE
:10248000258F010818050020368F0108240500203B
:10249000438F0108300500204F8F01083C050020C4
:1024A0002249234813F0B8F92249234813F0B4F91C
:1024B0002049224813F0B0F91E49214813F0ACF925
:1024C0002049214813F0A8F92049214813F0A4F924
:1024D0002049214813F0A0F92049214813F09CF924
:1024E0002049214813F098F90024281911490C3487
:1024F00013F092F9842CF8D10E491C4813F08CF992
:1025000013F082FE1A4B18601A4B18601A4B1860B1
:102510001A4B18601A4B18601A4B18601A4B186047
:1025200013F072FE194B186002B070BD5B8F01088A
:1025300048050020CB9D01085405002060050020BF
:102540006C050020618F0108F80300206C8F0108E2
:10255000040400207B8F010810040020908F0108E4
:102560001C040020A28F010828040020D8030020AA
:10257000C8030020C4030020C0030020BC030020C7
:10258000B8030020B4030020B0030020240300207F
:1025900070B51C481C4D13F0FDF810240C26013CAE
:1025A00004D306FB045013F0F5F8F8E7174D102498
:1025B0000C26013C04D306FB045013F0EBF8F8E7BB
:1025C000134D20240C26013C04D306FB045013F0C9
:1025D000E1F8F8E70F4D1C240C26013C04D306FB60
:1025E000045013F0D7F8F8E70B4B5C6844B1204671
:1025F0000EF0F0FF2046B021BDE870400FF04ABE5B
:1026000070BD00BFD8030020F8030020B8040020EC
:1026100078050020F8060020CC080020F0B587B02F
:102620009C49684613F0F8F813F0EEFD9A4B1860D9
:102630009A4812F075FD002800F095809748984C54
:1026400012F0B4FFC1B2684613F0D5F99549964A25
:1026500023684868B3FBF2F340F2D66253434A68FA
:10266000121A9342FBDC8D48904E914D12F09EFF62
:10267000C1B2684613F0BFF933780C2101FB035156
:10268000684613F031FA28BB844812F049FD08B3BC
:1026900002230122694603A813F046FA03A96846FB
:1026A00013F003F903A813F075F87E497E4A2368F6
:1026B0004868B3FBF2F340F2D66253434A68121AF9
:1026C0009342FBDC754812F071FFC1B2684613F00B
:1026D00092F9D1E702230022694603A813F024FAF5
:1026E00033780C2101FB035103A813F0FDF90546D3
:1026F00003A813F04FF8002D35D013F085FD694E77
:102700000546694F029B072B10D9029CA4F10803D0
:102710005C425C416748694612F096FF2CBB00247E
:10272000684613F037F8204607B0F0BD13F06CFD93
:10273000401B3128E9D840F2D66271682368B3FBA8
:10274000F7F353437268521A9342FBDC534812F07A
:10275000E7FC0028D6D0514812F028FFC1B26846E5
:1027600013F049F9CDE70024D4E7534C08230222A3
:10277000694603A813F0D8F925786DB90121132013
:1027800013F090FC4FF4FA7013F040FD294613202B
:1027900013F088FC0123237013F036FD474B4849A2
:1027A000186003A813F0ADF928B1FEF7D1FC03A817
:1027B00012F0F0FFB3E7434903A813F0A2F930B1D8
:1027C000FEF7C6FC012403A812F0E4FFA8E73E4987
:1027D00003A813F096F918B1FEF7BAFC0224F2E749
:1027E0003A4903A813F08DF918B1FEF7B1FC0324A0
:1027F000E9E7374903A813F084F918B1FEF7A8FCFC
:102800000424E0E7334903A813F07BF928B1062438
:10281000314B1C70FEF79CFCD5E7304903A813F040
:1028200070F908B10724F3E72D4903A813F069F9FB
:1028300018B1FEF78DFC1524C5E72A4903A813F04B
:1028400060F918B1FEF784FC1624BCE7264903A8FA
:1028500013F057F930B1204C05232370FEF778FCB4
:102860002478B0E7214903A813F04BF918B1FEF71B
:102870006FFC3724A7E71E4903A813F042F900288C
:1028800095D0FEF765FC13F0BFFC1A4B642418606A
:1028900099E700BFCB9D0108C0030020280A002053
:1028A000D0000020001000E040420F00E4030020B0
:1028B00078050020902E0020D5030020BC030020C6
:1028C000B28F0108B98F0108C08F0108C78F0108B6
:1028D000CE8F0108D58F0108F5030020DC8F010899
:1028E000E38F0108EA8F0108F18F0108F88F0108D2
:1028F000FF8F0108CC0300202DE9F04FDFF8549240
:1029000099F80030022B87B000F083807E4D7F491C
:102910007F48804F09F0DEFA7F49684612F07CFF5D
:102920000A22298803A812F0EAFF03A9684613F0D7
:1029300091F80146794812F087FE03A812F02AFFA9
:10294000684612F027FF7449684612F065FF0A22B4
:10295000298803A812F0D3FF03A9684613F07AF878
:1029600001466F4812F070FE03A812F013FF68468C
:1029700012F010FF2C8864230422012C3B60FA72B1
:102980004AD8FEF7ABFF002262496148FA6009F0BD
:102990004BFA5E495E4809F09DFA0028F9D1614B77
:1029A000614E1B78162B02D0072B40F0A9805F4B9D
:1029B0001B78002B00F0A4805D4AD38852886433D2
:1029C000934280F29D800A2413F01EFC306013F0C5
:1029D0001BFC3368C01A63287BD94E494C4800223F
:1029E00009F022FA49494A4809F074FA0028F9D155
:1029F000013C14F0FF04E7D14E4A00231370022279
:102A000089F800204C4A2B8013704C4B1A684C4BB1
:102A10001A6007B0BDE8F08F5FFA84FBDFF804A10D
:102A2000C4F34604264603FB04F8002EA9D000F0A8
:102A300093F8FEF7B9FA434A2B88128899F80010E8
:102A400033485343404A12887343B3FBF8F31344AB
:102A50004FF47A7253433D4A1278914218BF5B4259
:102A60001BBA2C49FB60002209F0DEF927492848EF
:102A700009F030FA0028F9D19AF80030162B01D06D
:102A8000072B0BD1294B1B78B3B1294AD388528825
:102A90006433934210DA0A2013F0B8FB9AF800303E
:102AA000192B09D1FFF7BAFD642805D113F0ACFB4F
:102AB000274B1860013EB8E7BBF1150F85BF142006
:102AC00070433220B0FBF4F088BF0A3013F09EFB55
:102AD000F0E700F041F87AE700F03EF813F094FBDD
:102AE0003368C01A6328F7D90A490948002209F057
:102AF0009BF90649064809F0EDF90028F9D17BE772
:102B000013F082FB3060E9E7AA03002038000020C0
:102B1000E00800205000002006900108902E0020C0
:102B2000D43B0020F5030020C80300206D030020E3
:102B3000980300206F030020620300204003002060
:102B40003C03002016000020140000206C0300202D
:102B5000CC0300206E030020F0B5924E87B013F036
:102B600053FB3368C01A904B1B6898426FD98F4D46
:102B70008F492B788F4801332B7009F0ABF92C78F3
:102B80000A2C66D18C4D2B78192B5DD08B4FFEF71C
:102B9000A5FE8B49684612F03FFE2246396803A81D
:102BA00012F0ADFE03A9684612F054FF01468548B5
:102BB00012F062FE03A812F0EDFD684612F0EAFD85
:102BC0008049814812F040FD7E49804812F03CFD6A
:102BD0007F493A680B6832B3D31A7E487E4C00783E
:102BE00040B37E48008828B3002BB8BF5B42092B56
:102BF00020DC23787A4F13B913F006FB38600123E9
:102C0000237013F001FB3B68C01A40F2DC5398427A
:102C10001AD9FFF771FE05230A202B7007B0BDE813
:102C2000F040FEF7DFB86F4804886F480068001B6B
:102C3000C31AD2E700230A6023702AB9694B1A88A5
:102C4000694B1B689B1A0B6013F0DEFA306007B00B
:102C5000F0BD631E0B2B3DD8DFE803F0060F3C3CB4
:102C6000063C3C3C3C3C3C0F0121202013F01AFA6E
:102C70000121222013F016FAE6E74F4B1B78192B9F
:102C8000E2D0544B1B7803B35849684612F0C4FD98
:102C9000524B0A22198803A812F031FE03A9684694
:102CA00012F0D8FE0146474812F0E6FD03A812F0E4
:102CB00071FD684612F06EFD4249434812F0C4FCB3
:102CC0004049424812F0C0FCBEE749493D4812F075
:102CD000F4FDF1E704F0FB03032B0BD100212020CE
:102CE00013F0E0F90021222013F0DCF9414809F04B
:102CF00043FBA9E7042C36D12F4B1B78192BA3D00B
:102D00003D4C2368002B9FD03C49684612F084FD5F
:102D10000A22216803A812F0F2FD03A9684612F006
:102D200099FE0146284812F08FFC03A812F032FDEC
:102D3000684612F02FFD3149684612F06DFD0A22F7
:102D4000216803A812F0DBFD03A9684612F082FE99
:102D500001461E4812F078FC03A812F01BFD6846DD
:102D600012F018FD70E7082C0AD1134C2578192DA4
:102D70003FF46AAF10232370FEF7EAF9257063E78A
:102D80000B2C01D0132C07D10B4B1B78192B3FF4C4
:102D90005BAFFEF7DDF957E7142C04BF00232B705F
:102DA00052E700BFC40300201C000020D70300200E
:102DB00038000020E0080020F50300204003002038
:102DC0001B900108D8030020902E0020D43B002047
:102DD0003C0300206F03002062030020AA030020B0
:102DE0002003002010000020440300202790010849
:102DF00030900108B82C0020580300203C900108B6
:102E00002DE9F04397B013F0FFF9A74BA7491860DD
:102E10000AA812F001FDA64812F082F9D8B964247C
:102E2000A249A44E0AA812F048FD0025A24812F0BB
:102E300077F9002840F04085002D40F05785642C3C
:102E400008BF9E4B0AA808BF1C7812F0A3FC2046BE
:102E500017B0BDE8F0839648994D12F0A7FBC1B2B8
:102E60000AA812F0C8FD9349964A2B684868B3FB3C
:102E7000F2F340F2D66253434A68121A9342FBDCE3
:102E80008B48914C914F12F091FBC1B20AA812F0FD
:102E9000B2FD23780C2101FB03710AA812F024FE75
:102EA00028BB834812F03CF908B3022301220AA987
:102EB00013A812F039FE13A90AA812F0F6FC13A801
:102EC00012F068FC7B497F4A2B684868B3FBF2F339
:102ED00040F2D66253434A68121A9A42FBDB7448A6
:102EE00012F064FBC1B20AA812F085FDD1E7237885
:102EF0000C2101FB03710AA812F0F6FD00288ED008
:102F000013F082F9DFF8AC810646DFF8B8910C9B2C
:102F1000072B12D902230AA910A8002212F004FEDE
:102F200023780C2101FB037110A812F0DDFD10BB0A
:102F3000642410A812F02EFC72E713F065F9801BD0
:102F40003128E7D86422D8F804102B68B3FBF9F3D2
:102F50005343D8F80420521A9A42FADB544812F02C
:102F6000DFF80028D3D0524812F020FBC1B20AA8E3
:102F700012F041FDC9E7564D2E786EB9012113209C
:102F800013F090F84FF4FA7013F040F93146132023
:102F900013F088F801232B7013F036F94D4B022201
:102FA00018600AA9082313A812F0BEFD13A910A8DF
:102FB00012F07BFC13A812F0EDFB474910A812F0A9
:102FC000A0FD18B1FEF7C4F8642515E0434910A828
:102FD00012F097FD002836D00AA913A812F05BFC66
:102FE0003F4913A812F042FD0146314812F010FB90
:102FF00013A812F0CFFB0325052302220AA913A868
:1030000012F092FD13A910A812F04FFC13A812F0B1
:10301000C1FB344910A812F074FD002800F0EB82C7
:10302000082305220AA913A812F07EFD13A812F0A6
:10303000A1FD0138207013A812F0ACFB2A4B2278B6
:103040001A702C4675E7294910A812F05AFD05465A
:1030500080B10AA913A812F01EFC214913A812F08E
:1030600005FD0146124812F0D3FA13A812F092FBA4
:103070000425C1E71E4910A812F043FD00283BD0EB
:103080000AA913A812F007FC154913A812F0EEFCC8
:103090000146074812F0BCFA13A812F07BFB154B4F
:1030A0001D700525A8E700BFC0030020CB9D0108C7
:1030B000280A0020001000E0D43B0020F503002087
:1030C000D000002040420F00E403002078050020DB
:1030D000D5030020BC030020B28F0108C78F010870
:1030E000C09B0108D890010878080020CE8F010805
:1030F000F18F0108690300209D4910A812F001FD1D
:1031000080B10AA913A812F0C6FB9A4913A812F0BD
:10311000ADFC0146984812F07BFA13A812F03AFB76
:10312000062569E7954910A812F0EBFC80B10AA9C1
:1031300013A812F0B0FB8F4913A812F097FC0146B8
:103140008D4812F065FA13A812F024FB072553E707
:103150008B4910A812F0D5FC80B10AA913A812F06F
:103160009AFB844913A812F081FC0146824812F0B0
:103170004FFA13A812F00EFB0A253DE7814910A86B
:1031800012F0BFFC80B10AA913A812F084FB7949A0
:1031900013A812F06BFC0146774812F039FA13A815
:1031A00012F0F8FA0B2527E7774910A812F0A9FCCE
:1031B00080B10AA913A812F06EFB6E4913A812F091
:1031C00055FC01466C4812F023FA13A812F0E2FAFB
:1031D0000C2511E76D4910A812F093FC80B10AA9E3
:1031E00013A812F058FB634913A812F03FFC0146E4
:1031F000614812F00DFA13A812F0CCFA0D25FBE687
:10320000634910A812F07DFC80B10AA913A812F03E
:1032100042FB584913A812F029FC0146564812F007
:10322000F7F913A812F0B6FA0E25E5E6594910A8E9
:1032300012F067FC80B10AA913A812F02CFB4D49CB
:1032400013A812F013FC01464B4812F0E1F913A841
:1032500012F0A0FA0F25CFE64F4910A812F051FC4A
:1032600090B10AA913A812F016FB424913A812F054
:10327000FDFB0146404812F0CBF913A812F08AFA80
:103280001025FDF765FFB7E6444910A812F039FC98
:1032900090B10AA913A812F0FEFA364913A812F049
:1032A000E5FB0146344812F0B3F913A812F072FAA4
:1032B0001125FDF74DFF9FE6394910A812F021FCBA
:1032C00080B10AA913A812F0E6FA2A4913A812F04D
:1032D000CDFB0146284812F09BF913A812F05AFAC8
:1032E000132589E62F4910A812F00BFC98B10AA902
:1032F00013A812F0D0FA1F4913A812F0B7FB014629
:103300001D4812F085F913A812F044FA264B012249
:103310001A70142570E6254910A812F0F2FB80B14E
:103320000AA913A812F0B7FA124913A812F09EFBCB
:103330000146114812F06CF913A812F02BFA15256A
:103340005AE61B4910A812F0DCFB98B30AA913A88F
:1033500012F0A1FA074913A812F088FB01460648AB
:1033600012F056F913A812F015FA162544E600BF1C
:10337000D58F0108C09B0108280A0020DC8F0108B6
:10338000459001084C900108539001085A9001089B
:1033900061900108689001086F900108769001081B
:1033A0007D9001088490010867030020E38F0108E5
:1033B000EA8F01089B4910A812F0A3FB80B10AA96B
:1033C00013A812F068FA984913A812F04FFB0146AF
:1033D000964812F01DF913A812F0DCF918250BE637
:1033E000934910A812F08DFBB0B10AA913A812F0EE
:1033F00052FA8D4913A812F039FB01468B4812F09E
:1034000007F913A812F0C6F912F0FEFE894B192530
:103410001860FDF79DFEEFE5874910A812F071FBDB
:1034200090B10AA913A812F036FA7F4913A812F036
:103430001DFB01467D4812F0EBF813A812F0AAF923
:103440001A25FDF785FED7E57C4910A812F059FB37
:1034500080B10AA913A812F01EFA734913A812F03A
:1034600005FB0146714812F0D3F813A812F092F947
:103470001B25C1E5724910A812F043FB80B10AA9CF
:1034800013A812F008FA684913A812F0EFFA0146DF
:10349000664812F0BDF813A812F07CF91D25ABE5C3
:1034A000684910A812F02DFB054680B10AA913A89F
:1034B00012F0F1F95C4913A812F0D8FA01465B4802
:1034C00012F0A6F813A812F065F91E2594E55E49DE
:1034D00010A812F016FB30B154480AA912F098F85F
:1034E0005A4B1D7070E55A4910A812F00AFB0546A8
:1034F00060B1584D12F088FE2B68C01AB0F5487FB5
:10350000BFF462AD12F080FE28605DE5524910A85C
:1035100012F0F7FAA0B10AA913A812F0BCF94249B7
:1035200013A812F0A3FA0146404812F071F813A84C
:1035300012F030F9494B1D70494B83F8235043E595
:10354000484910A812F0DDFA0546A8B10AA913A847
:1035500012F0A1F9344913A812F088FA0146334851
:1035600012F056F813A812F015F93C4A0123137013
:103570003B4A82F8233027E53B4910A812F0C1FAF4
:10358000E0B10AA913A812F086F9274913A812F08E
:103590006DFA0146254812F03BF813A812F0FAF82C
:1035A000324B1D702E4B83F82250314A314B11683B
:1035B0001B685B1AA3F54873136005E52E4910A834
:1035C00012F09FFA00283FF4FFAC0AA913A812F0EA
:1035D00062F9154913A812F049FA0146134812F08E
:1035E00017F813A812F0D6F8204A012313701C4ACA
:1035F00082F82230D9E7214910A812F082FA002877
:1036000040D0082305220AA913A812F08DFA13A8A6
:1036100012F0B0FA1A4B187013A812F0BBF8172466
:1036200087E400BF8B900108C09B0108280A002096
:10363000929001082403002099900108A0900108AD
:10364000A7900108AE900108B5900108670300201B
:10365000FF8F0108CC030020BC9001086803002004
:1036600078080020C3900108CA9001086C0300206C
:103670004003002044030020D1900108DC900108A1
:1036800064030020794910A812F03BFA88B108239E
:1036900005220AA913A812F047FA13A812F06AFA31
:1036A000734C208013A812F075F8724B22881A848C
:1036B000C7E4714910A812F024FAA0B1082305222A
:1036C0000AA913A812F030FA13A812F053FA6B4C9F
:1036D00000EB80004000208013A812F05BF8654BDF
:1036E0002288DA85ADE4664910A812F00AFAE8B13A
:1036F000082305220AA913A812F016FA13A812F03B
:1037000039FA604C208013A812F044F823885E4AEE
:10371000602B128884BF602323809A4284BF0532C5
:1037200093B2544A88BF238093838AE4574910A8F0
:1037300012F0E7F9B0B1082305220AA913A812F084
:10374000F3F913A812F016FA514C207013A812F0D6
:1037500021F82378474A322B84BF3223237082F822
:103760002C306EE44B4910A812F0CBF998B1082325
:1037700005220AA913A812F0D7F913A812F0FAF932
:10378000454B00EB80004000188013A812F002F8AF
:103790000824FFF7CEBB414910A812F0B2F9044645
:1037A00098B1082305220AA913A812F0BDF913A89D
:1037B00012F0E0F9384B00EB80004000188013A8AD
:1037C00011F0E8FF0924FFF7B4BB354910A812F047
:1037D00098F9A8B1052207230AA913A812F0A4F9A1
:1037E00013A812F0C7F92F4D4FF47A73584328608D
:1037F00013A811F0CFFF1F4B2A681A63FFF799BB7C
:10380000294910A812F07DF9A0B1082305220AA9C0
:1038100013A812F089F913A812F0ACF9234D6438FB
:10382000287013A811F0B6FF124B2A7883F83420C1
:10383000FFF77FBB1E4910A812F063F900283FF480
:1038400000AC082305220AA913A812F06DF913A8E9
:1038500012F090F9174D6438287013A811F09AFFF0
:10386000044B2A7883F83D20FFF763BBE090010802
:103870001200002078080020E490010810000020C9
:10388000E89001081600002014000020EC900108C8
:1038900020000020F090010876030020F490010839
:1038A000F890010818000020FC9001086103002036
:1038B0000091010860030020A74811F077FEC1B213
:1038C0000AA812F098F8A54BA54A1B687168B3FBCB
:1038D000F2F340F2D66253437268521A9342FBDC11
:1038E0000C9B1E2B4FF001057FF6A0AA9D4D0223D5
:1038F00000220AA90DA812F017F92A789A4B0C2178
:1039000001FB02310DA812F0EFF8002800F0F2835D
:1039100012F07AFC954B022218600AA9082313A81A
:1039200012F002F913A90DA811F0BFFF13A811F0AE
:1039300031FF8F490DA812F0E4F8002840F0C38051
:103940008B490AA812F0DDF8002840F0BC808949B4
:103950000DA812F0D6F8002800F0B8800124052345
:1039600002220AA913A812F0DFF813A90DA811F07A
:103970009CFF13A811F00EFF7F490DA812F0C1F8AB
:10398000002840F09B827C490AA812F0BAF800286F
:1039900040F0948279490DA812F0B3F8002840F065
:1039A000B68276490AA812F0ACF8002840F0AF823F
:1039B00073490DA812F0A5F8002840F0B8827049AC
:1039C0000AA812F09EF8002840F0B1826D490DA8B7
:1039D00012F097F8002840F0BC826A490AA812F059
:1039E00090F8002840F0B58267490DA812F089F8D8
:1039F000002840F0C38264490AA812F082F8002827
:103A000040F0BC8261490DA812F07BF8002840F01C
:103A1000D3825E490AA812F074F8002840F0CC82E4
:103A20005B490DA812F06DF8002840F0DC8258497F
:103A30000AA812F066F8002840F0D58255490DA872
:103A400012F05FF8002840F0E18252490AA812F013
:103A500058F8002840F0DA824F490DA812F051F8CA
:103A6000002840F0E6824C490AA812F04AF80028E3
:103A700040F0DF8249490DA812F043F8002840F0D9
:103A80001D8346490AA812F03CF8002840F016832E
:103A900043490DA812F035F8002800F023830823CD
:103AA00005220AA913A812F03FF813A812F062F831
:103AB0003C4C6438207013A811F06CFE3A4B22780D
:103AC00083F83D20C9E2FDF743FB48E729490AA8EE
:103AD00012F017F800287FF441AF34490DA812F016
:103AE00010F808B102243AE730490AA812F009F8A0
:103AF0000028F7D12E490DA812F003F808B10324CD
:103B00002DE72B490AA811F0FCFF0028F7D129491D
:103B10000DA811F0F6FF08B1042420E725490AA8F2
:103B200011F0EFFF0028F7D123490DA811F0E9FFAC
:103B300060B921490AA811F0E4FF38B91F490DA85E
:103B400011F0DFFF00283DD0062408E71C4B0022BF
:103B50001A70052403E700BFD43B0020D0000020EA
:103B600040420F00E403002078050020BC03002041
:103B7000B28F0108B98F0108D8900108DC900108C4
:103B8000E0900108E4900108E8900108EC90010839
:103B9000F0900108F4900108F8900108FC900108E9
:103BA000009101086003002078080020C08F010800
:103BB000C78F0108CE8F0108F18F0108D58F01084A
:103BC0006903002073490AA811F09BFF0028BBD1AC
:103BD00071490DA811F095FF08B10724BFE66E49A1
:103BE0000AA811F08EFF0028F7D16C490DA811F03A
:103BF00088FF08B10A24B2E668490AA811F081FFDB
:103C00000028F7D166490DA811F07BFF08B10B24FD
:103C1000A5E663490AA811F074FF0028F7D16149AD
:103C20000DA811F06EFF08B10C2498E65D490AA8B2
:103C300011F067FF0028F7D15B490DA811F061FF73
:103C400058B959490AA811F05CFF30B957490DA875
:103C500011F057FF28B10E2481E65548FDF78EFF7D
:103C60007DE652490AA811F04CFF0028F3D15149D2
:103C70000DA811F046FF08B10F2470E64D490AA8BF
:103C800011F03FFF0028F7D14B490DA811F039FF83
:103C900048BB49490AA811F034FF20BB47490DA889
:103CA00011F02FFF18BB45490AA811F02AFFF0B9FF
:103CB00043490DA811F025FFE8B941490AA811F0C0
:103CC00020FFC0B93F490DA811F01BFFB8B93D490D
:103CD0000AA811F016FF90B93B490DA811F011FF89
:103CE00090B115243BE6FDF733FA102437E6FDF7D3
:103CF0002FFA112433E6FDF72BFA13242FE6334B6A
:103D000001221A7014242AE62F490AA811F0F9FE9C
:103D10000028E6D12E490DA811F0F3FE08B11624B3
:103D20001DE62B490AA811F0ECFE0028F7D129491D
:103D30000DA811F0E6FE08B1182410E625490AA8DE
:103D400011F0DFFE0028F7D123490DA811F0D9FEAC
:103D500058B921490AA811F0D4FE30B91F490DA85D
:103D600011F0CFFE48B11B24F9E512F04DFA1C4BBF
:103D700019241860FDF7ECF9F1E518490AA811F0CB
:103D8000C0FE0028EFD117490DA811F0BAFE58B3B4
:103D90001D24E4E5D58F0108DC8F0108459001085A
:103DA0004C900108539001085A9001086190010855
:103DB00078080020689001080491010876900108B5
:103DC0007D90010884900108E38F010867030020BB
:103DD000EA8F01088B90010892900108A0900108D9
:103DE00024030020A79001089D490AA811F089FE2C
:103DF0000028CDD19B490DA811F083FE002846D1A3
:103E000098490AA811F07DFE002840D196490DA8D6
:103E100011F077FE00283ED193490AA811F071FEF7
:103E2000002838D191490DA811F06BFE002837D138
:103E30008E490AA811F065FE002831D18C490DA8E1
:103E400011F05FFE00282DD189490AA811F059FE12
:103E500040BB88490DA811F054FE30BB85490AA823
:103E600011F04FFE08BB84490DA811F04AFEF0B1D5
:103E70000123824A1370824A82F82230814A824B9F
:103E800011681B685B1AA3F54873136067E57F4BE5
:103E900000221A7063E512F0B7F97D4B18605EE5F9
:103EA0007C4BF5E77B4B0122F3E70023E1E7724906
:103EB0000AA811F026FE0028DAD150E508230522D1
:103EC0000AA913A811F030FE13A811F053FE01380F
:103ED000287013A811F05EFC694B2A781A70082329
:103EE00000220AA913A811F01FFE13A90DA811F0B2
:103EF000DCFC13A811F04EFC67490DA811F001FE7F
:103F0000002800F09F81FEF7F7FCFEF70BF808236E
:103F100005220AA913A811F007FE13A811F02AFE22
:103F20005E4B187013A811F035FC1724D7E708234F
:103F300005220AA913A811F0F7FD13A811F01AFE23
:103F4000574D288013A811F025FC4D4B2A881A8460
:103F5000C5E7082305220AA913A811F0E5FD13A857
:103F600011F008FE4F4D00EB80004000288013A8A0
:103F700011F010FC424B2A88DA85B0E708230522AD
:103F80000AA913A811F0D0FD13A811F0F3FD464DB6
:103F9000288013A811F0FEFB2B88444A602B12885E
:103FA00084BF60232B809A4284BF053293B2344A87
:103FB00088BF2B80938392E7082305220AA913A8C0
:103FC00011F0B2FD13A811F0D5FD394D287013A8DA
:103FD00011F0E0FB2B782A4A322B84BF32232B705E
:103FE00082F82C307BE7082305220AA913A811F0D8
:103FF0009BFD13A811F0BEFD2E4B00EB800040008E
:10400000188013A811F0C6FB082468E708230522CE
:104010000AA913A811F088FD13A811F0ABFD254BD8
:1040200000EB80004000188013A811F0B3FB0924B6
:1040300055E7052207230AA913A811F075FD13A857
:1040400011F098FD1C4C4FF47A735843206013A86C
:1040500011F0A0FB0A4B22681A6300243FE700BF5F
:10406000A7900108B5900108FF8F0108C3900108CF
:10407000BC900108CA900108D19001086C0300208F
:10408000780800204003002044030020670300203C
:10409000CC030020680300208D91010864030020F8
:1040A0001200002010000020160000201400002044
:1040B000200000207603002018000020082305229D
:1040C0000AA913A811F030FD13A811F053FD674C95
:1040D0006438207013A811F05DFB654B227883F8DB
:1040E0003420BAE763490AA811F00BFD00287FF4D9
:1040F000D6ACF4E660490DA811F003FD10BB5E4993
:104100000AA811F0FEFCE8B95C490DA811F0F9FC11
:10411000002849D0172303220AA913A811F004FD8F
:1041200010AB039309AB029308AB019307AB009369
:104130005349139806AB05AA12F06AFA06283AD03A
:1041400050497BE0504913A811F066FB0A222978F8
:1041500010A811F0C3FB10A913A811F07BFC0146B5
:104160004A4811F055FA10A811F014FB13A811F0E9
:1041700011FB052012F04AF8434913A811F04CFB3B
:104180000A22297810A811F0A9FB10A913A811F090
:1041900061FC01463D4811F03BFA10A811F0FAFA13
:1041A00013A811F0F7FA9AE634490AA811F0A9FC0D
:1041B0000028AFD193E6DDE90561109B079F0193CD
:1041C000099B00933A46089B3046FDF77EFE002887
:1041D00033D04FF47A730022CDE900322C4DFBB27C
:1041E0002868CAB2F1B208F01FF9DDE90867D5F80E
:1041F0000080109D39462A463046FDF71DFE3035B9
:10420000EDB20146FBB2F2B24046009508F060F90B
:104210002049214811F022FA204B059A1A70069A7B
:104220005A70079A9A70089ADA70099A1A71109A55
:104230005A7113A811F0AEFA51E61949164811F057
:104240000DFAF6E717490DA811F05BFC40B11649CD
:104250000E4811F003FA142011F0D8FF09F0AEFC5B
:104260000DA811F097FAFEF7EABD00BF6103002028
:1042700078080020009101080B9101080E910108B7
:10428000119101086491010823910108D43B002099
:10429000C808002027910108902E0020C0080020A7
:1042A00041910108969101089F91010808B511F00C
:1042B000ABFF064B1B68C01A132803D9BDE80840A2
:1042C000FEF79EBD024B187808BD00BFC00300205A
:1042D000F503002070B50121212011F0E3FE01213A
:1042E000202011F0DFFE0121132011F0DBFE01215F
:1042F000C52011F0D7FE11F087FF5D4C5D4D5E4E7D
:10430000206011F081FF2368C01A63286ED9002154
:10431000212011F0C7FE0021202011F0C3FE002152
:10432000132011F0BFFE0021C52011F0BBFE11F0DB
:104330006BFF504D504E206011F066FF2368C01A8D
:10434000632871D90121212011F0ACFE0121202028
:1043500011F0A8FE0121132011F0A4FE0121C520B7
:1043600011F0A0FE11F050FF424D434E206011F0BD
:104370004BFF2368C01A63285FD90021212011F068
:1043800091FE0021202011F08DFE0021132011F05C
:1043900089FE0021C52011F085FE11F035FF354D55
:1043A000354E206011F030FF2368C01A63284DD9C4
:1043B0000121212011F076FE0121202011F072FE52
:1043C0000121132011F06EFE0121C52011F06AFEBB
:1043D00011F01AFF274D284E206011F015FF2368B9
:1043E000C01A63283BD9002121200CE0FFF75EFFB3
:1043F000052814D1204B0122002121201A7011F030
:1044000051FE0021202011F04DFE0021132011F05B
:1044100049FEBDE870400021C52011F043BE2B7855
:10442000002BE7D133706CE7FFF740FF0528E1D0A0
:104430002B78002BDED133707EE7FFF737FF05289E
:10444000D8D02B78002BD5D1337090E7FFF72EFF13
:104450000528CFD02B78002BCCD13370A2E7FFF703
:1044600025FF0528C6D02B78002BC3D13370B4E7C5
:10447000C8030020E5030020F50300202DE9F04FDC
:10448000994F3B78022B85B0044600F0B081974DE0
:1044900011F0BAFE2B68C01A312840F2A88111F041
:1044A000B3FE28609249934807F014FD06460028A1
:1044B000F8D1914D64232B600423EB7211F0A4FE1C
:1044C000092C4EDD8D4B1B88E21A092AC8BF03F167
:1044D0000A04642CA8BF6424DFF82092B9F80060B5
:1044E000A64280F2C380A61BC6F347027310029255
:1044F00064225343DFF818A201934FF00008029B97
:10450000DFF818B25FFA88F69E423BD3BBF8003062
:104510003978784864226343B3FBF2F3784A12880F
:104520001344784A1278914218BF5B424FF47A7272
:1045300053431BBAEB60002303936F499DF80B3084
:104540002B74002207F070FC69496A4807F0C2FC2E
:104550000028F9D1A9F8004005B0BDE8F04FFDF7FB
:10456000BDB9642CB8D96348EE603246294607F0DD
:104570005BFC5F495F4807F0ADFC0028F9D15F4B59
:104580001880E9E7FEF7E8FAFCF70EFDBBF800102B
:10459000B9F80030DFF888B101FB03F26420B2FB08
:1045A000F0F257480088E31A024408FB03F34B4338
:1045B000019993FBF1F31344524A397812784D482C
:1045C000914218BF5B424FF47A7253431BBA4A4977
:1045D000EB60002207F028FCFDF780F911F014FED3
:1045E000033E252ECBF800003ED8474B1B78002B0E
:1045F0003AD0C8EB08166FF0090396FBF3F6503675
:10460000F6B211F001FEDBF80030C01AB04202D35E
:1046100008F1010873E7FEF79FFAFCF7C5FC9AF86A
:104620000030192B0AD1394B1B7863B1384B052266
:104630001A7005B0BDE8F04FFEF75EB9FFF736FE21
:104640000528F0D1F2E79AF80030192BD9D1FDF7FF
:10465000E5FF0528EDD03728EBD06428D1D111F043
:10466000D3FD2C4B1860CCE72326CAE740F3C98062
:10467000294B1A88361BB2F5C87FC6F3470603D903
:104680005B88B3F5C87F00D8760864237343019331
:104690004FF000084FF01E0B5FFA88F39E4241D89E
:1046A000002C00F0AC801D4B1B8864226343B3FBDD
:1046B000F2F3134A12881344124A397812780D48DB
:1046C000914218BF5B424FF47A7253431BBA0A49B6
:1046D000EB60002207F0A8FB0549064807F0FAFB4B
:1046E0000028F9D136E700BF6E030020B403002094
:1046F00038000020E008002050000020AA0300201D
:10470000140000206C0300206D030020E50300204E
:10471000F5030020CC0300209803002016000020A1
:10472000C8030020FEF718FAFCF73EFC454BB9F829
:1047300000201888DFF834A100FB02F16423B1FBEC
:10474000F3F1414B1B881944131B08FB03F3019A37
:10475000434393FBF2F33D4A3878127890420CBF02
:10476000CB1A5B1A4FF47A7253431BBA3849394853
:10477000EB60002207F058FBFDF7B0F811F044FDA4
:10478000354BCAF800001B783BB11E2303FB08F32E
:10479000B3FBF6F314335FFA83FB11F035FDDAF85F
:1047A0000030C01A584502D308F1010874E7FCF73D
:1047B000FBFB2A4B1B78192B1CD1294B1B78002B98
:1047C0007FF434AF254B1B78192B0DD1FDF726FF55
:1047D00005283FF42EAF37283FF42BAF642803D1D0
:1047E00011F012FD1F4B18603B78022BD5D105B09C
:1047F000BDE8F08FFFF75AFD0528DED116E7234606
:104800005AE7104B39781B88124864226343B3FB84
:10481000F2F30D4A128813440C4A1278914218BFE1
:104820005B424FF47A7253431BBA0949EB60002292
:1048300007F0FAFA0C49074807F04CFB0028F9D1B9
:104840008AE600BF16000020140000206C03002040
:1048500050000020E00800206D030020F503002038
:10486000E5030020CC03002038000020C80300200E
:104870002DE9F047082086B011F04CFC50BB1D20FC
:1048800011F048FC30B38049804810F0E7FE8049C1
:1048900003A810F0C1FF7F4B0A221978684611F077
:1048A0001DF8694603A811F0D5F80146774810F0C5
:1048B000CBFE684610F06EFF03A810F06BFF724944
:1048C000754810F0CBFE7549734806B0BDE8F04757
:1048D00010F0C4BE6C496D48714D724C724F10F0AF
:1048E000BDFE7249694810F0B9FE67496A4810F088
:1048F000B5FE6E49684810F0B1FE11F085FC11F06C
:1049000083FC65232B6004230646EB72C4F3076324
:104910002B73C4F307436B736548EC73C4F307232D
:1049200000222946AB7307F07FFA11F06DFC801B63
:104930001D281DD911F068FCA4F59C545D4B083C62
:104940009C420646E2D111F05FFC5B4BEB600746F0
:10495000082011F0DFFB20B151495548002207F033
:1049600063FA0024DFF84091DFF85C81254620E0FF
:10497000FFF79CFC052805D1464B05221A7006B0AE
:10498000BDE8F0873B78002BF6D1CEE70A2011F086
:104990003DFC324642494648484E07F045FAFEF78C
:1049A000DBF8FCF701FB4549414807F093FA002882
:1049B0004AD1082011F0AEFBB0B1FFF777FC052813
:1049C000DAD099F80060002ED6D111F01DFC3C4BD6
:1049D0001B68C01B9842D9D9FCF7E4F90920FCF701
:1049E00001FA2C4B05221A702D493148002207F09C
:1049F0001BFA1D2011F08EFB10B1324B01221A70F0
:104A0000FCF7D0F994FBF5F42F4B30491A68B2F556
:104A1000FA7FC8BFFA2203A8C8BF1A6010F0FCFED4
:104A20000A222146684610F06AFF694603A811F081
:104A300011F80146184810F007FE684610F0AAFE6B
:104A400003A810F0A7FE9AE7337A002BABD13268A7
:104A500040F665139A42A6D1327C737C03EB0223A5
:104A6000D8F800209A4205F1010A05DA032D03DD8A
:104A7000C8F800301C4402E0BAF1030FFADC11F070
:104A8000C3FB55468FE700BF83930108902E00209B
:104A9000C4910108F5030020D43B0020DE910108F9
:104AA0005000002078ECFFFFE5030020EE910108A4
:104AB000E0080020B03CFFFFFFFF3CB038000020C2
:104AC000080000206D030020580300200192010817
:104AD0002DE9F0411D2086B011F01CFB654F48BB4D
:104AE000082011F017FB28B36349644810F0B6FDA5
:104AF000634903A810F090FE0A223978684610F046
:104B0000EDFE694603A810F0A5FF01465B4810F0D2
:104B10009BFD684610F03EFE03A810F03BFE564990
:104B2000584810F09BFD5849564806B0BDE8F04182
:104B300010F094BD50495148544DDFF8648110F095
:104B40008DFD534903A810F067FE0A2239786846A4
:104B500010F0C4FE694603A810F07CFF01464748E8
:104B600010F072FD684610F015FE03A810F012FE5A
:104B70004149444810F072FD4649424810F06EFD2C
:104B800011F042FB65232B6004230646EB7241F2D1
:104B90008834C4F307632B73C4F307436B733E4835
:104BA000EC73C4F3072300222946AB7307F03CF9EA
:104BB00011F02AFB801B1D2840D911F025FB04F5BC
:104BC0009C5408344CF250339C420646E1D111F01B
:104BD0001BFB324BEB6004461D2011F09BFA20B109
:104BE0002A492D48002207F01FF92D4EDFF8C0801A
:104BF0001D2011F08FFA98B1FFF758FB052821D03E
:104C00003578FDB911F000FBD8F80030001B984250
:104C100022D9FCF7C7F80920FCF7E4F805233B701C
:104C20001D2011F077FA08B91E4B1870FCF7BAF87E
:104C30001D4A002313701D4A136005E0FFF736FB81
:104C4000052804D105233B7006B0BDE8F08198F833
:104C50000030002BF6D1ABE70A2011F0D7FA0B4950
:104C60000D482A4607F0E0F8FDF776FFFCF79CF9BF
:104C7000BEE700BFF503002083930108902E0020BB
:104C800009920108D43B0020259201085000002021
:104C90003792010856920108E00800200000C35036
:104CA000E50300206D03002063030020580300206B
:104CB00008000020F0B5964996488BB010F0FDFD35
:104CC0009449954810F0C0FC9249944810F0BCFCFF
:104CD000FCF76AF9924B1B781BB1924B1888FFF7CF
:104CE000CDFB914C914FFCF715F8914B62881A60FF
:104CF000904BE2881A6011F087FA01253860002D88
:104D000000F0B4808C4EFFF7D1FA052826D0337816
:104D100023BBFDF721FFFCF747F911F075FA3B685B
:104D2000C01A3228EFD9FCF7D9FD6288E08840F23A
:104D3000DB539A423ED998423ED9804B1868804B4B
:104D40001B7823B37F4B1B68CBB1C01A40F6B83336
:104D500098420ADD5020FFF791FB32E0FDF7CCFDD1
:104D6000794B05221A700BB0F0BD40F225739842C2
:104D7000C9BF1E23282090FBF3F01438EBE740F660
:104D8000D1739842E6DD322390FBF3F0E3E7A0F124
:104D9000650240F2A3639A4201D95A20DBE714234B
:104DA00090FBF3F05F4B1B88002BD4D08342D2DA08
:104DB0001846D0E7824221D340F2ED2398420AD828
:104DC0000025614B1B78052BCDD03378002BCAD141
:104DD00011F01AFA92E75A4B1B785BB9283819235D
:104DE000B0FBF3F04F4B1B888342B4DA142BDFD8AF
:104DF0001420B0E7A0F5E1701423F1E7534B93F9C9
:104E0000003003F196018A4227DD1221A2F1280326
:104E100093FBF1F3434908884949097839B140F2D5
:104E200009318A4203D9834214DD88B10346062B37
:104E3000B8BF062383420EDD232809D9FFF71EFBE6
:104E4000E58840F2ED239D4294BF00250125B8E797
:104E50000530F3E728231846F0E75A339A4201DD7C
:104E6000052078E7354B3C221A60A9E76388334D6B
:104E7000962B31D9364904A810F0CEFC0A22E188DD
:104E800001A810F03CFD01A904A810F0E3FD314990
:104E900010F0ECFD0A222968044607A810F02FFD47
:104EA00007A9204610F0D6FD01461A4810F0E4FC90
:104EB00007A810F06FFC01A810F06CFC04A810F01B
:104EC00069FC1449144810F0BFFB124913480BB099
:104ED000BDE8F04010F0B8BB1F4907A810F09CFCDB
:104EE0000A22618804A810F00AFD04A907A810F09E
:104EF000B1FD0146074810F0BFFC04A810F04AFCC1
:104F000007A810F047FC63881E3B2B60D9E700BF61
:104F10006B920108D8030020902E0020D43B002083
:104F20006F030020AA03002098030020C80300207C
:104F3000300300202C030020E50300204003002064
:104F40006D03002034030020F503002060030020DF
:104F50008592010890920108989201082DE9F0418C
:104F60008C498D488D4D8AB010F0A7FC8A498C4839
:104F700010F06AFB88498B4810F066FB2B781BB158
:104F8000894B1888FFF77AFA884CFCF70DF8884BA4
:104F900022881A60874BA2881A602B781BB1824B3B
:104FA0001888FFF76BFAFBF7C1FE11F02DF9824F5D
:104FB00001253860002D00F01781804EFFF776F94B
:104FC000052838D096F80080B8F1000F33D1FDF7EE
:104FD000C3FDFBF7E9FF11F017F93B68C01A32284F
:104FE000ECD9FCF77BFC2388A08840F2DB5293428B
:104FF00040F28980904240F28880714B1B78002BF0
:105000005FD0704B1B788BB36F4B704A1B68126874
:105010009B1A40F6B832934215DD5020FFF72EFA66
:10502000A8466B4B1B78052B0AD0337843B911F097
:10503000EBF84546BDE7FDF75FFC654B05221A70AE
:105040000AB0BDE8F0811E22A3F5167090FBF2F0C5
:10505000554A1288904203DD312A30D83220DDE7EC
:1050600040F225729342D8BF2820D7E7594B1B68DE
:1050700040F6B83293420CDD574A12889B1A534AC5
:1050800012689B1AB3F5FA6F01DD4620C6E7632B61
:1050900006DC524B1B88562B8CBF3C204220BDE7C0
:1050A00041490888192293FBF2F2824203DD13285A
:1050B000B4D81420B2E740F2FA418B42CEDD10465C
:1050C000ACE7454B1A88434B1B689B1A3F4A126852
:1050D0009B1AA3F1640140F2A462914201D95A20C3
:1050E0009CE73F490978142293FBF2F231B12E4B31
:1050F00018889042E3DA0028E1D08FE7B3F57A7F91
:10510000B8BF3222DBE7834210D340F2ED2398424E
:1051100087D919232838B0FBF3F0234B1B8898421A
:10512000FFF67CAF132BC4D9184677E72D4A92F9C6
:10513000002002F196018B4226DD214A12781AB135
:1051400040F20932934219D8932B19DD283B1222E1
:10515000B3FBF2F3144A1088984213DA232898BF5D
:105160000530FFF78BF9B4F8048040F2ED23984541
:1051700094BF4FF000084FF0010852E72823E9E7F9
:105180000623E7E71846ECE75A3293427FF749AF28
:10519000052043E7B0920108D80300206F030020E8
:1051A000902E0020D43B0020AA030020980300206A
:1051B000300300202C030020C8030020E50300205A
:1051C0006D030020D303002038030020400300209B
:1051D000F5030020440300201000002016000020EA
:1051E000D00300206003002023882C4D962B31D95A
:1051F0002B4904A810F010FB0A22A18801A810F086
:105200007EFB01A904A810F025FC264910F02EFC15
:105210000A222968044607A810F071FB07A9204656
:1052200010F018FC0146204810F026FB07A810F0EB
:10523000B1FA01A810F0AEFA04A810F0ABFA1A49BE
:105240001A4810F001FA184919480AB0BDE8F041AF
:1052500010F0FAB9174907A810F0DEFA0A222188DF
:1052600004A810F04CFB04A907A810F0F3FB0146BA
:105270000D4810F001FB04A810F08CFA07A810F0FC
:1052800089FA0D4B2A681B881344228813440B4A61
:105290001E3B13600A4B01221A70D0E74003002026
:1052A0008592010890920108D8030020902E0020DA
:1052B000D43B0020CA9201081000002044030020C3
:1052C000D00300202DE9F04F8DB005460E4617465D
:1052D000FBF76AFEB54B1B88452B0ED8B449B54881
:1052E00010F0EBFAB349B44810F0AEF9B149B34845
:1052F0000DB0BDE8F04F10F0A7B9B14903A810F008
:105300008BFA0A22294606A810F0F9FA06A903A882
:1053100010F0A0FBAB4910F0A9FBAB4B0A221968B7
:10532000044609A810F0EBFA09A9204610F092FBF8
:105330000146A04810F0A0FA09A810F02BFA06A820
:1053400010F028FA03A810F025FA9A499A4810F0AC
:105350007BF99849994810F077F99C4806F082FB50
:10536000B0F5805F0446F8D810F04EFF984B022E3F
:10537000B8BF02266FF4FA72B742186005EB020359
:10538000C8BF06F1FF37B3F5FA7F04D2322EA8BFAB
:105390003226323D11E06FF49673EB18C72B04D818
:1053A0001E2EA8BF1E260A3D07E0B5F5967FF0DC4D
:1053B000142EA8BF1426322DF5DCFBF7ABFCFBF74F
:1053C000F3FD10F021FFDFF80892804610F01CFF7B
:1053D00001230193019BC9F80000002B00F02E81EE
:1053E000DFF808A2FEF762FF052836D09AF80030F1
:1053F0009BBBFDF7B1FBFBF7D7FD10F005FFD9F81C
:105400000030C01A3228EDD9FCF768FA6F4806F070
:1054100029FBB0F5805F8246F8D86E490978221AD8
:10542000531E00294ED1B3F5FA6F1ED2C0F34F2C94
:105430006948C4F34F235FFA83FBCAF3472EF34551
:10544000C15C48D102FB01F35B12002B54D0ED1A72
:1054500010F0DAFE544680464EE0604B05221A708A
:105460000DB0BDE8F04FFDF747BA031BB3F5FA6F77
:1054700009DD594AC0F58053D179127813FB01F345
:1054800004FB0233E0E7591EB1F5FA6F0ED2DFF8E4
:1054900048C1C4F34F22C0F34F201CF80210CAF3D6
:1054A000472ED2B2724546D14B43CDE7B2F5FA6FE3
:1054B00022DD49490B78C979C4F580524A4313FB70
:1054C0000A2312E0B3F5FA6F22D2C0F34F2CC4F3D3
:1054D0004F234348AFE71BB210F80C00CAEB43223E
:1054E000A4EB43234B4300FB0233002BB8BF03F272
:1054F000FF135B12002BA8DA2C4B5B88C6EB06125D
:10550000934225DBAA4223DC3046FEF7B7FF2CE0AE
:10551000031BB3F5FA6F03DD314AC0F58053ABE7E7
:10552000591EB1F5FA6F0ED2DFF8B4C0C4F34F22A2
:10553000C0F34F20B1E703B2AAEB43221CF80000EE
:10554000C4EB4323CEE7B2F5FA6FD5DD2449B1E7CA
:10555000244991F900105A318B421FDCFDF7CCF938
:10556000194B00221A60002301931F4B1B78002B5C
:1055700056D110F049FE41F28833A0EB0800984262
:1055800059D90C20FBF72EFCFDF7B6F9FFF7A0FA6E
:10559000124B05221A700DB0BDE8F08FAB4227DC2C
:1055A000934225DA0F20B3FBF0F0AEE7980300201A
:1055B000E2920108D8030020902E0020D43B002066
:1055C000049301089092010840030020480800203D
:1055D000C80300206C0300202F000020F5030020EA
:1055E00027000020600300206D030020E503002059
:1055F000AA42C7EB07130DDD9D4203DD0F2095FB8B
:10560000F0F082E7002DAEDD194B1888874204DAEE
:1056100038467AE79D42A8DCF6E70028F8D074E720
:1056200010F0F2FD40F6B833A0EB08009842A0D984
:105630001D2D9EDC14E710F0E7FDCBE60D4906A812
:1056400010F0EAF80C4B0A22196809A810F057F973
:1056500009A906A810F0FEF90146084810F00CF957
:1056600009A810F097F806A810F094F83AE600BFE1
:10567000AA0300201893010840030020D80300204B
:1056800008B50A226421FFF71DFEBDE80840FDF7BA
:1056900033B90000000000002DE9F04F974C984905
:1056A0008DB009A810F0B8F80A22E18806A810F019
:1056B00026F906A909A810F0CDF90146914810F085
:1056C000DBF806A810F066F809A810F063F88D4919
:1056D0008D480FF0B9FF8B498C480FF0B5FFFFF7ED
:1056E000E9FA8B4B1B78052B00F00B82894F3B7836
:1056F000002B40F00682884E33882BB96388FA2B42
:1057000002D91420FEF7BAFE844BE2881B78002BE6
:1057100014BF64234623B2F5617F00F2BC81804A46
:10572000DFF8148292F9002013449BB2019310F029
:105730006BFD40F22529C8F800004FF0140A4FF025
:10574000170BE3884B451D4604D9628801998A42AC
:1057500000F29C80DFF8DC91724BD9F800701B6876
:105760007149DFF8D4B106A81F4410F055F80A2299
:10577000318803A810F0C3F803A906A810F06AF94D
:105780006A4910F073F90A220646D9F8001009A8F0
:1057900010F0B5F809A9304610F05CF901465948F7
:1057A00010F06AF809A80FF0F5FF03A80FF0F2FF58
:1057B00006A80FF0EFFF534953480FF045FF51493A
:1057C00052480FF041FFB4F806A0FBF7EDFB0126AD
:1057D000B04610F019FDDBF80030C01A632878D904
:1057E00010F012FDE288CBF80000A2F1FB03B3F544
:1057F000957F24D84E4909A810F00EF80A22E188B6
:1058000006A810F07CF806A909A810F023F90146B3
:105810003C4810F031F806A80FF0BCFF09A80FF0C3
:10582000B9FF384938480FF00FFF364937480FF0B5
:105830000BFFE28808F1010815445FFA88F840F28E
:1058400026239A420DD90136F6B2032E09D1394BDF
:105850001F68344B1B6815461F44924602264FF0C2
:1058600001081423A2F1C80090FBF3F02A4B198819
:105870006388814262DAB2F52F7F63D2B3F52F7F5E
:1058800040F224810846FEF7F9FD61E0B3FBFAF02F
:105890000A383388B2FBFBF29042A8BF1046C21A06
:1058A000032AC8BFD81C0528B8BF0520FEF7E6FDAF
:1058B000FDF752F9FEF7FAFC052817D03B78ABB993
:1058C00010F0A2FCC8F80000FCF708F8FBF76CFB2E
:1058D00037E7FDF741F9FBF767FBFEF7E7FC052823
:1058E00004D00C4B1B78002B3FF473AF084B052200
:1058F0001A700DB0BDE8F04FFCF7FEBF9803002012
:1059000031930108D8030020902E0020D43B0020C2
:10591000F5030020E5030020AA0300206D0300200A
:10592000600300201C030020279001085893010801
:105930006693010840030020C8030020B2F52F7FC2
:10594000C0F0BD80B3F52F7F40F2C080FFF7B2F901
:10595000FBF7C4FFB8F1040F7FF43BAF6C4909A813
:105960000FF05AFF0A22E18806A80FF0C8FF06A927
:1059700009A810F06FF8014666480FF07DFF06A8F1
:105980000FF008FF09A80FF005FF624962480FF009
:105990005BFE604961480FF057FED9F80030E1889E
:1059A000A7EB0308AAEB0101B8F1000FB8BFC8F1DB
:1059B00000080029B8BF494201EB410606A8584932
:1059C0000FF02AFF0A22052103A8B6FBF1F10FF020
:1059D00096FF03A906A810F03DF8524910F046F8CA
:1059E0004FEA68070A220646394609A80FF087FFE2
:1059F00009A9304610F02EF8014646480FF03CFF4A
:105A000009A80FF0C7FE03A80FF0C4FE06A80FF008
:105A1000C1FE454B1E681EB1503E192396FBF3F69E
:105A2000B8F1110FDFF81C8106DDB8F80030B3F5CE
:105A3000487F04BF093FF619364937480FF004FE86
:105A4000344936480FF000FE384B002D1888384B8B
:105A5000B8BF0335C0EBA50093F900306438002EC1
:105A6000A8BF801BC01AB8F80030B3F57A7F02D007
:105A7000B3F5966F00D11938FAF744FD22A3D3E9A4
:105A80000023FAF7A9FD2B4B1D88FBF755F80722D9
:105A90002946FFF717FCFCF72FFF6388FA2B2ED956
:105AA00025491C480FF009FF1A491B480FF0CCFD8F
:105AB00018491A480DB0BDE8F04F0FF0C5BDB2F55A
:105AC000B47F13D3B3F52F7F3FF6DDAE1B4A92F9B7
:105AD00000206432934210DD722B0CD91722B3FBE5
