:020000040800F2
:100000000000022065D50108B5D50108B5D5010865
:10001000B5D50108B5D50108B5D501080000000027
:10002000000000000000000000000000B5D501083D
:10003000B5D5010800000000B5D501085BAD010889
:10004000B5D50108B5D50108B5D50108E1390108D4
:10005000B5D50108B5D5010841B001084BB001087C
:1000600055B001085FB0010869B00108B5D50108B5
:10007000B5D50108B5D50108B5D50108B5D5010834
:10008000B5D50108B5D50108B5D501089D2A0108E7
:100090007D2A0108B5D50108B5D5010873B001085E
:1000A000E99A0108099A0108FD9A0108299A0108AC
:1000B0003D9A0108519A0108659A010875E90008FE
:1000C00085E9000895E90008A5E90008B5D501080B
:1000D000B5D5010889C00108A1C00108B9C001084F
:1000E00089B00108BD39010889EA0108119B01089E
:1000F000B59A0108259B0108D59A0108B5D50108D4
:10010000B5D50108B5D50108799A0108B5D501081A
:10011000D1C00108E9C001088D9A0108A19A01081F
:10012000B5D50108B5D50108B5D50108B5D5010883
:10013000B5D50108B5D50108B5D50108AD2A010826
:100140008D2A0108B5D50108B5D5010879EA01085D
:10015000B5D50108B5D50108B5D5010801C101081B
:10016000B5E90008C5E90008B5D50108B5D501080D
:10017000B5D50108B5D50108B5D5010800000000C6
:08018000B5D50108B5D5010851
:1001900010F8012B11F8013B012A28BF9A42F7D031
:1001A000D01A7047034613F8012B002AFBD1181A06
:1001B000013870470000000000000000000000004F
:1001C00001F0FF01102A2BDB10F0070F08D010F808
:1001D000013B013A8B422DD010F0070F42B3F6D10C
:1001E000F0B441EA012141EA014122F007047FF025
:1001F00000070023F0E80256083C85EA010586EA7C
:10020000010685FA47F5A3FA87F586FA47F6A5FAB7
:1002100087F68EB9EED1F0BC01F0FF0102F00702C3
:1002200032B110F8013B013A83EA010313B1F8D16E
:100230000020704701387047002D06BF354603384F
:10024000073815F0010F07D1013015F4807F02BF88
:10025000013015F4C03F0130F0BC0138704700BFD9
:1002600081F0004102E000BF83F0004330B54FEA67
:1002700041044FEA430594EA050F08BF90EA020FD4
:100280001FBF54EA000C55EA020C7FEA645C7FEA67
:10029000655C00F0E2804FEA5454D4EB5555B8BF8A
:1002A0006D420CDD2C4480EA020281EA030382EAFB
:1002B000000083EA010180EA020281EA0303362D8D
:1002C00088BF30BD11F0004F4FEA01314FF4801C60
:1002D0004CEA113102D0404261EB410113F0004F72
:1002E0004FEA03334CEA133302D0524263EB430329
:1002F00094EA050F00F0A780A4F10104D5F1200EC7
:100300000DDB02FA0EFC22FA05F2801841F1000121
:1003100003FA0EF2801843FA05F359410EE0A5F1F5
:1003200020050EF1200E012A03FA0EFC28BF4CF026
:10033000020C43FA05F3C01851EBE37101F00045DC
:1003400007D54FF0000EDCF1000C7EEB00006EEBE9
:100350000101B1F5801F1BD3B1F5001F0CD3490873
:100360005FEA30004FEA3C0C04F101044FEA4452CA
:1003700012F5800F80F09A80BCF1004F08BF5FEA51
:10038000500C50F1000041EB045141EA050130BD31
:100390005FEA4C0C404141EB0101013C28BFB1F543
:1003A000801FE9D291F0000F04BF01460020B1FA8E
:1003B00081F308BF2033A3F10B03B3F120020CDA61
:1003C0000C3208DD02F1140CC2F10C0201FA0CF03F
:1003D00021FA02F10CE002F11402D8BFC2F1200CA4
:1003E00001FA02F120FA0CFCDCBF41EA0C0190405A
:1003F000E41AA2BF01EB0451294330BD6FEA0404A3
:100400001F3C1CDA0C340EDC04F11404C4F120028D
:1004100020FA04F001FA02F340EA030021FA04F39F
:1004200045EA030130BDC4F10C04C4F1200220FAF6
:1004300002F001FA04F340EA0300294630BD21FA34
:1004400004F0294630BD94F0000F83F4801306BFFA
:1004500081F480110134013D4EE77FEA645C18BFEE
:100460007FEA655C29D094EA050F08BF90EA020F85
:1004700005D054EA000C04BF1946104630BD91EA7D
:10048000030F1EBF0021002030BD5FEA545C05D180
:100490004000494128BF41F0004130BD14F58004BF
:1004A0003CBF01F5801130BD01F0004545F0FE4133
:1004B00041F470014FF0000030BD7FEA645C1ABF68
:1004C000194610467FEA655C1CBF0B46024650EA9F
:1004D000013406BF52EA033591EA030F41F40021CB
:1004E00030BD00BF90F0000F04BF0021704730B551
:1004F0004FF4806404F132044FF000054FF0000126
:1005000050E700BF90F0000F04BF0021704730B5E6
:100510004FF4806404F1320410F0004548BF4042BB
:100520004FF000013EE700BF42004FEAE2014FEA10
:1005300031014FEA02701FBF12F07F4393F07F4FEB
:1005400081F06051704732F07F4208BF704793F0EE
:100550007F4F04BF41F40021704730B54FF4607401
:1005600001F0004521F000411CE700BF50EA010204
:1005700008BF704730B54FF000050AE050EA0102AD
:1005800008BF704730B511F0004502D5404261EB1D
:1005900041014FF4806404F132045FEA915C3FF45E
:1005A000D8AE4FF003025FEADC0C18BF03325FEAFB
:1005B000DC0C18BF033202EBDC02C2F1200300FAAC
:1005C00003FC20FA02F001FA03FE40EA0E0021FAD1
:1005D00002F11444BDE600BF70B54FF0FF0C4CF4BF
:1005E000E06C1CEA11541DBF1CEA135594EA0C0F71
:1005F00095EA0C0F00F0DEF82C4481EA030621EAAC
:100600004C5123EA4C5350EA013518BF52EA0335E6
:1006100041F4801143F4801338D0A0FB02CE4FF098
:100620000005E1FB02E506F00042E0FB03E54FF0C8
:100630000006E1FB03569CF0000F18BF4EF0010EC0
:10064000A4F1FF04B6F5007F64F5407404D25FEABC
:100650004E0E6D4146EB060642EAC62141EA55516F
:100660004FEAC52040EA5E504FEACE2EB4F1FD0CB1
:1006700088BFBCF5E06F1ED8BEF1004F08BF5FEA2F
:10068000500E50F1000041EB045170BD06F00046E1
:1006900046EA010140EA020081EA0301B4EB5C048E
:1006A000C2BFD4EB0C0541EA045170BD41F4801186
:1006B0004FF0000E013C00F3AB8014F1360FDEBFAB
:1006C000002001F0004170BDC4F10004203C35DA87
:1006D0000C341BDC04F11404C4F1200500FA05F30A
:1006E00020FA04F001FA05F240EA020001F00042AB
:1006F00021F0004110EBD37021FA04F642EB060121
:100700005EEA430E08BF20EAD37070BDC4F10C044A
:10071000C4F1200500FA04F320FA05F001FA04F20E
:1007200040EA020001F0004110EBD37041F10001FA
:100730005EEA430E08BF20EAD37070BDC4F1200505
:1007400000FA05F24EEA020E20FA04F301FA05F26D
:1007500043EA020321FA04F001F0004121FA04F215
:1007600020EA020000EBD3705EEA430E08BF20EAE5
:10077000D37070BD94F0000F0FD101F0004640001F
:1007800041EB010111F4801F08BF013CF7D041EAA1
:10079000060195F0000F18BF704703F000465200A5
:1007A00043EB030313F4801F08BF013DF7D043EA76
:1007B0000603704794EA0C0F0CEA135518BF95EA2C
:1007C0000C0F0CD050EA410618BF52EA4306D1D1B3
:1007D00081EA030101F000414FF0000070BD50EAD2
:1007E000410606BF1046194652EA430619D094EA5C
:1007F0000C0F02D150EA013613D195EA0C0F05D146
:1008000052EA03361CBF104619460AD181EA030199
:1008100001F0004141F0FE4141F470014FF0000051
:1008200070BD41F0FE4141F4780170BD70B54FF0EC
:10083000FF0C4CF4E06C1CEA11541DBF1CEA13556C
:1008400094EA0C0F95EA0C0F00F0A7F8A4EB05044E
:1008500081EA030E52EA03354FEA013100F0888045
:100860004FEA03334FF0805545EA131343EA12630E
:100870004FEA022245EA111545EA10654FEA0026C3
:100880000EF000419D4208BF964244F1FD0404F57C
:10089000407402D25B084FEA3202B61A65EB0305D8
:1008A0005B084FEA32024FF480104FF4002CB6EB95
:1008B000020E75EB030E22BFB61A754640EA0C0015
:1008C0005B084FEA3202B6EB020E75EB030E22BF55
:1008D000B61A754640EA5C005B084FEA3202B6EB96
:1008E000020E75EB030E22BFB61A754640EA9C0055
:1008F0005B084FEA3202B6EB020E75EB030E22BF25
:10090000B61A754640EADC0055EA060E18D04FEAE2
:10091000051545EA16754FEA06164FEAC30343EA82
:1009200052734FEAC2025FEA1C1CC0D111F4801F4F
:100930000BD141EA00014FF000004FF0004CB6E748
:1009400011F4801F04BF01430020B4F1FD0C88BFE7
:10095000BCF5E06F3FF6AFAEB5EB030C04BFB6EBF2
:10096000020C5FEA500C50F1000041EB045170BDE5
:100970000EF0004E4EEA113114EB5C04C2BFD4EB12
:100980000C0541EA045170BD41F480114FF0000E96
:10099000013C90E645EA060E8DE60CEA135594EA12
:1009A0000C0F08BF95EA0C0F3FF43BAF94EA0C0F15
:1009B0000AD150EA01347FF434AF95EA0C0F7FF48A
:1009C00025AF104619462CE795EA0C0F06D152EADE
:1009D00003353FF4FDAE1046194622E750EA4106C2
:1009E00018BF52EA43067FF4C5AE50EA41047FF4D3
:1009F0000DAF52EA43057FF4EBAE12E74FF0FF3C38
:100A000006E000BF4FF0010C02E000BF4FF0010C08
:100A10004DF804CD4FEA410C7FEA6C5C4FEA430C81
:100A200018BF7FEA6C5C1BD001B050EA410C0CBFD0
:100A300052EA430C91EA030F02BF90EA020F002032
:100A4000704710F1000F91EA030F58BF994208BF99
:100A500090422CBFD8176FEAE37040F00100704756
:100A60004FEA410C7FEA6C5C02D150EA013C07D1AD
:100A70004FEA430C7FEA6C5CD6D152EA033CD3D0F8
:100A80005DF8040B704700BF8446104662468C46F2
:100A90001946634600E000BF01B5FFF7B7FF002825
:100AA00048BF10F1000F01BD4DF808EDFFF7F4FF4E
:100AB0000CBF012000205DF808FB00BF4DF808EDD9
:100AC000FFF7EAFF34BF012000205DF808FB00BFFC
:100AD0004DF808EDFFF7E0FF94BF012000205DF81E
:100AE00008FB00BF4DF808EDFFF7CEFF94BF0120D3
:100AF00000205DF808FB00BF4DF808EDFFF7C4FFCC
:100B000034BF012000205DF808FB00BF4FEA41021E
:100B100012F5001215D211D56FF47873B3EB62524F
:100B200012D94FEAC12343F0004343EA505311F076
:100B3000004F23FA02F018BF404270474FF0000008
:100B4000704750EA013005D111F0004008BF6FF046
:100B5000004070474FF00000704700BF4A0011D2BC
:100B600012F5001211D20DD56FF47873B3EB625207
:100B70000ED44FEAC12343F0004343EA505323FA13
:100B800002F070474FF00000704750EA013002D188
:100B90004FF0FF3070474FF0000070474FEA4102BE
:100BA000B2F1E04324BFB3F5001CDCF1FE5C0DD9CB
:100BB00001F0004C4FEAC0024CEA5070B2F1004F15
:100BC00040EB830008BF20F00100704711F0804F18
:100BD00021D113F13872BCBF01F00040704741F4DD
:100BE00080114FEA5252C2F11802C2F1200C10FAE1
:100BF0000CF320FA02F018BF40F001004FEAC123C5
:100C00004FEAD32303FA0CFC40EA0C0023FA02F368
:100C10004FEA4303CCE77FEA625307D150EA01333E
:100C20001EBF4FF0FE4040F44000704701F000400E
:100C300040F0FE4040F40000704700BF53B94AB98D
:100C4000002908BF00281CBF4FF0FF314FF0FF30D4
:100C500000F00CB8ADF1080C6DE904CE20F022FCD8
:100C6000DDF804E0DDE9022304B07047704700BFFF
:100C700010B5054C237833B9044B13B10448AFF3D6
:100C800000800123237010BD080600200000000032
:100C90006817020808B5034B1BB103490348AFF3BB
:100CA000008008BD000000000C0600206817020844
:100CB00008B50368984708BD10B50446836813B1AA
:100CC000032201469847204610BD000038B504466F
:100CD0000E4B03600E4B03600E4B036042605225C7
:100CE0000572C1667030C4F8D0014FF4B0720021B3
:100CF0001FF062F884F8CC51012384F8CD314FF411
:100D0000C873A4F8CE31204638BD00BF14290208AC
:100D100024290208682A020810B582B00446D0F8D7
:100D2000D01110F06BFE08B102B010BD0DF101033F
:100D30000DF10202D4F8D011204610F09DFD0028DC
:100D4000F2D10DF1030301AAD4F8D011204610F01E
:100D50008FFDE9E770B50446002646600160B020CB
:100D600019F06AFD0546216818F036FF6560A66037
:100D7000204670BD38B50446456835B1284618F0A0
:100D8000A5FDB021284619F05FFD204638BD10B5FD
:100D9000044601220021406818F014FE606818F033
:100DA000E5FC10BD10B504460021417080F8261006
:100DB0004FF40043802211F057FF204610BD000081
:100DC00008B5074B1B6813F0010F01D0054808BD9B
:100DD0000448FFF7E7FF024B01221A60F6E700BF65
:100DE0004415002048150020F0B583B004460F4696
:100DF000012807D024B94FF6FF739F4200F0798293
:100E000003B0F0BD4FF6FF739942F3D1C44D4222B7
:100E10002946C448FFF75AFF3E222946C248FFF739
:100E200055FF40222946C148FFF750FF3C22294682
:100E3000BF48FFF74BFF4B2600963346C622C7211B
:100E4000BC481BF0D9FA0096334624222321BA4825
:100E50001BF0D2FA4FF4807300930122B749B848CF
:100E600011F044F9B749B848FFF774FFFFF7A8FF3E
:100E7000B64B18602946B6480DF0ACFDB54DB649E5
:100E800028461BF03AFFB54905F10C001BF035FF71
:100E9000B34905F118001BF030FFB24905F12400F9
:100EA0001BF02BFFB04905F130001BF026FFAF49C6
:100EB00005F13C001BF021FFAD4905F148001BF096
:100EC0001CFFAC4905F154001BF017FFAA4905F1BE
:100ED00060001BF012FFA94905F16C001BF00DFF2B
:100EE000A74905F178001BF008FFA64905F1840029
:100EF0001BF003FFA44905F190001BF0FEFEA3497F
:100F000005F19C001BF0F9FEA14905F1A8001BF0BA
:100F1000F4FEA04905F1B4001BF0EFFE9E4905F177
:100F2000C0001BF0EAFE9D4905F1CC001BF0E5FE78
:100F30009B4905F1D8001BF0E0FE9A4905F1E40059
:100F40001BF0DBFE984905F1F0001BF0D6FE974937
:100F500005F1FC001BF0D1FE954905F584701BF0EE
:100F6000CCFE944905F58A701BF0C7FE924905F541
:100F700090701BF0C2FE914905F596701BF0BDFE06
:100F80008F4905F59C701BF0B8FE8E4905F5A270DF
:100F90001BF0B3FE8C4D8D4928461BF0AEFE8C49EC
:100FA00005F10C001BF0A9FE8A4905F118001BF0A1
:100FB000A4FE894905F124001BF09FFE874905F135
:100FC00030001BF09AFE864905F13C001BF095FEAF
:100FD000844905F148001BF090FE834905F1540057
:100FE0001BF08BFE814905F160001BF086FE8049F5
:100FF00005F16C001BF081FE7E4905F178001BF0C5
:101000007CFE7D4905F184001BF077FE7B4905F1EC
:1010100090001BF072FE7A4905F19C001BF06DFEFA
:10102000784905F1A8001BF068FE774905F1B40086
:101030001BF063FE754905F1C0001BF05EFE7449AC
:1010400005F1CC001BF059FE724905F1D8001BF0E8
:1010500054FE714905F1E4001BF04FFE6F4905F1A4
:10106000F0001BF04AFE6E4905F1FC001BF045FE46
:101070006C4905F584701BF040FE6B4905F58A70DC
:101080001BF03BFE694905F590701BF036FE684980
:1010900005F596701BF031FE664D674928461BF03A
:1010A0002CFE664905F10C001BF027FE644905F192
:1010B00018001BF022FE634905F124001BF01DFE01
:1010C000614905F130001BF018FE604905F13C0054
:1010D0001BF013FE5E4905F148001BF00EFE5D4952
:1010E00005F154001BF009FE5B4905F160001BF09F
:1010F00004FE5A4905F16C001BF0FFFD584905F14B
:1011000078001BF0FAFD574905F184001BF0F5FD4E
:10111000554905F190001BF0F0FD02269C35ABE02F
:1011200070150020701300209C110020C80F0020B3
:10113000F40D0020DC0C0020C40B002000640040F3
:10114000940B002000000140800B00207C0B00204D
:10115000080B0020B8090020AC170208B8170208D5
:10116000C8170208D4170208DC170208E81702089B
:10117000F4170208041802081418020824180208B8
:10118000341802084818020854180208681802089F
:10119000741802088C180208A4180208B41802086F
:1011A000C8180208D8180208E8180208FC18020833
:1011B00008190208141902082C1902083819020823
:1011C000441902085019020880080020601902081A
:1011D00064190208681902086C19020870190208DB
:1011E00074190208781902087C190208801902088B
:1011F00084190208881902088C190208901902083B
:1012000094190208981902089C190208A0190208EA
:10121000A4190208A8190208AC190208B01902089A
:10122000B4190208B8190208BC190208C01902084A
:10123000C4190208C0070020C8190208D4190208FE
:10124000E4190208F4190208081A02081C1A020814
:101250002C1A02083C1A0208501A0208641A0208E2
:10126000741A0208801A02088C1A02083B492846A0
:101270001BF043FD013E0C35002EF7DA384D39499D
:1012800028461BF03AFD384905F10C001BF035FDEE
:10129000364905F118001BF030FD354905F12400F1
:1012A0001BF02BFD334905F130001BF026FD0A260B
:1012B0003C3505E0294928461BF01FFD013E0C3551
:1012C000002EF7DA25492C481BF017FD1DF09EFE75
:1012D0002A4B18602A4B18602A4B18602A4B18605A
:1012E0002A4B18602A4B18601DF090FE294B18609D
:1012F00080E521481BF0B9FC274C194B9C4204D0D7
:101300000C3C20461BF0B1FCF7E7244C244B9C42DC
:1013100004D00C3C20461BF0A8FCF7E7214C224BE4
:101320009C4204D00C3C20461BF09FFCF7E71F4C6E
:1013300003E00C3C20461BF098FC1D4B9C42F8D16E
:101340001C48FFF717FD1C4B1C4A13601C4A136016
:101350001C4A13601C4A136052E500BFBC290208F6
:1013600000070020941A0208A01A0208B01A020806
:10137000C81A0208DC1A0208DC060020CC0600208D
:10138000C8060020C4060020C0060020BC060020BD
:10139000B80600202C060020C0070020800800208E
:1013A000C0070020B809002080080020080B00209A
:1013B000B8090020800B0020682A0208F40D0020E4
:1013C000C80F00209C11002070130020034B012245
:1013D0001A70034B00221A70704700BF7706002076
:1013E000760600200123024A1370024A13707047E8
:1013F000770600207606002000B583B00023184A47
:1014000013800193174A642111600421D172032BC8
:101410000BD8C3F1030208326A4412F8041C114AC3
:101420001A4411730133DBB2F1E700220D490E4873
:1014300011F04CF80D490C4811F0BBF80028F9D117
:1014400000230B4A13700B4A022111700A4A1370D1
:101450000A4B1A680A4B1A6003B05DF804FB00BF20
:10146000B20600204C000020940B00203400002025
:1014700077060020760600206A0600204806002035
:101480004406002010B582B0124C214612481BF0D1
:1014900051FA214611481BF04DFA00230193104ADE
:1014A000652111600421D1720AE0C3F10302083200
:1014B0006A4412F8041C0A4A1A4411730133DBB25D
:1014C000032BF2D900220649064810F0FFFF02B0B4
:1014D00010BD00BFEC1A0208A83900209038002087
:1014E0004C000020940B0020002301E00133DBB20C
:1014F000044AD25C12B18242F8D101E0014AD054D0
:10150000704700BFEC06002010B5574B1B78002B2E
:1015100055D00A201DF050FD544C20700C201DF0B9
:101520004BFD534B18701B201DF046FD514B18709E
:1015300007201DF041FD504B187005201DF06AFD7D
:101540000A201DF039FD2378984215D10C201DF09A
:1015500033FD474B1B78984216D11B201DF02CFD04
:10156000444B1B78984218D107201DF025FD424BB3
:101570001B7898421AD110BD05201DF04BFD0A20A2
:101580001DF01AFD2070E1E705201DF043FD0C2041
:101590001DF012FD364B1870DFE705201DF03AFDF7
:1015A0001B201DF009FD334B1870DDE705201DF0F1
:1015B00031FD07201DF000FD2F4B1870DBE71B20CD
:1015C0001DF0FAFC294C207007201DF0F5FC284B7B
:1015D00018700A201DF0F0FC264B18700C201DF02E
:1015E000EBFC254B187005201DF014FD1B201DF091
:1015F000E3FC237898421DD107201DF0DDFC1C4B35
:101600001B7898421ED10A201DF0D6FC194B1B787E
:10161000984220D10C201DF0CFFC174B1B7898422C
:10162000A9D005201DF0F6FC0C201DF0C5FC124BC6
:101630001870A0E705201DF0EDFC1B201DF0BCFC80
:101640002070D9E705201DF0E5FC07201DF0B4FC53
:10165000074B1870D7E705201DF0DCFC0A201DF0B1
:10166000ABFC044B1870D5E7740600207C06002004
:101670007B0600207A0600207906002038B5A648AF
:101680000DF010FAA54B186004E0A3480DF00AFA1B
:10169000A24B1860A14B1B68B3F5805FF5D8A04A38
:1016A0001078B0FA80F252099E4909788A4200F017
:1016B000CC809D4A1068C41A621EB2F5FA6F54D2EB
:1016C000024600283ADB4FEA622EC2F3472C1A4644
:1016D000002B36DB5512C2F34722944534D05FFA13
:1016E0008EFCC3EB4C2E914CEDB2655DA0EB4C2211
:1016F00014F80C0000FB02F205FB0E22002A31DB7D
:101700005212002A08DD002940F0958088480168BF
:10171000891A0160844A1360854B1B68002BC0F254
:101720006B81844B1A88844B1B689B1A804909681B
:101730008B4202DA0A44804B1A6038BD00F2FF1275
:10174000C1E703F2FF12C5E75FFA8EFC774A12F891
:101750000C2004FB02F2002A01DB5212D1E702F254
:10176000FF12FAE702F2FF12CAE71D1AB5F5FA6F87
:101770000FDD6E4C2578C3F58052E47904FB02F24C
:1017800005FB0022002A01DB5212BAE702F2FF1227
:10179000FAE76A1EB2F5FA6F39D2024600281FDB5B
:1017A0004FEA622EC2F3472C1C46002B1BDB621251
:1017B000C4F34724A44519D0D2B2A3EB42255B4C15
:1017C00014F802C0C0EB42225FFA8EFE14F80E003D
:1017D00000FB02F20CFB0522002A15DB521290E7F7
:1017E00000F2FF12DCE703F2FF14E0E75FFA8EFE7F
:1017F0004E4A12F80E2005FB02F2002A01DB5212BB
:101800007FE702F2FF12FAE702F2FF12E6E7B4F511
:10181000FA6F0FDD454C2278C0F58050E47904FB67
:1018200000F002FB0302002A01DB521269E702F218
:10183000FF12FAE70022002A7FF76EAF3C480168EA
:1018400011440160384A136066E7012814BF002084
:10185000012081423FF460AF334A1268A2EB030CCF
:101860000CF1FF30B0F5FA6F42D21046002A2ADBA5
:101870004512C0F347241846002B27DB4FEA602EA1
:10188000C0F34720844224D0E8B2C3EB40252B4C60
:101890005FFA8EFE14F80EC0A2EB4022205C00FB23
:1018A00002F20CFB0522002A1FDB5212002A40F331
:1018B0009980002940F096801D480168114401601C
:1018C000194A136028E702F2FF10D1E703F2FF1074
:1018D000D4E7E8B2194A125C02FB0CF2002A01DBE1
:1018E0005212E3E702F2FF12FAE702F2FF12DCE71C
:1018F000981AB0F5FA6F23DD104C2578C3F58050A7
:10190000E47904FB00F005FB0202002A01DB52121D
:10191000CCE702F2FF12FAE7080B00205C06002079
:101920007606002074060020580600202C000020B7
:1019300048060020080000204C060020240000205B
:10194000441EB4F5FA6F39D21446002A1FDB4FEA61
:10195000642EC4F3472C1D46002B1BDB6C12C5F311
:101960004725AC4519D0E0B2A3EB4025294C14F82B
:1019700000C0C2EB40225FFA8EFE14F80E0000FB9E
:1019800002F20CFB0522002A15DB52128EE702F24E
:10199000FF14DCE703F2FF15E0E75FFA8EFE1D4A55
:1019A00012F80E2000FB02F2002A01DB52127DE742
:1019B00002F2FF12FAE702F2FF12E6E7BCF5FA6F55
:1019C0000FDD14480478C2F58052C07900FB02F2A2
:1019D00004FB0322002A01DB521267E702F2FF1226
:1019E000FAE70022002A3FF497AE0B480168891AF3
:1019F00001600A4A13608FE6094A126812B1D21ACE
:101A000007490A6007490A68D21A0A60024B002295
:101A10001A6086E6240000204806002058060020B0
:101A2000400600204C060020154B1B78BBB1144B20
:101A300000221A70134B144A1A60144B144A1A608D
:101A4000144B154A1A60154B154A1A60154A164B65
:101A50001B6811685B1AA3F5487313607047084B45
:101A600001221A70074B0A4A1A60084B064A1A608C
:101A7000084B0B4A1A60094B074A1A60704700BFAF
:101A80007406002070000020701300206C000020FD
:101A90009C11002068000020C80F00206400002076
:101AA000F40D0020480600204C060020F0B593B04D
:101AB0000446494D494928461BF085F9484F2946B7
:101AC00038461AF02DFF474E294630461AF028FFB7
:101AD000454D294668461BF010F91022217A03A8CB
:101AE0001BF082F903A968461BF042FA014638460A
:101AF0001AF016FF03A81BF0B8F868461BF0B5F8FB
:101B0000294606A81BF0F9F81022217A09A81BF033
:101B10006BF909A906A81BF02BFA014630461AF00A
:101B2000FFFE09A81BF0A1F806A81BF09EF8236889
:101B30001B6A20469847217A204610F0ABF910F036
:101B4000FF0522D029490CA81BF0D7F80A22294604
:101B50000FA81BF049F90FA90CA81BF009FA0146C0
:101B60001D4C20461BF00EF90FA81BF07EF80CA8A8
:101B70001BF07BF8214638461AF0D2FE214630464B
:101B80001AF0CEFE284613B0F0BD134E1849304669
:101B90001BF019F9314612481AF0C2FE31461148BD
:101BA0001AF0BEFE2046FFF7B7F80122D4F8D01194
:101BB00020460DF081F80F4B1B684FF47A7203FB3F
:101BC00002F2D4F8D01120460EF0D6FCD4F8D01191
:101BD00020460EF099F8D5E7DC060020FC1A020832
:101BE000A839002090380020201B0208341B02086E
:101BF000541B02080000002038B504460D464B680F
:101C000043600B7A03726322093109301EF077F9C1
:101C1000EB6EE3664FF4B07205F1700104F17000F1
:101C20001EF06DF9D5F8D031C4F8D031204638BD5A
:101C300010B50024072C06DC600210F057FF0128C5
:101C400003D00134F6E74FF0FF34204610BD08B54D
:101C50000021400210F07EFF08BD08B501214002BE
:101C600010F078FF08BDF8B50646FFF7E1FF441C09
:101C7000634204F0030403F0030358BF5C426700AF
:101C8000FFF7E5FFA402651C1DF0C0F9002404E085
:101C9000315D601910F018FF01343F2CF8DD10F0B1
:101CA0002DFF3846FFF7D9FF012113201DF05AF907
:101CB0004FF47A701DF0AEF9002113201DF052F997
:101CC000F8BD00002DE9F0418CB08046FFF7B0FF71
:101CD000B0F1FF3F52D04002471C1DF097F900249D
:101CE00046E01DF093F90646E01910F0FFFE08F8F3
:101CF0000400234968461BF000F80A22214603A885
:101D00001BF084F803A968461BF032F91D491BF04B
:101D10003CF905461DF07AF90A22811B06A81BF042
:101D200099F806A928461BF023F917491BF02DF94D
:101D300005461DF06BF901460A2209A81BF08AF836
:101D400009A928461BF014F910491BF01EF9014699
:101D50000F481AF0E5FD09A81AF087FF06A81AF047
:101D600084FF03A81AF081FF68461AF07EFF013451
:101D70003F2CB6D901200CB0BDE8F0810020FAE775
:101D80006C1B0208D82502088C1B02089C1B020849
:101D9000A839002010B51346022901DC0C31531E6E
:101DA000214A82FB03424FEAE37ECEEB621C6424AD
:101DB00004FB1C3CCEEB621E013101EB410201EB46
:101DC00082011A4A82FB0142C917C1EB6202024436
:101DD00062446146BCF1000F22DB02EBA102124912
:101DE00081FB0301DB17C3EBE1131A44A2EB4E02A4
:101DF0000F4981FB02301044D317C3EBA003C3EBA0
:101E0000C303D31A053381FB03211944D817C0EB50
:101E1000A100C0EBC000181AC0B20130C0B210BDA2
:101E20000CF10301D9E700BF1F85EB5167666666B9
:101E30009324499210F0030F16D10E4A82FB003210
:101E4000C317C3EB6213642202FB130373B9094A7D
:101E500082FB0032C317C3EBE2134FF4C87202FBDC
:101E600013032BB1002070470020704701207047FA
:101E7000012070471F85EB51172830D810B51C463C
:101E800000292EDB3B292EDC002A2EDB3B2A2EDC10
:101E9000029B013B0B2B2CD8002C2CDD1F2C2CDCA7
:101EA000029B022B10D0029B0B2B94BF0020012021
:101EB000C0B94FF42563029AD34013F001031ED03A
:101EC0001E2C0FDC18460DE00398FFF7B3FF20B17E
:101ED0001D23A342E7DA002004E01C23F9E70020D9
:101EE0007047002010BD0020FCE70020FAE700202A
:101EF000F8E70020F6E70020F4E70020F2E70120F1
:101F0000F0E700000023036043608360C3600B6858
:101F100023B10360024BC360024B8360704700BF74
:101F2000B10C00089F1F000830B587B0044601912E
:101F300080ED030A9FED117AC7EE007AFCEEE77A96
:101F4000C0ED047A01220021406817F03BFD012218
:101F50002169606817F008FD656801A902A8FFF70C
:101F6000D1FF02A9284617F094FE02A8FEF7A4FEAE
:101F7000606817F0FBFB012007B030BD00247449F6
:101F8000022A05D8DFE802F00206080000230360F9
:101F9000002070470160FBE70B680360F8E7012A47
:101FA00002D101600020704708B5FFF7E9FF00206B
:101FB00008BD08B54FF6FF710120FEF715FF08BDFB
:101FC00008B54FF6FF710020FEF70EFF08BD0000B8
:101FD00010B58CB0A44903A81AF08FFE1DF016F8B6
:101FE000A24B1860A2481AF036F930B9002403A8B1
:101FF0001AF03BFE20460CB010BD9D481AF03CFC88
:10200000C1B203A81AF082FF9A4B59689A4B1A681A
:102010009A4BA3FB0232920C40F2D66303FB02F20E
:10202000944B5B685B1A9A42FADC91481AF024FCE4
:10203000C1B203A81AF06AFF0BE08E4B5B685B1A13
:102040009A42FADC8A481AF017FCC1B203A81AF0C7
:102050005DFF8B4B197801EB41018A4B03EB81014A
:1020600003A81AF0D4FFE8B981481AF0F4F8C8B10F
:102070000223012203A906A81AF0F2FF06A903A869
:102080001AF099FE06A81AF0F0FD7A4B59687A4BBF
:102090001A687A4BA3FB0232920C40F2D66303FB20
:1020A00002F2CAE70223002203A909A81AF0D8FF06
:1020B000734B197801EB4101724B03EB810109A8C5
:1020C0001AF0A5FF044609A81AF0CFFD002C8ED007
:1020D0001CF09CFF0446059B072B22D81CF096FFA2
:1020E000001B31281DD8634B5968634B1A68634B3A
:1020F000A3FB0232920C40F2D66303FB02F25D4B6B
:102100005B685B1A9A42FADC59481AF0A4F8002876
:10211000E1D057481AF0B0FBC1B203A81AF0F6FE9E
:10212000D9E7059B082B01D0002460E70823022291
:1021300003A968461AF094FF534B1B787BB11CF03F
:1021400065FF524B1860524968461AF06EFFB0B1F5
:1021500000F0CEFD68461AF088FD002447E7012113
:1021600013201CF0FFFE4FF4FA701CF053FF002107
:1021700013201CF0F7FE444B01221A70DFE745499B
:1021800068461AF052FF00283FD1434968461AF0CA
:102190004CFF002840D1414968461AF046FF00280C
:1021A0003ED13F4968461AF040FF00283CD13D49E6
:1021B00068461AF03AFF00283AD13B4968461AF0BF
:1021C00034FF002838D1394968461AF02EFFB8BBD1
:1021D000374968461AF029FFB0BB364968461AF0FD
:1021E00024FFA8BB344968461AF01FFFB8BB334927
:1021F00068461AF01AFF0028ACD000F079FD1CF0F8
:1022000005FF2F4B1860642402E000F071FD0124EB
:1022100068461AF02AFDEAE600F06AFD0224F7E7B4
:1022200000F066FD0324F3E700F062FD0424EFE70D
:1022300000F05EFD0624EBE700F05AFD0724E7E717
:1022400000F056FD1524E3E700F052FD1624DFE709
:102250001C4C0523237000F04BFD2478D8E700F0D8
:1022600047FD3724D4E700BFBC290208C40600207C
:10227000DC0C0020001000E09803002083DE1B43EC
:10228000E806002080080020D9060020C0060020B3
:10229000A01B0208A81B0208B01B0208B81B0208FA
:1022A000C01B0208C81B0208D01B0208D81B02086A
:1022B000E01B0208E81B0208F01B0208F81B0208DA
:1022C000D0060020FC0600202DE9F04782B005462C
:1022D000AE4B1B78022B00F03382AD49AD4810F0B5
:1022E00068F904460028F8D1AB4B64221A60042236
:1022F000DA72092D08DDA94B1B88EA1A092A01DDCB
:1023000003F10A05642D43DC642D00F2F981A34B2F
:102310001B88AB4280F2D580EE1A06EBD6764FEAE8
:102320006608C6F347060027B74280F08C8001F0AC
:10233000A1FB9B4BB3F800C0984B1A88994B1B88A4
:1023400003FB02F1984880FB01E0C917C1EB601163
:102350006144AA1AB94607FB02F202FB03F35FFAD3
:1023600088F2642000FB02F293FBF2F30B4401932A
:10237000864A11788D4A1278914201D05B420193CE
:10238000019B4FF47A7202FB03F3019300230CE0EC
:102390006425BCE7C3F1030208326A4412F8041C46
:1023A0007D4A1A4411730133DBB2032BF2D90022A8
:1023B0007949784810F08AF8FFF760F91CF026FE9A
:1023C0007B4B1860FB1EDBB2252B02D94FF0230993
:1023D00016E0784B1B7883B3C9EB0919764B83FB66
:1023E00009234FEAE979A9EBA3095FFA89F909F111
:1023F00050095FFA89F903E0012300E00123B3B932
:102400001CF004FE6A4B1B68C01A484518D201F044
:1024100031FB6A4B1B78192B03D001F001FF052813
:10242000EAD0674B1B78002BE8D12346E7E7634BE4
:1024300005221A7001F082FC82E14FF02309DFE7E8
:102440000137FFB270E7F5B1554B1A88554B1B8821
:1024500005FB03F3544981FB0301DB17C3EB611355
:1024600013440193494B1A78504B1B789A4202D07F
:10247000019B5B420193019B4FF47A7202FB03F3D1
:10248000019300230DE000230193EBE7C3F1030266
:1024900008326A4412F8041C3F4A1A44117301338B
:1024A000DBB2042BF2D900223B493A4810F00EF877
:1024B0003749384810F07DF80028F9D1374B1D8096
:1024C0003CE1AB4240F3E3805C1B04EBD4744FEA85
:1024D0006408C4F3470400271E26A74280F09980B1
:1024E00001F0C8FA2E4BB3F800C02C4B1A882D4BC4
:1024F0001B8803FB02F12C4880FB01E0C917C1EBEC
:1025000060116144521BB94607FB02F202FB03F360
:102510005FFA88FA642202FB0AF293FBF2F3CA1A0A
:1025200001921A4A1078214A1278904201D05B1A1F
:102530000193019B4FF47A7202FB03F30193002392
:102540000AE0C3F1030208326A4412F8041C124A7A
:102550001A4411730133DBB2032BF2D900220E4966
:102560000C480FF0B3FFFFF789F81CF04FFD104B3C
:102570001860104B1B788BB3C9EB09135B0093FBFE
:10258000FAF3DBB21433DEB228E000BF7606002097
:1025900034000020940B00204C000020B2060020E4
:1025A0000C0000200E0000201F85EB517406002057
:1025B000CC0600207506002067666666FC060020D3
:1025C000EC060020604B1B78BBB9604B1B78192BC5
:1025D00019D05F4B1B78022B00F0B2801CF016FD67
:1025E0005C4B1B68C01AB04210D2584B1B78192B99
:1025F000E8D001F015FE0528E4D1544B05221A70ED
:1026000001F09CFB9CE0FFF7E3FCE2E70137FFB23F
:1026100063E7F5B1504B1A88504B1B8805FB03F359
:102620004F4981FB0301DB17C3EB61131344019393
:10263000474B1A784B4B1B789A4202D0019B5B4266
:102640000193019B4FF47A7202FB03F30193002381
:102650000DE000230193EBE7C3F1030208326A4463
:1026600012F8041C404A1A4411730133DBB2032BE5
:10267000F2D900223C493D480FF028FF3C493B4835
:102680000FF097FF0028F9D13A4B1D8056E0AB427E
:1026900054D1314B1A88314B1B8805FB03F3304969
:1026A00081FB0301DB17C3EB611313440193284A39
:1026B00011782C4A1278914201D05B420193019B20
:1026C0004FF47A7202FB03F3019300230AE0C3F193
:1026D000030208326A4412F8041C234A1A44117394
:1026E0000133DBB2032BF2D900221F491F480FF040
:1026F000EDFE1F491D480FF05CFF0028F9D11DE0D9
:10270000002301930AE0C3F1030208326A4412F87D
:10271000041C154A1A4411730133DBB2032BF2D99E
:102720000022114911480FF0D1FE11490F480FF056
:1027300040FF0028F9D10F4B00221A80FEF79EFFC0
:1027400002B0BDE8F08700BFEC060020FC060020C8
:1027500076060020CC0600200C0000200E00002091
:102760001F85EB51740600204C000020940B0020C4
:1027700034000020B206002070B5ADF5ED6DA8491B
:102780000DF5EA601AF0B9FAA64D0A2229780DF281
:102790005C701AF029FB0DF25C710DF5EA601AF01D
:1027A000E7FB0146A0481AF0BBF80DF25C701AF086
:1027B0005CFA0DF5EA601AF058FA9C4C4222214668
:1027C0000DF27C50FEF782FA3E222146EAA8FEF77F
:1027D0007DFA4022214675A8FEF778FA3C22214670
:1027E0006846FEF773FA2C78032C4CD8DFE814F017
:1027F00021007800D40010018C4E30460BF01EFBF7
:10280000002130460BF058FD322D27DD884E8949D6
:1028100030461AF0D8FA314683481AF081F831462A
:1028200085481AF07DF80A201CF0F4FB12F084F8B9
:1028300014E0002501240CB3002142201CF092FB7F
:102840000A201CF0E7FB60238DF884350DF27C50E4
:10285000FFF72CF904460135032DCDDC774B1868C2
:1028600040001CF0D7FB032DE5DC754B1B78002BDB
:10287000E1D0744B1888FFF727FDDCE70DF27C519F
:102880007148FFF7B9F9714C606817F0BEF96068DC
:1028900016F04AFE6E4B00937593EA93CDF87C35A3
:1028A0000DF5ED6D70BD614E30460BF0C7FA00219D
:1028B00030460BF001FD142D25DD5D4E5D4930469F
:1028C0001AF081FA314658481AF02AF831465A4827
:1028D0001AF026F80A201CF09DFB12F02DF812E0E9
:1028E000002504B300213E201CF03CFB0A201CF014
:1028F00091FB62238DF8B033EAA8FFF7D7F80446BE
:102900000135032DCFDC4D4B186840001CF082FBD5
:10291000032DE6DC4A4B1B78002BE2D0494B18888C
:10292000FFF7D2FCDDE7EAA94A48FFF765F9AAE715
:10293000424B18680A301CF06DFB84B30021402024
:102940001CF010FB0A201CF065FB64238DF8DC31C1
:1029500075A8FFF7ABF804460135032DE8DD334ECB
:1029600030460BF06BFA002130460BF0A5FC142D1D
:10297000DEDD2F4E2F4930461AF025FA31462A481F
:1029800019F0CEFF31462C4819F0CAFF0A201CF07E
:1029900041FB11F0D1FFCBE700250124CDE775A95C
:1029A0002D48FFF729F96EE7244B18680A301CF010
:1029B00031FB84B300213C201CF0D4FA0A201CF027
:1029C00029FB66238DF808306846FFF76FF8044648
:1029D0000135032DE8DD154E30460BF02FFA0021AE
:1029E00030460BF069FC142DDEDD114E11493046E6
:1029F0001AF0E9F931460C4819F092FF31460E48B9
:102A000019F08EFF0A201CF005FB11F095FFCBE7B3
:102A100000250124CDE769461048FFF7EDF832E7BD
:102A2000001C0208DA060020A839002070150020DA
:102A3000DC060020241C0208903800200000002042
:102A400077060020B206002070130020800B0020C3
:102A5000682A02089C110020C80F0020F40D0020F5
:102A6000F0B589B00546037A602B0FD0622B7CD07D
:102A7000642B00F086807F4B03221A707E4B1B78FC
:102A8000002B40F08A807D4B9F8808E0794B002224
:102A90001A70794B1B78002B64D0784B1F88784CC8
:102AA0002046FEF774F9774B1B684FF4FA6202FB7D
:102AB00003F300EE103AB8EE400A7349DFED737A83
:102AC00087EE800A2046FFF72FFA002868D001AA77
:102AD000D5F8D01128460DF027FBBDF80C40049E18
:102AE000C6F38F160022D5F8D01128460CF031FE1F
:102AF0009DF81C30032B61D0614D686817F085F894
:102B0000686816F011FD9DF81C3043B93C2E06D9BB
:102B1000B4F5487F03D940F2DC52944261D9012BCD
:102B200053D03BB9962E05D9B4F5C87F02D9B4F578
:102B3000487F56D93BB9B6F52F7F04D9282C02D946
:102B4000B4F5C87F4DD923B9B6F5FA6F01D9282C51
:102B500043D9002B43D0B4F5966F68D807F10A0427
:102B6000A4B23EE0454B5F8899E7424B01221A70C0
:102B7000414B1B7813B9414B1F8890E73F4B5F884F
:102B80008DE73C4B02221A703B4B1B7813B13B4B39
:102B90009F8884E7394BDF8881E7384BDF887EE701
:102BA0003B4C3C4920461AF00EF921463A4819F0B0
:102BB000B7FE2146394819F0B3FE88E73849364850
:102BC00019F0B8FEFFF7D8FD96E7B4F5966FA8D9CF
:102BD00040F2DC52944204D9A3E7282401E040F2F9
:102BE000DC54304B1B7853B12F4B1B881E2B06D95E
:102BF000B7F5966F03D9B4F5C87F00D23C461D4B9C
:102C00001B7813B91C4A12780ABB012B12D0012B76
:102C100027D0FBB9184B1B78E3B9184BDB8803F1BD
:102C20006302A24216DB273B9C4213DB1DE040F20D
:102C3000DC54D6E7104A1278002AE8D10F4A92886D
:102C400002F16301A142E2DB273A9442DFDB07F1A4
:102C50000A04A4B240F2DC539C4209D8204609B0D1
:102C6000F0BD054A1278002AD3D00A37BCB2F1E78A
:102C70001C46F3E7DA06002074060020A0060020B8
:102C8000800B0020000000207927000800247449F0
:102C9000DC060020441C0208A839002090380020DF
:102CA0005C1C020877060020B206002010B50B4B12
:102CB0001868FFF7D5FE0A4C20800A4B1868FFF70A
:102CC000CFFE6080084B1868FFF7CAFEA080074B54
:102CD0001868FFF7C5FEE08010BD00BF6C00002043
:102CE000A006002070000020640000206800002082
:102CF0002DE9F041ADF5687DA54B197801EB410157
:102D0000A44B03EB81011CA81AF04BF8A2491CA8A4
:102D10001AF03BF9A14B19781AF049F9014609A8B4
:102D20001AF03FF81CA819F0A0FF9D4B1B786433E4
:102D3000DDB29C4B1B786433DCB29B4B1E78002EBB
:102D400040F00E86994B1B781E2B00F26886DFE858
:102D500013F01F0065008400A300C200E100000121
:102D6000470166066606660666018501A401CC0178
:102D7000EB0123029D036606DC036606150433049B
:102D8000510466068704A5046606660603055E050B
:102D900009A91FA81AF005F885491FA81AF0F5F827
:102DA000844B19781AF003F983491AF0EEF8834F2F
:102DB00039781AF0FCF8824E31461AF0E6F80146EE
:102DC000804D284619F099FD1FA819F04EFF704B51
:102DD000197801EB41016F4B03EB810122A819F037
:102DE000E0FF794922A81AF0D0F804460A2239787F
:102DF00025A819F0F9FF25A920461AF0B9F831469F
:102E00001AF0C3F80146284619F077FD25A819F0F5
:102E10002CFF22A819F029FF00F001BE09A928A85B
:102E200019F0BFFF694928A81AF0AFF8614B19786B
:102E30001AF0BDF860491AF0A8F8604B19781AF03A
:102E4000B6F85F491AF0A1F801465E4819F055FD41
:102E500028A819F00AFF00F0E2BD09A92BA819F073
:102E6000A0FF5B492BA81AF090F8524B19781AF082
:102E70009EF851491AF089F8504B19781AF097F8D2
:102E80004F491AF082F801464E4819F036FD2BA83A
:102E900019F0EBFE00F0C3BD09A92EA819F081FFBF
:102EA0004C492EA81AF071F8424B19781AF07FF8A5
:102EB00041491AF06AF8414B19781AF078F84049FC
:102EC0001AF063F801463F4819F017FD2EA819F0D3
:102ED000CCFE00F0A4BD09A931A819F062FF3E495B
:102EE00031A81AF052F8334B19781AF060F83249C9
:102EF0001AF04BF8314B19781AF059F830491AF09A
:102F000044F801462F4819F0F8FC31A819F0ADFE3D
:102F100000F085BD09A934A819F043FF244934A85D
:102F20001AF033F8234B19781AF041F822491AF0B5
:102F30002CF8224B19781AF03AF821491AF025F8A2
:102F40000146204819F0D9FC34A819F08EFE00F093
:102F500066BD09A937A819F024FF204937A81AF03F
:102F600014F8144B19781AF022F813491AF00DF8D6
:102F7000124B19781AF01BF811491AF006F801469D
:102F8000104819F0BAFC37A819F06FFE00F047BDE1
:102F9000E8060020800800206C1C02087006002053
:102FA0006906002068060020EC060020FC060020D0
:102FB000701C02086E06002008290208780600200E
:102FC000741C0208DC0C0020781C02087C1C02081F
:102FD000801C0208841C0208881C02088C1C020841
:102FE00009A93AA819F0DDFE5F493AA819F0CDFF0A
:102FF0005E4B197819F0DBFF5D4919F0C6FF5D4B98
:10300000197819F0D4FF5C4919F0BFFF01465B48FD
:1030100019F073FC3AA819F028FE00F000BD09A9C8
:103020003DA819F0BEFE56493DA819F0AEFF4F4B22
:10303000197819F0BCFF4E4919F0A7FF4D4B1978CC
:1030400019F0B5FF4C4919F0A0FF01464B4819F0A3
:1030500054FC3DA819F009FE00F0E1BC09A940A804
:1030600019F09FFE474940A819F08FFF3F4B197890
:1030700019F09DFF3E4919F088FF3E4B197819F071
:1030800096FF3D4919F081FF01463C4819F035FC97
:1030900040A819F0EAFD00F0C2BC3B4B197801EBE7
:1030A00041013A4B03EB810143A819F07AFE3849FC
:1030B00043A819F06AFF04460A222E4B197846A845
:1030C00019F092FE46A9204619F052FF2A4919F03C
:1030D0005CFF0146294819F010FC46A819F0C5FD0F
:1030E00043A819F0C2FD00F09ABC09A949A819F03B
:1030F00058FE284949A819F048FF1C4B197819F0C7
:1031000056FF1B4919F041FF1A4B197819F04FFF70
:10311000194919F03AFF0146184819F0EEFB49A881
:1031200019F0A3FD00F07BBC09A94CA819F039FEE9
:1031300018494CA819F029FF0C4B197819F037FFE2
:103140000B4919F022FF0B4B197819F030FF0A498F
:1031500019F01BFF0146094819F0CFFB4CA819F0E4
:1031600084FD00F05CBC00BF901C02086E060020CD
:103170000829020878060020741C0208DC0C0020D4
:10318000941C0208981C0208E80600208008002011
:10319000781C02089C1C0208DFF8DC8298F80010FA
:1031A00001EB4101A84F07EB81014FA819F0F9FD90
:1031B000A6494FA819F0E9FEA54B197819F0F7FEBA
:1031C00006460A22A34B198852A819F01FFE52A9DD
:1031D000304619F0CDFEA04E314619F0D6FE9F4B79
:1031E000198819F0EFFE314619F0CFFE9C4B197883
:1031F00019F0DDFE314619F0C8FE06460A22994B49
:10320000198855A819F002FE55A9304619F0B0FEEC
:10321000954919F0BAFE0146944819F06EFB55A87D
:1032200019F023FD52A819F020FD4FA819F01DFD3B
:1032300014201BF0EFFE98F8001001EB410107EBA2
:10324000810158A819F0ADFD894958A819F09DFED3
:10325000014609A819F096FD58A819F006FD092D98
:1032600040F29680632D00F2AB80824961A819F08C
:1032700044FD0A22294664A819F0B6FD64A961A894
:1032800019F076FE014609A819F02BFE64A819F082
:10329000ECFC61A819F0E9FC6F4909A819F027FEB8
:1032A000082C40F29A80622C00F2AF80714970A81D
:1032B00019F023FD0A22214673A819F095FD73A980
:1032C00070A819F055FE014609A819F00AFE73A866
:1032D00019F0CBFC70A819F0C8FC09A979A819F05D
:1032E00060FD614979A819F050FE01465F4819F068
:1032F00004FB79A819F0B9FC14201BF08BFE5E4B7F
:10330000197801EB4101504B03EB81017CA819F0C6
:1033100048FD5A497CA819F038FE014609A819F061
:1033200031FD7CA819F0A1FC554B1B6842F20F72CD
:10333000934277DC4F497FA819F0DFFC504B1B68A4
:10334000504981FB0321DB170A22C3EBA11182A89C
:1033500019F05CFD82A97FA819F00AFE014609A8B0
:1033600019F0BFFD82A819F080FC7FA819F07DFC40
:1033700009A988A819F015FD3B4988A819F005FE90
:1033800001463A4819F0B9FA88A819F06EFC46E3EC
:103390003D495BA819F0B1FC0A2229465EA819F044
:1033A00023FD5EA95BA819F0E3FD014609A819F009
:1033B00098FD5EA819F059FC5BA819F056FC6BE764
:1033C0000A22294667A819F00FFD67A909A819F074
:1033D00088FD67A819F049FC5EE72B496AA819F037
:1033E0008CFC0A2221466DA819F0FEFC6DA96AA882
:1033F00019F0BEFD014609A819F073FD6DA819F07A
:1034000034FC6AA819F031FC67E70A22214676A845
:1034100019F0EAFC76A909A819F063FD76A819F05D
:1034200024FC5AE7174981FB0321DB170A22C3EB6F
:10343000A11185A819F0EAFC85A909A819F051FD88
:1034400085A819F012FC93E780080020A01C020850
:10345000740600200E000020082902080A0000203F
:103460001800002008000020741C0208DC0C00205A
:10347000A41C0208AC1C0208E8060020B01C0208CC
:1034800010000020D34D6210A81C0208FEF73CF883
:10349000FFF70CFC964B197801EB4101954B03EBC0
:1034A00081018BA819F07DFC93498BA819F06DFD63
:1034B000014609A819F066FC8BA819F0D6FB099CF7
:1034C0008E4B1D885E889F88B3F806808C480BF071
:1034D000E9FA8C4B1B7807938B4B1B7806938B4B2D
:1034E0001B7805938A4B1B7804930390CDF80880D2
:1034F000019700962B46224640210CA81CF0EAFAC0
:103500000CA9844819F000FA89E2794B197801EB8B
:103510004101784B03EB81018EA819F042FC7E49F2
:103520008EA819F032FD014609A819F02BFC8EA8CF
:1035300019F09BFB09E079490B88794A905D0122DB
:10354000824013430B800136F6B20F2EF3D909A93E
:1035500091A819F026FC734991A819F016FD6F4B3C
:10356000198819F02FFD704919F00FFD01466948BF
:1035700019F0C3F991A819F078FB50E209A994A8B1
:1035800019F00FFC694994A819F0FFFC684B1978F1
:1035900019F00DFD674919F0F8FC674B197819F01F
:1035A00006FD664919F0F1FC01465A4819F0A5F9E3
:1035B00094A819F05AFB32E209A997A819F0F1FB77
:1035C0005F4997A819F0E1FC594B197819F0EFFC05
:1035D000584919F0DAFC584B197819F0E8FC5749AA
:1035E00019F0D3FC01464B4819F087F997A819F058
:1035F0003CFB14E23E4B197801EB41013D4B03EBE0
:1036000081019AA819F0CDFB4E499AA819F0BDFC8A
:10361000014609A819F0B6FB9AA819F026FB09A9DA
:103620009DA819F0BEFB3F499DA819F0AEFC0446C9
:103630000A22454B1978A0A819F0D6FBA0A920466C
:1036400019F096FC3D4919F0A0FC0146314819F0EB
:1036500054F9A0A819F009FB9DA819F006FBDEE1BA
:1036600009A9A3A819F09DFB3849A3A819F08DFC5E
:103670002F4B197819F09BFC2E4919F086FC2E4B24
:10368000197819F094FC2D4919F07FFC0146214866
:1036900019F033F9A3A819F0E8FAC0E1144B19782E
:1036A00001EB4101134B03EB8101A6A819F079FB53
:1036B0002749A6A819F069FC014609A819F062FB80
:1036C000A6A819F0D2FA09A9A9A819F06AFB214BFA
:1036D0001978A9A819F076FC184919F056FC01468A
:1036E0000C4819F00AF9A9A819F0BFFA97E100BF30
:1036F000E806002080080020B41C0208A006002074
:10370000080B0020790600207A0600207B060020A6
:103710007C060020DC0C0020DC1C0208B006002027
:10372000EC060020AC1C0208E01C0208E41C0208A5
:103730006E0600200829020878060020741C020882
:10374000E81C0208EC1C02086C060020F01C0208B1
:10375000F41C020830060020B44B197801EB41013B
:10376000B34B03EB8101ACA819F01BFBB149ACA82A
:1037700019F00BFC014609A819F004FBACA819F0DC
:1037800074FAAD4B1B6842F20F7293422DDCAB49C9
:10379000AFA819F0B2FAA84B1B68A94981FB032115
:1037A000DB170A22C3EBA111B2A819F02FFBB2A9B3
:1037B000AFA819F0DDFB014609A819F092FBB2A8E9
:1037C00019F053FAAFA819F050FA09A9B8A819F0DE
:1037D000E8FA9C49B8A819F0D8FB01469A4819F0B4
:1037E0008CF8B8A819F041FA19E1954981FB032139
:1037F000DB170A22C3EBA111B5A819F007FBB5A985
:1038000009A819F06EFBB5A819F02FFADDE7874B70
:10381000197801EB4101864B03EB8101BBA819F03C
:10382000C0FA8A49BBA819F0B0FB014609A819F0F3
:10383000A9FABBA819F019FA082D47D9622D5DD84D
:103840007E49C4A819F059FA0A222946C7A819F0D6
:10385000CBFAC7A9C4A819F08BFB014609A819F037
:1038600040FBC7A819F001FAC4A819F0FEF978497D
:1038700009A819F03CFB082C4DD9622C63D86F497C
:10388000D3A819F03AFA0A222146D6A819F0ACFAC0
:10389000D6A9D3A819F06CFB014609A819F021FBA1
:1038A000D6A819F0E2F9D3A819F0DFF909A9DCA824
:1038B00019F077FA6349DCA819F067FB0146624802
:1038C00019F01BF8DCA819F0D0F9A8E06149BEA8EE
:1038D00019F013FA0A222946C1A819F085FAC1A9DC
:1038E000BEA819F045FB014609A819F0FAFAC1A8CB
:1038F00019F0BBF9BEA819F0B8F9B8E70A222946B1
:10390000CAA819F071FACAA909A819F0EAFACAA84E
:1039100019F0ABF9ABE74F49CDA819F0EEF90A223F
:103920002146D0A819F060FAD0A9CDA819F020FB43
:10393000014609A819F0D5FAD0A819F096F9CDA832
:1039400019F093F9B2E70A222146D9A819F04CFAE6
:10395000D9A909A819F0C5FAD9A819F086F9A5E7D7
:1039600009A9DFA819F01DFA3B49DFA819F00DFBE2
:103970003A4B197819F01BFB354919F006FB384B07
:10398000197819F014FB2F4919F0FFFA01462E4857
:1039900018F0B3FFDFA819F068F932201BF03AFBEA
:1039A000224B197801EB4101214B03EB8101E2A885
:1039B00019F0F7F92B49E2A819F0E7FA014609A82E
:1039C00019F0E0F9E2A819F050F900230BE02648BD
:1039D0000288264911F803C0012101FA0CF10A43BB
:1039E00002800133DBB20F2BF1D91F4C238843F047
:1039F0000103238009A9E5A819F0D3F90F49E5A827
:103A000019F0C3FA218819F0DDFA194919F0BDFA45
:103A100001460D4818F071FFE5A819F026F909A82C
:103A200019F023F90DF5687DBDE8F081E806002066
:103A300080080020B01C020810000020AC1C020806
:103A4000D34D6210741C0208DC0C0020A41C020878
:103A500008290208A81C0208F81C02086E060020AB
:103A600078060020DC1C0208B0060020EC060020CE
:103A7000E01C020830B599B01BF0C8FA984B1B68DF
:103A8000C01A984B1B68984201D819B030BD964CAB
:103A9000237801332370954995480EF08AFD2378E9
:103AA0000A2B0BD05A1E0B2A00F2B180DFE802F07D
:103AB0007481AFAF74AFAFAFAFAFAF818D4A127843
:103AC000192AEFD0FDF7DAFD8B49684619F015F990
:103AD0008A4D0A22296803A819F098F903A96846B3
:103AE00019F046FA0146864C204619F04BF903A816
:103AF00019F0BBF8684619F0B8F82146814818F06B
:103B00000FFF2146804818F00BFF2A687F4B196889
:103B1000531A002BB8BF5B4242B97D4B18887D4BCE
:103B20001B681B1A5B1A002BB8BF5B427A490978E5
:103B300081B17A49098869B1092B0BDC784B1B7874
:103B40001BB1774B01221A7011E01BF05FFA754B25
:103B50001860F6E76D4B1A60714B0021197032B98D
:103B60006B4B1A886B4B1B689B1A684A13606C4B33
:103B70001B78CBB11BF04AFA6A4B1B68C01A40F2A3
:103B8000DC53984210D900F0D9F85A4B05221A702C
:103B90000A20FDF7A9FC78E7012120201BF0E2F9BB
:103BA000012122201BF0DEF91BF030FA4C4B18608B
:103BB0006BE7504A1278192A29D0574B1B780BB360
:103BC000594906A819F099F80A22544B198809A8EE
:103BD00019F01CF909A906A819F0CAF901464848C4
:103BE00019F0D0F809A819F040F806A819F03DF826
:103BF000434C2146434818F093FE2146424818F0B2
:103C00008FFED1E749493E4819F0DDF8F0E7032B74
:103C10000FD0072B0DD0042B17D0082B4ED00B2B19
:103C200057D0132B55D0142BBED12F4B00221A7016
:103C3000BAE7002120201BF095F9002122201BF07B
:103C400091F93B480FF004F8AEE72A4A1278192A96
:103C5000E3D0384B1B68002BA6D0374D29460CA863
:103C600019F04BF8334C0A2221680FA819F0CEF84E
:103C70000FA90CA819F07CF90146224818F050FE53
:103C80000FA818F0F2FF0CA818F0EFFF294612A8B1
:103C900019F033F80A22216815A819F0B7F815A908
:103CA00012A819F065F90146174818F039FE15A851
:103CB00018F0DBFF12A818F0D8FF75E70D4A14784A
:103CC000192CACD0154610231370FFF711F82C7087
:103CD0006AE7084A1278192AA5D0FFF709F863E7BE
:103CE000C806002014000020DB060020340000205D
:103CF000940B0020FC060020FC1C02084806002053
:103D0000DC060020A839002090380020440600205E
:103D1000080000204C06002077060020B206002094
:103D20006A06002028060020081D0208141D02084B
:103D3000B836002060060020281D0208924B1B7830
:103D4000022B00F02081F0B58FB0904990480EF022
:103D500030FC904D294602A818F0CFFF8E4C0A2265
:103D6000218805A819F052F805A902A819F000F950
:103D700001468A4818F0D4FD05A818F076FF02A87D
:103D800018F073FF294608A818F0B7FF0A22218807
:103D90000BA819F03BF80BA908A819F0E9F801469F
:103DA0007F4818F0BDFD0BA818F05FFF08A818F0B9
:103DB0005CFF7C4B64221A600422DA722688012E92
:103DC00065D9F7B2C6F34606344629E0C3F10302CB
:103DD00038326A4412F8341C724A1A44117301339F
:103DE000DBB2032BF2D900226E4969480EF06EFB5C
:103DF000664967480EF0DDFB0028F9D16A4B1B7855
:103E0000162B32D0072B30D0152F3CD905EB85006F
:103E1000800090FBF6F00A301BF0FCF8013CE4B2A5
:103E2000002C34D0FFF726FE604B1B885A4A1288BC
:103E30005F49098801FB02F2254604FB02F2642176
:103E400006FB01F192FBF1F2134401934FF47A72F5
:103E500002FB03F301934C4A1178564A12789142BF
:103E600001D05B4201930023BBE7534B1B78002B2F
:103E7000CAD0524AD388643352889342C4DA0A20A3
:103E80001BF0C8F8CAE732201BF0C4F8C6E7FDF7FC
:103E9000F5FB002301930AE0C3F1030238326A44C0
:103EA00012F8341C3F4A1A4411730133DBB2032B5E
:103EB000F2D900223B4936480EF008FB334934481A
:103EC0000EF077FB0028F9D1374B1B78162B03D067
:103ED000072B01D0002440E0374B1C78002C3CD04D
:103EE000364AD3886433528893421EDB002434E080
:103EF000FFF7C0FD1BF08AF8314B1B68C01A63281E
:103F0000F6D90022274922480EF0E0FA1F4920483E
:103F10000EF04FFB0028F9D10134E4B2092C22D86D
:103F20001BF074F8264B1860E4E70024F6E7FFF76F
:103F3000A1FD1BF06BF8224B1B68C01A6328F6D951
:103F40000022184912480EF0C1FA104910480EF02C
:103F500030FB0028F9D10134E4B224B91BF056F843
:103F6000174B1860E5E700230B4A1380154A1370BE
:103F7000054A02211170144A1370144B1A68144B2D
:103F80001A600FB0F0BD70477606002034000020A4
:103F9000940B0020341D0208B2060020A83900202E
:103FA000903800204C000020FC0600200C0000206F
:103FB0000E0000207406002075060020A0060020D8
:103FC000CC060020770600206A0600204806002064
:103FD0004406002008B50B4B1B787BB1052B0DD098
:103FE000094B1B785BB1FFF7A9FE064B05221A703F
:103FF0000C20FDF779FA054B00221A8008BDFDF769
:10400000FBF9F2E7FC06002075060020B20600204E
:1040100070B588B0754E764C3146204618F08AFC53
:10402000744D2946204618F085FC734C31462046D5
:1040300018F080FC2946204618F07CFC1AF0E6FFB8
:1040400006461AF0E3FF6FF0310301936B4B0193C7
:104050006B4B65221A600422DA7200230AE0C3F176
:10406000030220326A4412F81C1C654A1A44117378
:104070000133DBB2032BF2D908201AF09DFFF8B907
:1040800000252C4608201AF097FF002847D000F0A2
:10409000C7F805281AD05B4B1B78BBB91AF0B6FFDE
:1040A000801B41F28833984239D80A201AF0B2FFB7
:1040B0000022534954480EF009FAFFF7DBFC10E0E8
:1040C00000224F4950480EF001FAD9E74F4B052224
:1040D0001A7008B070BD0134032C00DD1D441AF0C5
:1040E00095FF4B4948480EF064FA0028CAD0484B67
:1040F0001B7A002BF5D1464B1A6840F665139A429D
:10410000EFD1434B1A7C5B7C03EB0223414A1268DC
:104110009A42E0DA032CDEDD3E4A1360DBE7002240
:10412000374939480EF0D2F91AF070FF06460820D8
:104130001AF042FF70B308201AF03EFF50B300F0AF
:104140006FF805281AD02F4B1B78BBB91AF05EFF09
:10415000801B41F28833984214D80A201AF05AFF83
:104160000022274928480EF0B1F9294926480EF0C7
:1041700020FA0028F9D1FFF77DFCDCE7234B05226C
:104180001A70A6E7FDF77EF90920FDF7ADF91F4B80
:1041900005221A701D201AF00FFF10B11E4B0122CC
:1041A0001A70FDF76FF995FBF4F51A4B1B68B3F520
:1041B000FA7F02DD174BFA221A60184902A818F09C
:1041C0009CFD0A22294605A818F020FE05A902A890
:1041D00018F0CEFE0146084818F0A2FB05A818F01A
:1041E00044FD02A818F041FD73E700BFFC1F020860
:1041F000A83900204C1D020890380020B03CFFFF79
:104200004C000020EC060020940B0020FC0600204F
:10421000340000206006002075060020601D0208A2
:104220002DE9F041ADF5507D1AF0F0FEA14B1B6871
:10423000C01A132806D8A04B1D7828460DF5507DCE
:10424000BDE8F0811AF0E2FE9A4B18609B4919A86C
:1042500018F053FD9A4817F0FEFF002835D1642569
:10426000964919A818F0AFFD00242646954817F086
:10427000F2FF00B3934818F0FFFA11AB1855013460
:10428000E4B2C1B219A818F041FE8F4B59688F4BA8
:104290001A688F4BA3FB0232920C40F2D66303FBE9
:1042A00002F2894B5B685B1A9A42FADC1B9B01267F
:1042B0001E2BDBD90126002E40F0B985642D01F0BC
:1042C000868119A818F0D1FCB7E77D4818F0D4FA18
:1042D000C1B219A818F01AFE7B4B59687B4B1A68BB
:1042E0007B4BA3FB0232920C40F2D66303FB02F23B
:1042F000754B5B685B1A9A42FADC714818F0BCFA9D
:10430000C1B219A818F002FE0BE06F4B5B685B1A94
:104310009A42FADC6A4818F0AFFAC1B219A818F04C
:10432000F5FD6C4B197801EB41016B4B03EB8101FF
:1043300019A818F06CFEE8B9614817F08CFFC8B1F5
:104340000223012219A91CA818F08AFE1CA919A889
:1043500018F031FD1CA818F088FC5B4B59685B4BCA
:104360001A685B4BA3FB0232920C40F2D66303FB4C
:1043700002F2CAE7574B197801EB4101564B03EBA8
:10438000810119A818F043FE08B9642568E71AF0FE
:104390003DFE04461B9B072B21D81AF037FE001B5D
:1043A00031281CD8484B5968484B1A68484BA3FB26
:1043B0000232920C642303FB02F2434B5B685B1AEC
:1043C0009A42FADC3E4817F046FF0028E2D03C480B
:1043D00018F052FAC1B219A818F098FDDAE70223D2
:1043E000002219A90EA818F03BFE3A4B197801EBF0
:1043F0004101394B03EB81010EA818F008FE20B9EA
:1044000064250EA818F031FC2AE7344B1B78002BEA
:1044100040D01AF0FBFD324B18600823022219A984
:104420001FA818F01DFE1FA90EA818F0C4FC1FA895
:1044300018F01BFC2B490EA818F0F7FD002857D0E8
:10444000FEF756FC64250523022219A973A818F06B
:1044500007FE73A90EA818F0AEFC73A818F005FCAF
:1044600021490EA818F0E1FD002800F06B83082315
:10447000052219A976A818F0F3FD76A818F018FE01
:10448000431E144C237076A818F0EFFB2278174BCC
:104490001A70B6E7012113201AF064FD4FF4FA7088
:1044A0001AF0B8FD002113201AF05CFD0B4B01221D
:1044B0001A70AEE7C4060020FC060020BC290208E2
:1044C000DC0C002090380020001000E09803002051
:1044D00083DE1B43E806002080080020D906002068
:1044E000C0060020A01B0208101E02083C0B002082
:1044F0009A490EA818F099FDC0B119A922A818F080
:1045000050FC974922A818F040FD0146954818F044
:10451000F4F922A818F0A9FB934B1B78192B01D0B2
:10452000032590E7FFF774FD64258CE78F490EA8FB
:1045300018F07BFDC0B119A925A818F032FC8849F4
:1045400025A818F022FD0146864818F0D6F925A8BE
:1045500018F08BFB844B1B78192B01D0042572E7D4
:1045600001F06AF864256EE781490EA818F05DFD38
:1045700098B119A928A818F014FC794928A818F0AE
:1045800004FD0146774818F0B8F928A818F06DFB2B
:10459000784B00221A70052555E777490EA818F0C8
:1045A00044FD80B119A92BA818F0FBFB6C492BA87E
:1045B00018F0EBFC01466B4818F09FF92BA818F097
:1045C00054FB06253FE76D490EA818F02EFD80B17B
:1045D00019A92EA818F0E5FB61492EA818F0D5FC02
:1045E0000146604818F089F92EA818F03EFB07250F
:1045F00029E763490EA818F018FD80B119A931A860
:1046000018F0CFFB564931A818F0BFFC01465548B9
:1046100018F073F931A818F028FB0A2513E7594957
:104620000EA818F002FD80B119A934A818F0B9FB42
:104630004B4934A818F0A9FC01464A4818F05DF926
:1046400034A818F012FB0B25FDE64F490EA818F010
:10465000ECFC80B119A937A818F0A3FB404937A892
:1046600018F093FC01463F4818F047F937A818F0B6
:10467000FCFA0C25E7E645490EA818F0D6FC80B1F7
:1046800019A93AA818F08DFB35493AA818F07DFC15
:104690000146344818F031F93AA818F0E6FA0D2529
:1046A000D1E63B490EA818F0C0FC80B119A93DA87D
:1046B00018F077FB2A493DA818F067FC0146294805
:1046C00018F01BF93DA818F0D0FA0E25BBE63149C9
:1046D0000EA818F0AAFC80B119A940A818F061FB37
:1046E0001F4940A818F051FC01461E4818F005F972
:1046F00040A818F0BAFA0F25A5E627490EA818F029
:1047000094FC90B119A943A818F04BFB144943A895
:1047100018F03BFC0146134818F0EFF843A818F0D6
:10472000A4FAFEF7E5FA10258DE61C490EA818F04C
:104730007CFCA8B319A946A818F033FB084946A881
:1047400018F023FC0146074818F0D7F846A818F0DF
:104750008CFAFEF7CDFA112575E600BFB81B0208EA
:10476000741C0208DC0C0020FC060020C01B0208A0
:10477000E81B020871060020C81B0208D01B0208B3
:10478000681D0208701D0208781D0208801D0208BD
:10479000881D0208901D0208981D0208A01D02082D
:1047A000A0490EA818F041FC80B119A949A818F039
:1047B000F8FA9D4949A818F0E8FB01469B4818F013
:1047C0009CF849A818F051FA13253CE698490EA820
:1047D00018F02BFC98B119A94CA818F0E2FA9249EC
:1047E0004CA818F0D2FB0146904818F086F84CA867
:1047F00018F03BFA8F4B01221A70142523E68E49DC
:104800000EA818F012FC80B119A94FA818F0C9FA27
:1048100085494FA818F0B9FB0146844818F06DF897
:104820004FA818F022FA15250DE684490EA818F0B5
:10483000FCFB80B119A952A818F0B3FA7A4952A822
:1048400018F0A3FB0146794818F057F852A818F061
:104850000CFA1625F7E57A490EA818F0E6FB80B1A8
:1048600019A955A818F09DFA6F4955A818F08DFBA5
:1048700001466E4818F041F855A818F0F6F91825C9
:10488000E1E570490EA818F0D0FBB0B119A958A8FD
:1048900018F087FA644958A818F077FB0146634876
:1048A00018F02BF858A818F0E0F91AF0AFFB664B97
:1048B0001860FEF71DFA1925C5E564490EA818F021
:1048C000B4FB90B119A95BA818F06BFA56495BA824
:1048D00018F05BFB0146554818F00FF85BA818F07C
:1048E000C4F9FEF705FA1A25ADE559490EA818F0E6
:1048F0009CFB80B119A95EA818F053FA4A495EA83A
:1049000018F043FB0146494817F0F7FF5EA818F07E
:10491000ACF91B2597E54F490EA818F086FB80B12E
:1049200019A961A818F03DFA3F4961A818F02DFBBC
:1049300001463E4817F0E1FF61A818F096F91D25E1
:1049400081E545490EA818F070FB80B119A964A84B
:1049500018F027FA344964A818F017FB01463348C9
:1049600017F0CBFF64A818F080F91E256BE53B49D2
:104970000EA818F05AFB40B119A92C4817F0BDFF3A
:104980002C4B00221A7064255DE535490EA818F0FD
:104990004CFB70B11AF03AFB324B1B68C31AB3F5EB
:1049A000487F80F0CB801AF031FB2E4B18606425D5
:1049B00049E52D490EA818F038FBB0B119A967A830
:1049C00018F0EFF9184967A818F0DFFA0146174800
:1049D00017F093FF67A818F048F90023234A1370D3
:1049E000234A82F8233064252DE522490EA818F0C9
:1049F0001CFB002840D019A96AA818F0D2F90A496E
:104A00006AA818F0C2FA0146084817F076FF6AA8AB
:104A100018F02BF90123154A1370154A82F8233038
:104A2000642510E5A81D0208741C0208DC0C002097
:104A3000B01D02086F060020D81B0208E01B020808
:104A4000B81D0208C01D02082C060020C81D02085F
:104A5000D01D0208D81D0208E01D0208E81D02084A
:104A6000F81B0208D0060020F01D02087006002086
:104A70003C0B0020F81D0208A0490EA818F0D5FA3A
:104A800000282AD019A96DA818F08BF99C496DA8A7
:104A900018F07BFA01469B4817F02FFF6DA818F01D
:104AA000E4F80023984A1370984A82F82230984B11
:104AB000984A1A60984B994A1A60994B994A1A6019
:104AC000994B9A4A1A609A4A9A4B1B6811685B1A6A
:104AD000A3F5487313606425B5E497490EA818F050
:104AE000A4FA00282CD019A970A818F05AF9844902
:104AF00070A818F04AFA0146824817F0FEFE70A826
:104B000018F0B3F80123804A1370804A82F82230EB
:104B10007F4B824A1A60804B7E4A1A60804B834AE0
:104B20001A60814B7F4A1A60814A824B1B68116868
:104B30005B1AA3F548731360642584E4642582E45A
:104B4000642580E47D490EA818F06FFA78B1082337
:104B5000052219A979A818F083FA79A818F0A8FAFB
:104B6000774B187079A818F080F8172549E4754933
:104B70000EA818F05AFAA8B10623052219A97CA894
:104B800018F06EFA7CA818F093FA031E18BF0123E0
:104B90006D4C23707CA818F068F822785B4B83F882
:104BA0002D202EE469490EA818F03FFA88B1082399
:104BB000052219A97FA818F053FA7FA818F078FAEF
:104BC000634C20807FA818F050F822884F4B1A843D
:104BD00017E460490EA818F028FAA8B108230522A6
:104BE00019A982A818F03CFA82A818F061FA5A4C68
:104BF00000EB80004300238082A818F036F822885A
:104C0000424BDA85FFF7FDBB54490EA818F00DFAA8
:104C100008B30823052219A985A818F021FA85A848
:104C200018F046FA4E4C208085A818F01EF823880C
:104C3000602B01D960222280494B1A88494B1B887E
:104C40009A4202D20533464A1380454B1A882F4BAD
:104C50009A83FFF7D6BB44490EA818F0E6F9C8B10D
:104C60000823052219A988A818F0FAF988A818F0CD
:104C70001FFA3E4C207088A817F0F7FF2378322BDC
:104C800001D932222270394B1A78204B83F82C201C
:104C9000FFF7B7BB36490EA818F0C7F998B108233B
:104CA000052219A98BA818F0DBF98BA818F000FAD7
:104CB00000EB800043002F4A13808BA817F0D5FF2C
:104CC0000825FFF79EBB2C490EA818F0AEF9064642
:104CD000002853D00823052219A98EA818F0C0F97E
:104CE0008EA818F0E5F900EB80004300214A1380FC
:104CF0008EA817F0BAFF0925FFF783BB001E020834
:104D0000741C0208DC0C0020740600203C0B002000
:104D100070000020701300206C0000209C11002007
:104D200068000020C80F002064000020F40D00205F
:104D3000480600204C060020081E0208141E020827
:104D40006C060020181E0208300600201C1E0208F7
:104D50000A000020201E020808000020241E02086D
:104D60000E0000200C000020281E02081800002061
:104D70002C1E02087E060020301E020899490EA84B
:104D800018F053F90746B8B10723052219A991A8CD
:104D900018F066F991A818F08BF94FF47A7300FBBC
:104DA00003F3914C236091A817F05FFF22688F4BAB
:104DB0001A633546FFF725BB8D490EA818F035F963
:104DC0000646B0B10823052219A994A818F048F99D
:104DD00094A818F06DF9A0F16403864C237094A890
:104DE00017F043FF2278814B83F834203D46FFF7CC
:104DF00008BB81490EA818F018F900283FF401AB50
:104E00000823052219A997A818F02AF997A818F0DD
:104E10004FF9A0F16403794C237097A817F025FF90
:104E20002278724B83F83D203546FFF7EABA022319
:104E3000002219A90BA818F013F9714B197801EB8E
:104E40004101704B03EB81010BA818F0E0F800283A
:104E500000F023831AF0DAF86B4B18600823022263
:104E600019A99AA818F0FCF89AA90BA817F0A3FFA3
:104E70009AA817F0FAFE65490BA818F0D6F860B3A7
:104E8000FDF736FF0523022219A99DA818F0E8F8BE
:104E90009DA90BA817F08FFF9DA817F0E6FE5C49AF
:104EA0000BA818F0C2F8002800F07B810823052227
:104EB00019A9A0A818F0D4F8A0A818F0F9F8431E72
:104EC0004F4C2370A0A817F0D0FE2278474B1A70E1
:104ED0000BA817F0CAFEFFF7F1B94E490BA818F05E
:104EE000A4F808B10125CDE74B490BA818F09DF8AF
:104EF00008B10225C6E749490BA818F096F808B191
:104F00000325BFE746490BA818F08FF808B1042520
:104F1000B8E744490BA818F088F820B1424B0022AA
:104F20001A700525AEE741490BA818F07EF808B1C4
:104F30000625A7E73E490BA818F077F808B1072522
:104F4000A0E73C490BA818F070F808B10A2599E7CA
:104F500039490BA818F069F808B10B2592E73749D1
:104F60000BA818F062F808B10C258BE734490BA8A0
:104F700018F05BF808B10D2584E732490BA818F04A
:104F800054F808B10E257DE72F490BA818F04DF80D
:104F9000002840F0FA802D490BA818F046F818B107
:104FA000FDF7A6FE10256DE729490BA818F03DF87E
:104FB00018B1FDF79DFE112564E726490BA818F0EE
:104FC00034F818B1FDF794FE13255BE722490BA8CE
:104FD00018F02BF8002843D0204B01221A7014251A
:104FE00050E700BF341E0208100000203C0B0020D8
:104FF000381E0208690600203C1E020868060020D0
:10500000E806002080080020C0060020A01B02083F
:10501000101E0208A81B0208B01B0208B81B0208D9
:10502000C01B0208E81B020871060020C81B02080A
:10503000D01B0208681D0208701D0208781D0208B6
:10504000801D0208881D0208901D0208401E0208EB
:10505000A01D0208A81D0208B01D02086F0600204E
:1050600094490BA817F0E1FF002840F09080924986
:105070000BA817F0DAFF002840F08B808F490BA8AF
:1050800017F0D3FF002840F086808D490BA817F059
:10509000CCFF38B119F0BAFF8A4B1860FDF728FE33
:1050A0001925EFE688490BA817F0BFFF002874D137
:1050B00086490BA817F0B9FF002870D184490BA8C6
:1050C00017F0B3FF18B1834B00221A70DAE6824959
:1050D0000BA817F0AAFF20B119F098FF7F4B1860BA
:1050E000D0E67F490BA817F0A0FF18B17D4B002236
:1050F0001A70C7E67C490BA817F097FF18B1794BD7
:1051000001221A70BEE679490BA817F08EFFD0B1C4
:105110000023774A1370774A82F82230764B774A19
:105120001A60774B774A1A60774B784A1A60784B47
:10513000784A1A60784A794B1B6811685B1AA3F5A4
:10514000487313609EE676490BA817F06EFF00289F
:105150003FF498AE0123664A1370664A82F8223003
:10516000654B684A1A60664B644A1A60664B694A26
:105170001A60674B654A1A60674A684B1B6811687A
:105180005B1AA3F5487313607CE60F257AE61525B4
:1051900078E6162576E6182574E61B2572E61D25A9
:1051A00070E660490BA817F040FF78B1082305228C
:1051B00019A9A3A817F054FFA3A817F079FF5A4B19
:1051C0001870A3A817F051FD172581E657490BA8C1
:1051D00017F02BFFA8B10623052219A9A6A817F0DE
:1051E0003FFFA6A817F064FF031E18BF0123504C11
:1051F0002370A6A817F039FD22783E4B83F82D20A6
:1052000066E64C490BA817F010FF88B10823052269
:1052100019A9A9A817F024FFA9A817F049FF464C1F
:105220002080A9A817F021FD2288324B1A844FE66E
:1052300042490BA817F0F9FEA0B10823052219A9CD
:10524000ACA817F00DFFACA817F032FF3C4C00EBF8
:10525000800043002380ACA817F007FD2288254B6F
:10526000DA8535E637490BA817F0DFFE00286FD046
:105270000823052219A9AFA817F0F2FEAFA817F06E
:1052800017FF314C2080AFA817F0EFFC2388602B6C
:1052900001D9602222802C4B1A882C4B1B889A4201
:1052A00002D20533284A1380274B1A88114B9A8360
:1052B0000EE600BFD81B0208E01B0208B81D02085A
:1052C000C01D02082C060020D01D0208D81D0208AF
:1052D000E81D02086F060020F81B0208D006002017
:1052E000F81D020870060020F01D0208001E0208CA
:1052F000740600203C0B002070000020701300207A
:105300006C0000209C11002068000020C80F0020C5
:1053100064000020F40D0020480600204C06002008
:10532000081E0208141E02086C060020181E02083F
:10533000300600201C1E02080A000020201E020861
:1053400008000020241E02080E0000200C0000208F
:10535000A1490BA817F069FEC0B10823052219A9BD
:10536000B2A817F07DFEB2A817F0A2FE9B4C2070E9
:10537000B2A817F07AFC2378322B01D9322222709E
:10538000964B1A78964B83F82C20A1E595490BA8EB
:1053900017F04BFE90B10823052219A9B5A817F004
:1053A0005FFEB5A817F084FE00EB800043008E4A34
:1053B0001380B5A817F059FC082589E58B490BA87F
:1053C00017F033FE064690B10823052219A9B8A8A4
:1053D00017F046FEB8A817F06BFE00EB8000430004
:1053E000814A1380B8A817F040FC092570E5804970
:1053F0000BA817F01AFE0746B0B10723052219A91A
:10540000BBA817F02DFEBBA817F052FE4FF47A731D
:1054100000FB03F3774C2360BBA817F026FC22683F
:105420006F4B1A63354653E573490BA817F0FDFD22
:105430000646A8B10823052219A9BEA817F010FE38
:10544000BEA817F035FEA0F164036C4C2370BEA813
:1054500017F00BFC2278624B83F834203D4637E589
:1054600067490BA817F0E1FD00283FF431AD082390
:10547000052219A9C1A817F0F3FDC1A817F018FE5D
:10548000A0F164035F4C2370C1A817F0EEFB2278F3
:10549000534B83F83D2035461AE55B490BA817F0BE
:1054A000C4FD002834D0594F3946C4A817F025FC54
:1054B000574E0A223178C7A817F096FCC7A9C4A88E
:1054C00017F056FD0146534C204617F016FAC7A8B0
:1054D00017F0CBFBC4A817F0C8FB052019F09AFD04
:1054E0003946CAA817F009FC0A223178CDA817F06E
:1054F0007BFCCDA9CAA817F03BFD0146204617F05A
:10550000FCF9CDA817F0B1FBCAA817F0AEFBDFE499
:1055100041490BA817F089FD00283FF4D9AC1723A7
:10552000032219A90EA817F09BFD0AAB039309AB40
:10553000029308AB019307AB009306AB05AA37496A
:105540000E981AF01BFB062839D1059E069FDDF840
:105550001C800A9B0193099B0093089B4246394695
:105560003046FCF789FC28B32D4C002301934FF4FF
:105570007A7300935FFA88F3FAB2F1B220680DF003
:10558000C7FBD4F80080089E099F0A9C2246394632
:105590003046FCF7FFFB014604F13003DBB2009319
:1055A000FBB2F2B240460DF00BFC1E491E4817F04C
:1055B000C1F908E01D491C4817F0BCF903E01C497B
:1055C000194817F0B7F90EA817F04FFB80E4194BF4
:1055D0001D78FEF776BE00BF281E020818000020C6
:1055E0003C0B00202C1E02087E060020301E020804
:1055F000341E020810000020381E02086906002030
:105600003C1E020868060020481E02084C1E0208C4
:10561000E806002090380020501E0208541E0208A0
:105620007C0B0020681E0208A8390020841E020896
:10563000A81E0208FC06002030B589B0554D564C16
:105640002946204617F076F9544902A817F055FB71
:105650000A22534B197805A817F0C6FB05A902A822
:1056600017F086FC0146204617F05AF905A817F0F6
:10567000FCFA02A817F0F9FA4A4C2946204617F01E
:1056800059F94949204617F055F919F0BFFC04466D
:105690004CF250330193454B65221A600422DA72B2
:1056A0000023032B0BD8C3F1030220326A4412F803
:1056B0001C1C3E4A1A4411730133DBB2F1E71D2072
:1056C00019F07AFCE0B91D2019F076FC18B3FEF74A
:1056D000A7FD05281AD0364B1B78BBB919F096FCEC
:1056E000001B41F28833984215D80A2019F092FC29
:1056F00000222E492F480CF0E9FEFEF7BBF9E2E745
:1057000000222A492B480CF0E1FEDCE7244B05225D
:105710001A7009B030BD19F079FC04461D2019F04B
:105720004BFC40B31D2019F047FC20B3FEF778FD79
:10573000052814D01E4B1B788BB919F067FC001B91
:1057400041F2883398420ED80A2019F063FC0022F7
:10575000164918480CF0BAFEFEF78CF9E2E7104B38
:1057600005221A70D5E7FBF78DFE0920FBF7BCFE7A
:105770000B4B05221A701D2019F01EFC10B90E4BA0
:1057800000221A70FBF77EFE00230C4A13700C4AAD
:105790001360BEE7FC1F0208A8390020D41E0208CF
:1057A000FC06002090380020F41E02084C00002067
:1057B000EC060020940B0020750600206B060020EC
:1057C0006006002008B50121212019F0CBFB012142
:1057D000202019F0C7FB0121132019F0C3FB19F099
:1057E00015FC7F4B186003E001237E4A13708BB9D0
:1057F00019F00CFC7A4B1B68C01A632817D8FEF707
:105800000FFD0528F0D0784B1B780BB10123ECE796
:105810000023EAE70021212019F0A4FB0021202029
:1058200019F0A0FB0021132019F09CFB08BD0021FA
:10583000212019F097FB0021202019F093FB002173
:10584000132019F08FFB19F0E1FB654B186003E0A2
:105850000123644A13708BB919F0D8FB604B1B68A5
:10586000C01A632817D8FEF7DBFC0528F0D05E4B82
:105870001B780BB10123ECE70023EAE7002121208C
:1058800019F070FB0021202019F06CFB002113207F
:1058900019F068FBCAE70121212019F063FB0121FF
:1058A000202019F05FFB0121132019F05BFB19F098
:1058B000ADFB4B4B186003E001234A4A13708BB9D0
:1058C00019F0A4FB464B1B68C01A632817D8FEF7D3
:1058D000A7FC0528F0D0444B1B780BB10123ECE763
:1058E0000023EAE70021212019F03CFB00212020C1
:1058F00019F038FB0021132019F034FB96E7002142
:10590000212019F02FFB0021202019F02BFB002172
:10591000132019F027FB19F079FB314B186003E0D5
:105920000123304A13708BB919F070FB2C4B1B68A4
:10593000C01A632817D8FEF773FC0528F0D02A4B4D
:105940001B780BB10123ECE70023EAE700212120BB
:1059500019F008FB0021202019F004FB002113207E
:1059600019F000FB62E70121212019F0FBFA012167
:10597000202019F0F7FA0121132019F0F3FA19F099
:1059800045FB174B186003E00123164A13708BB9CF
:1059900019F03CFB124B1B68C01A632817D8FEF79E
:1059A0003FFC0528F0D0104B1B780BB10123ECE72E
:1059B0000023EAE70021212019F0D4FA0021202059
:1059C00019F0D0FA0021132019F0CCFA2EE70021AB
:1059D000212019F0C7FA0021132019F0C3FA25E796
:1059E000CC060020FC060020EC06002030B591B06B
:1059F000A64CA749204617F0E6F92146A54816F01F
:105A00008FFF2146A44816F08BFFFDF74FF9A34BFB
:105A10001B7823B919F0FAFAA14B186008E0A14BE2
:105A20001888FCF751FCF5E7012300E00123ABB92E
:105A300019F0ECFA9A4B1B68C01A9B4B1B68053394
:105A4000984212D2FEF716F8FEF7EAFB0528EDD0D1
:105A5000964B1B78002BE7D10023E8E7944B0522F7
:105A60001A70FEF76BF911B030BDFDF71FF98B4BC3
:105A70001B78002B52D1FBF7A9FC8E4B59888E4A1C
:105A80001160DA888D4B1A6019F0C0FA844B1860E7
:105A90000125002D00F04981FEF7C2FB052842D008
:105AA000824B1C78002C3ED1FDF7E4FF19F0AEFAD2
:105AB0007B4B1B68C01A7C4B1B6805339842E8D9A6
:105AC000FDF7F4F8FBF7DAFD7A4B5B8840F2DB5226
:105AD000934240F28480774AD18840F2DB5291426F
