:020000040800F2
:100000000000022099820208E9820208E9820208BF
:10001000E9820208E9820208E98202080000000081
:10002000000000000000000000000000E98202085B
:10003000E982020800000000E98202080B5B020866
:10004000E9820208E9820208E982020815E701084C
:10005000E9820208E9820208F15D0208FB5D0208FC
:10006000055E02080F5E0208195E0208E9820208B6
:10007000E9820208E9820208E9820208E9820208AC
:10008000E9820208E9820208E9820208D1D7010860
:10009000B1D70108E9820208E9820208235E02085A
:1000A0001D4802083D470208314802085D47020822
:1000B000714702088547020899470208D5FA0008E7
:1000C000E5FA0008F5FA000805FB0008E9820208D5
:1000D000E9820208396E0208516E0208696E020850
:1000E000395E0208F1E60108BD970208454802089A
:1000F000E94702085948020809480208E98202084B
:10010000E9820208E9820208AD470208E982020892
:10011000816E0208996E0208C1470208D54702089D
:10012000E9820208E9820208E9820208E9820208FB
:10013000E9820208E9820208E9820208E1D701089F
:10014000C1D70108E9820208E9820208AD970208D6
:10015000E9820208E9820208E9820208B16E020817
:1001600015FB000825FB0008E9820208E982020865
:10017000E9820208E9820208E98202080000000020
:08018000E9820208E98202088D
:1001900010F8012B11F8013B012A28BF9A42F7D031
:1001A000D01A7047034613F8012B002AFBD1181A06
:1001B000013870470000000000000000000000004F
:1001C00001F0FF01102A2BDB10F0070F08D010F808
:1001D000013B013A8B422DD010F0070F42B3F6D10C
:1001E000F0B441EA012141EA014122F007047FF025
:1001F00000070023F0E80256083C85EA010586EA7C
:10020000010685FA47F5A3FA87F586FA47F6A5FAB7
:1002100087F68EB9EED1F0BC01F0FF0102F00702C3
:1002200032B110F8013B013A83EA010313B1F8D16E
:100230000020704701387047002D06BF354603384F
:10024000073815F0010F07D1013015F4807F02BF88
:10025000013015F4C03F0130F0BC0138704700BFD9
:1002600081F0004102E000BF83F0004330B54FEA67
:1002700041044FEA430594EA050F08BF90EA020FD4
:100280001FBF54EA000C55EA020C7FEA645C7FEA67
:10029000655C00F0E2804FEA5454D4EB5555B8BF8A
:1002A0006D420CDD2C4480EA020281EA030382EAFB
:1002B000000083EA010180EA020281EA0303362D8D
:1002C00088BF30BD11F0004F4FEA01314FF4801C60
:1002D0004CEA113102D0404261EB410113F0004F72
:1002E0004FEA03334CEA133302D0524263EB430329
:1002F00094EA050F00F0A780A4F10104D5F1200EC7
:100300000DDB02FA0EFC22FA05F2801841F1000121
:1003100003FA0EF2801843FA05F359410EE0A5F1F5
:1003200020050EF1200E012A03FA0EFC28BF4CF026
:10033000020C43FA05F3C01851EBE37101F00045DC
:1003400007D54FF0000EDCF1000C7EEB00006EEBE9
:100350000101B1F5801F1BD3B1F5001F0CD3490873
:100360005FEA30004FEA3C0C04F101044FEA4452CA
:1003700012F5800F80F09A80BCF1004F08BF5FEA51
:10038000500C50F1000041EB045141EA050130BD31
:100390005FEA4C0C404141EB0101013C28BFB1F543
:1003A000801FE9D291F0000F04BF01460020B1FA8E
:1003B00081F308BF2033A3F10B03B3F120020CDA61
:1003C0000C3208DD02F1140CC2F10C0201FA0CF03F
:1003D00021FA02F10CE002F11402D8BFC2F1200CA4
:1003E00001FA02F120FA0CFCDCBF41EA0C0190405A
:1003F000E41AA2BF01EB0451294330BD6FEA0404A3
:100400001F3C1CDA0C340EDC04F11404C4F120028D
:1004100020FA04F001FA02F340EA030021FA04F39F
:1004200045EA030130BDC4F10C04C4F1200220FAF6
:1004300002F001FA04F340EA0300294630BD21FA34
:1004400004F0294630BD94F0000F83F4801306BFFA
:1004500081F480110134013D4EE77FEA645C18BFEE
:100460007FEA655C29D094EA050F08BF90EA020F85
:1004700005D054EA000C04BF1946104630BD91EA7D
:10048000030F1EBF0021002030BD5FEA545C05D180
:100490004000494128BF41F0004130BD14F58004BF
:1004A0003CBF01F5801130BD01F0004545F0FE4133
:1004B00041F470014FF0000030BD7FEA645C1ABF68
:1004C000194610467FEA655C1CBF0B46024650EA9F
:1004D000013406BF52EA033591EA030F41F40021CB
:1004E00030BD00BF90F0000F04BF0021704730B551
:1004F0004FF4806404F132044FF000054FF0000126
:1005000050E700BF90F0000F04BF0021704730B5E6
:100510004FF4806404F1320410F0004548BF4042BB
:100520004FF000013EE700BF42004FEAE2014FEA10
:1005300031014FEA02701FBF12F07F4393F07F4FEB
:1005400081F06051704732F07F4208BF704793F0EE
:100550007F4F04BF41F40021704730B54FF4607401
:1005600001F0004521F000411CE700BF50EA010204
:1005700008BF704730B54FF000050AE050EA0102AD
:1005800008BF704730B511F0004502D5404261EB1D
:1005900041014FF4806404F132045FEA915C3FF45E
:1005A000D8AE4FF003025FEADC0C18BF03325FEAFB
:1005B000DC0C18BF033202EBDC02C2F1200300FAAC
:1005C00003FC20FA02F001FA03FE40EA0E0021FAD1
:1005D00002F11444BDE600BF70B54FF0FF0C4CF4BF
:1005E000E06C1CEA11541DBF1CEA135594EA0C0F71
:1005F00095EA0C0F00F0DEF82C4481EA030621EAAC
:100600004C5123EA4C5350EA013518BF52EA0335E6
:1006100041F4801143F4801338D0A0FB02CE4FF098
:100620000005E1FB02E506F00042E0FB03E54FF0C8
:100630000006E1FB03569CF0000F18BF4EF0010EC0
:10064000A4F1FF04B6F5007F64F5407404D25FEABC
:100650004E0E6D4146EB060642EAC62141EA55516F
:100660004FEAC52040EA5E504FEACE2EB4F1FD0CB1
:1006700088BFBCF5E06F1ED8BEF1004F08BF5FEA2F
:10068000500E50F1000041EB045170BD06F00046E1
:1006900046EA010140EA020081EA0301B4EB5C048E
:1006A000C2BFD4EB0C0541EA045170BD41F4801186
:1006B0004FF0000E013C00F3AB8014F1360FDEBFAB
:1006C000002001F0004170BDC4F10004203C35DA87
:1006D0000C341BDC04F11404C4F1200500FA05F30A
:1006E00020FA04F001FA05F240EA020001F00042AB
:1006F00021F0004110EBD37021FA04F642EB060121
:100700005EEA430E08BF20EAD37070BDC4F10C044A
:10071000C4F1200500FA04F320FA05F001FA04F20E
:1007200040EA020001F0004110EBD37041F10001FA
:100730005EEA430E08BF20EAD37070BDC4F1200505
:1007400000FA05F24EEA020E20FA04F301FA05F26D
:1007500043EA020321FA04F001F0004121FA04F215
:1007600020EA020000EBD3705EEA430E08BF20EAE5
:10077000D37070BD94F0000F0FD101F0004640001F
:1007800041EB010111F4801F08BF013CF7D041EAA1
:10079000060195F0000F18BF704703F000465200A5
:1007A00043EB030313F4801F08BF013DF7D043EA76
:1007B0000603704794EA0C0F0CEA135518BF95EA2C
:1007C0000C0F0CD050EA410618BF52EA4306D1D1B3
:1007D00081EA030101F000414FF0000070BD50EAD2
:1007E000410606BF1046194652EA430619D094EA5C
:1007F0000C0F02D150EA013613D195EA0C0F05D146
:1008000052EA03361CBF104619460AD181EA030199
:1008100001F0004141F0FE4141F470014FF0000051
:1008200070BD41F0FE4141F4780170BD70B54FF0EC
:10083000FF0C4CF4E06C1CEA11541DBF1CEA13556C
:1008400094EA0C0F95EA0C0F00F0A7F8A4EB05044E
:1008500081EA030E52EA03354FEA013100F0888045
:100860004FEA03334FF0805545EA131343EA12630E
:100870004FEA022245EA111545EA10654FEA0026C3
:100880000EF000419D4208BF964244F1FD0404F57C
:10089000407402D25B084FEA3202B61A65EB0305D8
:1008A0005B084FEA32024FF480104FF4002CB6EB95
:1008B000020E75EB030E22BFB61A754640EA0C0015
:1008C0005B084FEA3202B6EB020E75EB030E22BF55
:1008D000B61A754640EA5C005B084FEA3202B6EB96
:1008E000020E75EB030E22BFB61A754640EA9C0055
:1008F0005B084FEA3202B6EB020E75EB030E22BF25
:10090000B61A754640EADC0055EA060E18D04FEAE2
:10091000051545EA16754FEA06164FEAC30343EA82
:1009200052734FEAC2025FEA1C1CC0D111F4801F4F
:100930000BD141EA00014FF000004FF0004CB6E748
:1009400011F4801F04BF01430020B4F1FD0C88BFE7
:10095000BCF5E06F3FF6AFAEB5EB030C04BFB6EBF2
:10096000020C5FEA500C50F1000041EB045170BDE5
:100970000EF0004E4EEA113114EB5C04C2BFD4EB12
:100980000C0541EA045170BD41F480114FF0000E96
:10099000013C90E645EA060E8DE60CEA135594EA12
:1009A0000C0F08BF95EA0C0F3FF43BAF94EA0C0F15
:1009B0000AD150EA01347FF434AF95EA0C0F7FF48A
:1009C00025AF104619462CE795EA0C0F06D152EADE
:1009D00003353FF4FDAE1046194622E750EA4106C2
:1009E00018BF52EA43067FF4C5AE50EA41047FF4D3
:1009F0000DAF52EA43057FF4EBAE12E74FF0FF3C38
:100A000006E000BF4FF0010C02E000BF4FF0010C08
:100A10004DF804CD4FEA410C7FEA6C5C4FEA430C81
:100A200018BF7FEA6C5C1BD001B050EA410C0CBFD0
:100A300052EA430C91EA030F02BF90EA020F002032
:100A4000704710F1000F91EA030F58BF994208BF99
:100A500090422CBFD8176FEAE37040F00100704756
:100A60004FEA410C7FEA6C5C02D150EA013C07D1AD
:100A70004FEA430C7FEA6C5CD6D152EA033CD3D0F8
:100A80005DF8040B704700BF8446104662468C46F2
:100A90001946634600E000BF01B5FFF7B7FF002825
:100AA00048BF10F1000F01BD4DF808EDFFF7F4FF4E
:100AB0000CBF012000205DF808FB00BF4DF808EDD9
:100AC000FFF7EAFF34BF012000205DF808FB00BFFC
:100AD0004DF808EDFFF7E0FF94BF012000205DF81E
:100AE00008FB00BF4DF808EDFFF7CEFF94BF0120D3
:100AF00000205DF808FB00BF4DF808EDFFF7C4FFCC
:100B000034BF012000205DF808FB00BF4FEA41021E
:100B100012F5001215D211D56FF47873B3EB62524F
:100B200012D94FEAC12343F0004343EA505311F076
:100B3000004F23FA02F018BF404270474FF0000008
:100B4000704750EA013005D111F0004008BF6FF046
:100B5000004070474FF00000704700BF4A0011D2BC
:100B600012F5001211D20DD56FF47873B3EB625207
:100B70000ED44FEAC12343F0004343EA505323FA13
:100B800002F070474FF00000704750EA013002D188
:100B90004FF0FF3070474FF0000070474FEA4102BE
:100BA000B2F1E04324BFB3F5001CDCF1FE5C0DD9CB
:100BB00001F0004C4FEAC0024CEA5070B2F1004F15
:100BC00040EB830008BF20F00100704711F0804F18
:100BD00021D113F13872BCBF01F00040704741F4DD
:100BE00080114FEA5252C2F11802C2F1200C10FAE1
:100BF0000CF320FA02F018BF40F001004FEAC123C5
:100C00004FEAD32303FA0CFC40EA0C0023FA02F368
:100C10004FEA4303CCE77FEA625307D150EA01333E
:100C20001EBF4FF0FE4040F44000704701F000400E
:100C300040F0FE4040F40000704700BF7BB972B93D
:100C40000029BEBF00204FF0004106E008BF002889
:100C50001CBF6FF000414FF0FF3000F057B8ADF10E
:100C6000080C6DE904CE002909DB002B1ADB2BF000
:100C7000B3FADDF804E0DDE9022304B07047404236
:100C800061EB4101002B1BDB2BF0A6FADDF804E041
:100C9000DDE9022304B0404261EB4101524263EBC3
:100CA00043037047524263EB43032BF095FADDF8A0
:100CB00004E0DDE9022304B0404261EB41017047EA
:100CC000524263EB43032BF087FADDF804E0DDE9E1
:100CD000022304B0524263EB4303704753B94AB94D
:100CE000002908BF00281CBF4FF0FF314FF0FF3034
:100CF00000F00CB8ADF1080C6DE904CE2BF06CFAE5
:100D0000DDF804E0DDE9022304B07047704700BF5E
:100D100010B5054C237833B9044B13B10448AFF335
:100D200000800123237010BD300600200000000069
:100D30009CC4020808B5034B1BB103490348AFF339
:100D4000008008BD00000000340600209CC402089A
:100D5000014B0360704700BF48D8020808B503681C
:100D6000984708BD4068002801DA0020704708B5A0
:100D7000002128F019FF002008BD4068002801DA92
:100D80000020704708B5012128F00EFF002008BDA3
:100D900008B54068002803DA0A2028F0D5FF08BD0E
:100DA000002128F079FFF7E708B54068002803DA4A
:100DB0000A2028F0C9FF08BD012128F06DFFF7E7E0
:100DC00008B516F06AF908BD10B50446034B036078
:100DD00042F2C84123F018FE204610BD48D8020850
:100DE00030B589B004460D4600238DF81F300DF153
:100DF0001F01204616F066FB0346B0B99DF81F3070
:100E0000002BF4D06946204616F0B6FD034660B9C3
:100E10009DF81B3063B9BDF918302B60054620469C
:100E200016F047FB034600B92B46184609B030BD03
:100E300000232B606FF00505F1E700B583B069462C
:100E400015F0E8FFFF230099019A9A4208BF9942E2
:100E500003D1002003B05DF804FB4FF0FF30F9E749
:100E600010B50446836813B1032201469847204613
:100E700010BD000038B504460E4B03600E4B0360F6
:100E80000E4B0360426052250572C1667030C4F893
:100E9000D0014FF4B072002129F028FE84F8CC5123
:100EA000012384F8CD314FF4C873A4F8CE31204625
:100EB00038BD00BF24D8020834D80208A4D90208DB
:100EC00010B582B00446D0F8D01111F047FE08B139
:100ED00002B010BD0DF101030DF10202D4F8D011E2
:100EE000204611F079FD0028F2D10DF1030301AA8B
:100EF000D4F8D011204611F06BFDE9E7F8B50446AF
:100F00000D460D4B03600D4B03600D4B03604260BB
:100F100052270772C160103004F50056C6F8C004AD
:100F200042F2B042002129F0E1FD86F89874C6F83B
:100F300094542046F8BD00BF24D8020834D80208D3
:100F400048D8020838B504460D4603681B6A98471E
:100F50002368DB69204698472946204616F043FE61
:100F6000034610B163B1184638BD204615F083FF23
:100F700003460028F7D1204616F08FF80346F1E724
:100F8000204615F05CFF0346EDE770B504460026E9
:100F900046600160B02023F02FFD0546216823F054
:100FA000B5FC6560A660204670BD38B5044645684E
:100FB00035B1284623F024FBB021284623F024FD38
:100FC000204638BD10B5044601220021406823F0B8
:100FD00093FB606823F064FA10BD10B5044600214D
:100FE000417080F826104FF4004380221CF0D6FC9C
:100FF000204610BD08B5074B1B6813F0010F01D048
:10100000054808BD0448FFF7E8FF024B01221A60BB
:10101000F6E700BF805B0020845B0020F0B583B062
:1010200004460F46012807D024B94FF6FF739F42AC
:1010300000F0798203B0F0BD4FF6FF739942F3D10F
:10104000C44D42222946C448FFF758FF3E22294694
:10105000C248FFF753FF40222946C148FFF70AFF65
:101060003C222946BF48FFF705FF4B260096334632
:10107000C622C721BC4826F059F8009633462422E0
:101080002321BA4826F052F84FF4807300930122CE
:10109000B749B8481BF0C4FEB749B848FFF775FF19
:1010A000FFF7A8FFB64B18602946B6480EF042FD80
:1010B000B54DB649284626F0BAFCB54905F10C00F5
:1010C00026F0B5FCB34905F1180026F0B0FCB24992
:1010D00005F1240026F0ABFCB04905F1300026F004
:1010E000A6FCAF4905F13C0026F0A1FCAD4905F195
:1010F000480026F09CFCAC4905F1540026F097FC12
:10110000AA4905F1600026F092FCA94905F16C009E
:1011100026F08DFCA74905F1780026F088FCA64949
:1011200005F1840026F083FCA44905F1900026F027
:101130007EFCA34905F19C0026F079FCA14905F14C
:10114000A80026F074FCA04905F1B40026F06FFC5D
:101150009E4905F1C00026F06AFC9D4905F1CC00CE
:1011600026F065FC9B4905F1D80026F060FC9A4901
:1011700005F1E40026F05BFC984905F1F00026F04B
:1011800056FC974905F1FC0026F051FC954905F500
:10119000847026F04CFC944905F58A7026F047FCD3
:1011A000924905F5907026F042FC914905F596703C
:1011B00026F03DFC8F4905F59C7026F038FC8E49E1
:1011C00005F5A27026F033FC8C4D8D49284626F09B
:1011D0002EFC8C4905F10C0026F029FC8A4905F10A
:1011E000180026F024FC894905F1240026F01FFC94
:1011F000874905F1300026F01AFC864905F13C00CC
:1012000026F015FC844905F1480026F010FC8349BE
:1012100005F1540026F00BFC814905F1600026F031
:1012200006FC804905F16C0026F001FC7E4905F1C1
:10123000780026F0FCFB7D4905F1840026F0F7FBE1
:101240007B4905F1900026F0F2FB7A4905F19C00FC
:1012500026F0EDFB784905F1A80026F0E8FB774978
:1012600005F1B40026F0E3FB754905F1C00026F056
:10127000DEFB744905F1CC0026F0D9FB724905F17B
:10128000D80026F0D4FB714905F1E40026F0CFFB2D
:101290006F4905F1F00026F0CAFB6E4905F1FC002C
:1012A00026F0C5FB6C4905F5847026F0C0FB6B4940
:1012B00005F58A7026F0BBFB694905F5907026F0AC
:1012C000B6FB684905F5967026F0B1FB664D674997
:1012D000284626F0ACFB664905F10C0026F0A7FB7A
:1012E000644905F1180026F0A2FB634905F12400CA
:1012F00026F09DFB614905F1300026F098FB60491E
:1013000005F13C0026F093FB5E4905F1480026F00C
:101310008EFB5D4905F1540026F089FB5B4905F120
:10132000600026F084FB5A4905F16C0026F07FFB33
:10133000584905F1780026F07AFB574905F18400F9
:1013400026F075FB554905F1900026F070FB02264A
:101350009C35ABE0AC5B0020B8360020F0110020DB
:1013600018100020440E0020140D0020FC0B00205B
:1013700000640040CC0B002000000140B80B0020AE
:10138000B40B0020400B0020F0090020E4C4020848
:10139000F0C4020800C502080CC5020814C5020802
:1013A00020C502082CC502083CC502084CC502082D
:1013B0005CC502086CC5020880C502088CC502081D
:1013C000A0C50208ACC50208C4C50208DCC50208F5
:1013D000ECC5020800C6020810C6020820C60208B2
:1013E00034C6020840C602084CC6020864C6020899
:1013F00070C602087CC6020888C60208B808002029
:1014000098C602089CC60208A0C60208A4C6020824
:10141000A8C60208ACC60208B0C60208B4C60208D4
:10142000B8C60208BCC60208C0C60208C4C6020884
:10143000C8C60208CCC60208D0C60208D4C6020834
:10144000D8C60208DCC60208E0C60208E4C60208E4
:10145000E8C60208ECC60208F0C60208F4C6020894
:10146000F8C60208FCC60208F807002000C70208F8
:101470000CC702081CC702082CC7020840C7020894
:1014800054C7020864C7020874C7020888C7020864
:101490009CC70208ACC70208B8C70208C4C7020844
:1014A0003B49284626F0C3FA013E0C35002EF7DAF8
:1014B000384D3949284626F0BAFA384905F10C006A
:1014C00026F0B5FA364905F1180026F0B0FA35498C
:1014D00005F1240026F0ABFA334905F1300026F07F
:1014E000A6FA0A263C3505E02949284626F09FFA47
:1014F000013E0C35002EF7DA25492C4826F097FAE4
:1015000028F01EFC2A4B18602A4B18602A4B1860E2
:101510002A4B18602A4B18602A4B186028F010FCE0
:10152000294B186080E5214826F039FA274C194BE1
:101530009C4204D00C3C204626F031FAF7E7244CBC
:10154000244B9C4204D00C3C204626F028FAF7E7B6
:10155000214C224B9C4204D00C3C204626F01FFA22
:10156000F7E71F4C03E00C3C204626F018FA1D4B11
:101570009C42F8D11C48FFF718FD1C4B1C4A136015
:101580001C4A13601C4B1D4A13601D4A136051E531
:10159000F8D8020838070020CCC70208D8C70208CC
:1015A000E8C7020800C8020814C80208140700208F
:1015B0000407002000070020FC060020F806002099
:1015C000F4060020F006002054060020F807002052
:1015D000B8080020F8070020F0090020B808002013
:1015E000400B0020F0090020B80B0020A4D902080D
:1015F000440E00201810002048D80208F0110020E6
:10160000B8360020034B01221A70034B00221A70D7
:10161000704700BFAD060020AC0600200123024A3F
:101620001370024A13707047AD060020AC0600200C
:1016300000B583B00023154A13800193144A642136
:1016400011600421D1720AE0C3F1030208326A4436
:1016500012F8041C0E4A1A4411730133DBB2032B37
:10166000F2D900220A490B481BF0CAFD00230A4A9E
:1016700013700A4A02211170094A1370094B1A6843
:10168000094B1A6003B05DF804FB00BFEA060020B6
:101690004C000020CC0B0020AD060020AC06002042
:1016A000A1060020800600207C06002010B582B034
:1016B000124C2146124825F0D7FF2146114825F04B
:1016C000D3FF00230193104A652111600421D172D8
:1016D0000AE0C3F1030208326A4412F8041C0A4A01
:1016E0001A4411730133DBB2032BF2D900220649ED
:1016F00006481BF085FD02B010BD00BF24C80208DB
:10170000E87F0020D07E00204C000020CC0B002081
:10171000002301E00133DBB2044AD25C12B1824201
:10172000F8D101E0014AD054704700BF24070020DF
:1017300010B5574B1B78002B55D00A2028F0D6FA4D
:10174000544C20700C2028F0D1FA534B18701B20F9
:1017500028F0CCFA514B1870072028F0C7FA504BEC
:101760001870052028F0F0FA0A2028F0BFFA237834
:10177000984215D10C2028F0B9FA474B1B789842B3
:1017800016D11B2028F0B2FA444B1B78984218D18E
:10179000072028F0ABFA424B1B7898421AD110BDB3
:1017A000052028F0D1FA0A2028F0A0FA2070E1E7FD
:1017B000052028F0C9FA0C2028F098FA364B18704A
:1017C000DFE7052028F0C0FA1B2028F08FFA334B02
:1017D0001870DDE7052028F0B7FA072028F086FA10
:1017E0002F4B1870DBE71B2028F080FA294C207063
:1017F000072028F07BFA284B18700A2028F076FA88
:10180000264B18700C2028F071FA254B1870052013
:1018100028F09AFA1B2028F069FA237898421DD103
:10182000072028F063FA1C4B1B7898421ED10A202F
:1018300028F05CFA194B1B78984220D10C2028F034
:1018400055FA174B1B789842A9D0052028F07CFA4E
:101850000C2028F04BFA124B1870A0E7052028F056
:1018600073FA1B2028F042FA2070D9E7052028F0EF
:101870006BFA072028F03AFA074B1870D7E70520D3
:1018800028F062FA0A2028F031FA044B1870D5E7E4
:10189000AA060020B2060020B1060020B0060020F3
:1018A000AF06002038B5A6480EF0ACF9A54B18607D
:1018B00004E0A3480EF0A6F9A24B1860A14B1B68E8
:1018C000B3F5805FF5D8A04A1078B0FA80F25209DB
:1018D0009E4909788A4200F0CC809D4A1068C41A5B
:1018E000621EB2F5FA6F54D2024600283ADB4FEA84
:1018F000622EC2F3472C1A46002B36DB5512C2F378
:101900004722944534D05FFA8EFCC3EB4C2E914CA9
:10191000EDB2655DA0EB4C2214F80C0000FB02F266
:1019200005FB0E22002A31DB5212002A08DD0029B5
:1019300040F0958088480168891A0160844A1360E4
:10194000854B1B68002BC0F26B81844B1A88844B3B
:101950001B689B1A804909688B4202DA0A44804B53
:101960001A6038BD00F2FF12C1E703F2FF12C5E7AB
:101970005FFA8EFC774A12F80C2004FB02F2002A70
:1019800001DB5212D1E702F2FF12FAE702F2FF1274
:10199000CAE71D1AB5F5FA6F0FDD6E4C2578C3F551
:1019A0008052E47904FB02F205FB0022002A01DBED
:1019B0005212BAE702F2FF12FAE76A1EB2F5FA6FA4
:1019C00039D2024600281FDB4FEA622EC2F3472CB1
:1019D0001C46002B1BDB6212C4F34724A44519D01C
:1019E000D2B2A3EB42255B4C14F802C0C0EB4222FA
:1019F0005FFA8EFE14F80E0000FB02F20CFB0522CB
:101A0000002A15DB521290E700F2FF12DCE703F226
:101A1000FF14E0E75FFA8EFE4E4A12F80E2005FB37
:101A200002F2002A01DB52127FE702F2FF12FAE70C
:101A300002F2FF12E6E7B4F5FA6F0FDD454C2278AB
:101A4000C0F58050E47904FB00F002FB0302002A99
:101A500001DB521269E702F2FF12FAE70022002AC4
:101A60007FF76EAF3C48016811440160384A13604B
:101A700066E7012814BF0020012081423FF460AFD7
:101A8000334A1268A2EB030C0CF1FF30B0F5FA6F89
:101A900042D21046002A2ADB4512C0F347241846DA
:101AA000002B27DB4FEA602EC0F34720844224D06E
:101AB000E8B2C3EB40252B4C5FFA8EFE14F80EC043
:101AC000A2EB4022205C00FB02F20CFB0522002A64
:101AD0001FDB5212002A40F39980002940F09680C3
:101AE0001D48016811440160194A136028E702F299
:101AF000FF10D1E703F2FF10D4E7E8B2194A125CF5
:101B000002FB0CF2002A01DB5212E3E702F2FF12A1
:101B1000FAE702F2FF12DCE7981AB0F5FA6F23DD5C
:101B2000104C2578C3F58050E47904FB00F005FBE8
:101B30000202002A01DB5212CCE702F2FF12FAE79E
:101B4000400B002094060020AC060020AA060020CE
:101B5000900600202C0000208006002008000020B5
:101B60008406002024000020441EB4F5FA6F39D208
:101B70001446002A1FDB4FEA642EC4F3472C1D468F
:101B8000002B1BDB6C12C5F34725AC4519D0E0B226
:101B9000A3EB4025294C14F800C0C2EB40225FFAA9
:101BA0008EFE14F80E0000FB02F20CFB0522002A48
:101BB00015DB52128EE702F2FF14DCE703F2FF1589
:101BC000E0E75FFA8EFE1D4A12F80E2000FB02F2DB
:101BD000002A01DB52127DE702F2FF12FAE702F25D
:101BE000FF12E6E7BCF5FA6F0FDD14480478C2F582
:101BF0008052C07900FB02F204FB0322002A01DBC1
:101C0000521267E702F2FF12FAE70022002A3FF4BD
:101C100097AE0B480168891A01600A4A13608FE683
:101C2000094A126812B1D21A07490A6007490A68BC
:101C3000D21A0A60024B00221A6086E624000020B5
:101C400080060020900600207806002084060020F0
:101C5000154B1B78BBB1144B00221A70134B144A5E
:101C60001A60144B144A1A60144B154A1A60154B2B
:101C7000154A1A60154A164B1B6811685B1AA3F5C2
:101C8000487313607047084B01221A70074B0A4AC9
:101C90001A60084B064A1A60084B0B4A1A60094B37
:101CA000074A1A60704700BFAA0600207000002093
:101CB000B83600206C000020F011002068000020E1
:101CC0001810002064000020440E00208006002030
:101CD000840600202DE9F04FADF5077DAD4CAE49EF
:101CE000204625F00AFFAD4E2146304625F0B2FCD5
:101CF000AB4D2146284625F0ADFCAA49204625F0EB
:101D0000FCFE2146304625F0A5FC2146284625F05C
:101D1000A1FC4FF000088DF80F80C2464546C3462F
:101D2000CDF80080CDF80480C14604E104A99E48A6
:101D300015F0EEFE074628F003F89C4B1B68C01A0E
:101D40003C2800F2FF809DF82F302BB1072B03D0E9
:101D50000B2B01D00C2B02D1BDF92C50ADB2002FB2
:101D60005CD1914815F0A5FB58E00A25632D40F29F
:101D700093808F4F39462CA825F059FE0A22294618
:101D80002FA825F0DDFE2FA92CA825F08BFF0146FA
:101D9000824825F04CFC2FA825F001FE2CA825F048
:101DA000FEFD394632A825F042FE0A22294635A812
:101DB00025F0C6FE35A932A825F074FF0146784803
:101DC00025F035FC35A825F0EAFD32A825F0E7FD21
:101DD0000C2C00F091800134E4B20C2C00F29680BF
:101DE000744981F80190E31C8B7009F10303CB70F7
:101DF0000C716D4815F0ECF927F0A2FF6B4B1860E1
:101E000000238DF80F300DF10F01674815F05AFBD4
:101E10009DF80F30002BF6D0002887D0A5F2213393
:101E20009BB2B3F5C77F02D8A0440136F6B2002DAD
:101E30009BD0B5F57A7F99D35F4F394620A825F01E
:101E4000F6FD0A22294623A825F07AFE23A920A818
:101E500025F028FF0146514825F0E9FB23A825F08D
:101E60009EFD20A825F09BFD394626A825F0DFFD24
:101E70000A22294629A825F063FE29A926A825F0CB
:101E800011FF0146464825F0D2FB29A825F087FD21
:101E900026A825F084FD9BE7484F394638A825F051
:101EA000C6FD0A2229463BA825F04AFE3BA938A8D0
:101EB00025F0F8FE0146394825F0B9FB3BA825F08E
:101EC0006EFD38A825F06BFD39463EA825F0AFFD24
:101ED0000A22294641A825F033FE41A93EA825F053
:101EE000E1FE01462E4825F0A2FB41A825F057FD52
:101EF0003EA825F054FD6BE7314F3946274825F0C1
:101F0000B3FB3946264825F0AFFB64E74746042E6D
:101F10000DD9009B4B440093B7FBF6F7BA440BF185
:101F2000010B5FFA8BFB019B3344DBB2019309F198
:101F300001025FFA82F9B9F10C0F07D80024264696
:101F4000A0464AE7474642F20F75E0E7DDF8008019
:101F5000019EBBF1040F37D80E4C1249204625F0E4
:101F6000CCFD21460D4825F075FB21460C4825F097
:101F700071FB14481BF006FD4FF000088DF80F8030
:101F8000C2464546C346CDF80080CDF80480C14620
:101F900045E100BF1407002034C80208E87F002094
:101FA000D07E00205CC80208B8360020040700205C
:101FB000BCC802082C0E0020B8C80208C4C8020819
:101FC000CCC80208F87C0020B6FBFBF4B8FBFBF1A0
:101FD000BAFBF4F2C9B2A1EB5B06F6B2954F87F8F3
:101FE0003560C4F34704D2B2A518EDB287F8365075
:101FF00001EB5B01C8B287F83700131BDBB287F82F
:1020000038308D494E708D70C8700B718B4815F04B
:10201000DFF8A1E704A98A4815F07AFD074627F002
:102020008FFE884B1B68C01A3C2800F2FF809DF889
:102030002F302BB1072B03D00B2B01D00C2B02D14F
:10204000BDF92C50ADB2002F5CD17D4815F031FAAE
:1020500058E00A25632D40F293807B4F394650A803
:1020600025F0E5FC0A22294653A825F069FD53A96D
:1020700050A825F017FE0146744825F0D8FA53A859
:1020800025F08DFC50A825F08AFC394656A825F08D
:10209000CEFC0A22294659A825F052FD59A956A876
:1020A00025F000FE01466A4825F0C1FA59A825F03E
:1020B00076FC56A825F073FC0C2C00F091800134BE
:1020C000E4B20C2C00F296805B4981F80190E31C8D
:1020D0008B7009F10303CB700C71594815F078F837
:1020E00027F02EFE574B186000238DF80F300DF1AE
:1020F0000F01534815F0E6F99DF80F30002BF6D08C
:10210000002887D0A5F221339BB2B3F5C77F02D850
:10211000A0440136F6B2002D9BD0B5F57A7F99D355
:102120004C4F394644A825F082FC0A22294647A88C
:1021300025F006FD47A944A825F0B4FD0146434813
:1021400025F075FA47A825F02AFC44A825F027FCBD
:1021500039464AA825F06BFC0A2229464DA825F0ED
:10216000EFFC4DA94AA825F09DFD0146384825F011
:102170005EFA4DA825F013FC4AA825F010FC9BE759
:10218000354F39465CA825F052FC0A2229465FA843
:1021900025F0D6FC5FA95CA825F084FD01462B48FC
:1021A00025F045FA5FA825F0FAFB5CA825F0F7FBBF
:1021B000394662A825F03BFC0A22294665A825F08D
:1021C000BFFC65A962A825F06DFD0146204825F0F9
:1021D0002EFA65A825F0E3FB62A825F0E0FB6BE78B
:1021E0001E4F3946194825F03FFA3946184825F060
:1021F0003BFA64E74746042E0DD9009B4B440093FD
:10220000B7FBF6F7BA440BF1010B5FFA8BFB019BAE
:102210003344DBB2019309F101025FFA82F9B9F1AB
:102220000C0F1DD800242646A0464AE7474642F236
:102230000F75E0E7740B00202C0E0020B83600204C
:10224000F011002004070020BCC80208E87F00202D
:10225000D07E0020B8C80208C4C80208CCC8020852
:10226000DDF80080019EBBF1040F00F2C880DFF8AA
:102270001492764C4946204625F03FFC744F214687
:10228000384625F0E7F9734E2146304625F0E2F94D
:10229000714968A825F0CBFB704D0A2295F83510DE
:1022A0006BA825F03BFC6BA968A825F0FBFC6C49EA
:1022B00025F005FD80460A2295F837106EA825F016
:1022C0002DFC6EA9404625F0EDFC664925F0F7FC93
:1022D00080460A2295F8381071A825F01FFC71A9D4
:1022E000404625F0DFFC604925F0E9FC80460A22E3
:1022F00095F8361074A825F011FC74A9404625F015
:10230000D1FC0146204625F0D7FB74A825F047FBF9
:1023100071A825F044FB6EA825F041FB6BA825F0C1
:102320003EFB68A825F03BFB2146384625F092F994
:102330002146304625F08EF94C4977A825F077FBE9
:102340000A2295F839107AA825F0E8FB7AA977A82F
:1023500025F0A8FC464925F0B2FC80460A2295F8F3
:102360003B107DA825F0DAFB7DA9404625F09AFCBC
:10237000404925F0A4FC80460A2295F83C1080A82C
:1023800025F0CCFB80A9404625F08CFC3A4925F08D
:1023900096FC80460A2295F83A1083A825F0BEFBE9
:1023A00083A9404625F07EFC0146204625F084FBAB
:1023B00083A825F0F4FA80A825F0F1FA7DA825F08D
:1023C000EEFA7AA825F0EBFA77A825F0E8FA21468C
:1023D000384625F03FF92146304625F03BF949467D
:1023E000204625F08AFB2146384625F033F9214660
:1023F000304625F02FF90DF5077DBDE8F08FB6FBCF
:10240000FBF4B8FBFBF1BAFBF4F2C9B2A1EB5B063B
:10241000F6B2124F87F83960C4F34704D2B2A51858
:10242000EDB287F83A5001EB5B01C8B287F83B0088
:10243000131BDBB287F83C3010494E708D70C870AA
:102440000B710F4814F0C4FE11E700BF1407002001
:10245000E87F0020D07E0020D0C80208740B002046
:10246000E0C80208F0C8020800C9020810C9020842
:1024700020C9020830C9020840C902082C0E0020F9
:10248000F01100205CC80208F0B593B00446494D35
:102490004949284625F031FB484F2946384625F062
:1024A000D9F8474E2946304625F0D4F8454D2946FF
:1024B000684625F0BCFA1022217A03A825F02EFBED
:1024C00003A9684625F0EEFB0146384625F0C2F820
:1024D00003A825F064FA684625F061FA294606A8A3
:1024E00025F0A5FA1022217A09A825F017FB09A9E1
:1024F00006A825F0D7FB0146304625F0ABF809A821
:1025000025F04DFA06A825F04AFA23681B6A2046F2
:102510009847217A204610F06DFD10F0FF0522D07B
:1025200029490CA825F083FA0A2229460FA825F08C
:10253000F5FA0FA90CA825F0B5FB01461D4C204665
:1025400025F0BAFA0FA825F02AFA0CA825F027FAE8
:102550002146384625F07EF82146304625F07AF8A7
:10256000284613B0F0BD134E1849304625F0C5FA81
:102570003146124825F06EF83146114825F06AF8C8
:102580002046FEF79DFC0122D4F8D01120460DF024
:1025900043FC0F4B1B684FF47A7203FB02F2D4F832
:1025A000D01120460FF098F8D4F8D01120460EF044
:1025B0005BFCD5E71407002050C90208E87F002023
:1025C000D07E002074C9020888C90208A8C9020880
:1025D000000000202DE9F0419EB00446994D9A4933
:1025E000284625F08AFADFF874822946404625F00D
:1025F00031F8964E2946304625F02CF8257A52239C
:102600002372934F3946684625F011FA1022294665
:1026100003A825F095FA03A9684625F043FB014677
:10262000404625F017F803A825F0B9F9684625F0CB
:10263000B6F9394606A825F0FAF91022294609A864
:1026400025F07EFA09A906A825F02CFB01463046A4
:1026500025F000F809A825F0A2F906A825F09FF9B1
:1026600029462046FEF76EFC257210F0FF0523D0A8
:1026700078490CA825F0DBF90A2229460FA825F095
:102680004DFA0FA90CA825F00DFB01466D4C204614
:1026900025F012FA0FA825F082F90CA825F07FF991
:1026A0002146404624F0D6FF2146304624F0D2FF92
:1026B00028461EB0BDE8F081624E6749304625F0DD
:1026C0001CFA3146654824F0C5FF31465F4824F0C6
:1026D000C1FF237A622B0CD0602B5ED001212046F3
:1026E00014F0B2FE204614F0E4FE5D4B01221A7095
:1026F000DEE75C4A92F83A20002AEDD0102AEBD8A7
:10270000584991F83C00011D8A42E5DD554991F890
:102710003B60002EE0D0102EDED891F83970391DC4
:102720008E42D9DD504901230B704F708A70CE70F4
:102730000871204614F04CFDC5B24C49414825F0C3
:10274000DCF94DB93F4E3146444824F083FF314611
:102750003E4824F07FFFC1E7454912A825F067F9FC
:102760000A22294615A825F0D9F915A912A825F09D
:1027700099FA0146334E304625F09EF915A825F00A
:102780000EF912A825F00BF93146344824F062FF07
:1027900031462E4824F05EFFA0E7324B93F83630E6
:1027A000002B9BD0102B99D82E4A92F83820111D5F
:1027B0008B4293DD2B4991F8370000288ED01028EA
:1027C0008CD891F83560311D884287DD2649012576
:1027D0000D704E708B70C8700A71204614F0F8FCB2
:1027E000C5B22449174825F088F94DB9154E314630
:1027F0001A4824F02FFF3146144824F02BFF6DE7D0
:102800001D4918A825F013F90A2229461BA825F00E
:1028100085F91BA918A825F045FA0146094E30464E
:1028200025F04AF91BA825F0BAF818A825F0B7F842
:1028300031460A4824F00EFF3146044824F00AFFCE
:102840004CE700BF14070020C0C90208D07E00205A
:1028500074C9020888C90208A8C90208E87F0020D4
:1028600019000020740B00202C0E0020E4C902087F
:10287000FCC902081CCA020834CA020838B504465A
:102880000D464B6843600B7A0372632209310930AD
:1028900028F0CFF9EB6EE3664FF4B07205F17001EA
:1028A00004F1700028F0C5F9D5F8D031C4F8D03162
:1028B000204638BD10B50024072C06DC60021AF053
:1028C000AFFF012803D00134F6E74FF0FF34204674
:1028D00010BD08B5002140021AF0D6FF08BD08B5AA
:1028E000012140021AF0D0FF08BDF8B50646FFF7F7
:1028F000E1FF441C634204F0030403F0030358BFE8
:102900005C426700FFF7E5FFA402651C27F018FA98
:10291000002404E0315D60191AF070FF01343F2C8F
:10292000F8DD1AF085FF3846FFF7D9FF01211320A3
:1029300027F0B2F94FF47A7027F006FA002113203D
:1029400027F0AAF9F8BD00002DE9F0418CB08046CF
:10295000FFF7B0FFB0F1FF3F52D04002471C27F015
:10296000EFF9002446E027F0EBF90646E0191AF0EB
:1029700057FF08F804002349684625F058F80A2252
:10298000214603A825F0DCF803A9684625F08AF95A
:102990001D4925F094F9054627F0D2F90A22811B3A
:1029A00006A825F0F1F806A9284625F07BF9174975
:1029B00025F085F9054627F0C3F901460A2209A842
:1029C00025F0E2F809A9284625F06CF9104925F010
:1029D00076F901460F4824F03DFE09A824F0DFFFF8
:1029E00006A824F0DCFF03A824F0D9FF684624F0F1
:1029F000D6FF01343F2CB6D901200CB0BDE8F081E0
:102A00000020FAE754CA020868D4020874CA02080F
:102A100084CA0208E87F002010B51346022901DCB1
:102A20000C31531E214A82FB03424FEAE37ECEEB78
:102A3000621C642404FB1C3CCEEB621E013101EBE2
:102A4000410201EB82011A4A82FB0142C917C1EB24
:102A50006202024462446146BCF1000F22DB02EBD9
:102A6000A102124981FB0301DB17C3EBE1131A44F6
:102A7000A2EB4E020F4981FB02301044D317C3EB87
:102A8000A003C3EBC303D31A053381FB032119440D
:102A9000D817C0EBA100C0EBC000181AC0B20130BB
:102AA000C0B210BD0CF10301D9E700BF1F85EB5187
:102AB000676666669324499210F0030F16D10E4A9A
:102AC00082FB0032C317C3EB6213642202FB1303C1
:102AD00073B9094A82FB0032C317C3EBE2134FF408
:102AE000C87202FB13032BB100207047002070470F
:102AF00001207047012070471F85EB51172830D8FF
:102B000010B51C4600292EDB3B292EDC002A2EDBCB
:102B10003B2A2EDC029B013B0B2B2CD8002C2CDDFE
:102B20001F2C2CDC029B022B10D0029B0B2B94BF82
:102B300000200120C0B94FF42563029AD34013F05E
:102B400001031ED01E2C0FDC18460DE00398FFF782
:102B5000B3FF20B11D23A342E7DA002004E01C23C9
:102B6000F9E700207047002010BD0020FCE700209E
:102B7000FAE70020F8E70020F6E70020F4E700205D
:102B8000F2E70120F0E70000002303604360836068
:102B9000C3600B6823B10360024BC360024B8360C8
:102BA000704700BF5D0D00082F2D000830B587B0BD
:102BB0000446019180ED030A9FED117AC7EE007A79
:102BC000FCEEE77AC0ED047A01220021406821F092
:102BD00093FD01222169606821F060FD656801A90B
:102BE00002A8FFF7D1FF02A9284621F0ECFE02A8B7
:102BF000FEF736F9606821F053FC012007B030BDC4
:102C00000024744970B59EB0044600238DF8073047
:102C1000344B1888237A602B36D0334B01221A703C
:102C2000314B1B781BB9314A1278002A34D0012B62
:102C30002ED006462E4D2846FEF7C4F92D4B1B68B4
:102C40004FF4FA6202FB03F300EE103AB8EE400ACA
:102C50002949DFED2A7A87EE800A2846FFF7A6FF8A
:102C6000E8B10DF10701204614F02CFC10B99DF8D5
:102C7000073013BB1E4C606821F061FE606821F0D4
:102C8000EDFA30461EB070BD174B00221A70C7E730
:102C9000164B1B78002BCCD0124B5888C9E7184D27
:102CA0001849284624F029FF2946174824F0D2FC69
:102CB0002946164824F0CEFCD3E702A9204614F09A
:102CC00027FF10F0FF0005D0072803D00B2801D004
:102CD0000C2801D1BDF924600028CBD1204614F086
:102CE000E8FBC7E7D806002012070020AA0600204C
:102CF000B80B002000000020C534000800247449EF
:102D00001407002088CA0208E87F0020D07E002037
:102D1000022A05D8DFE802F002060800002303605B
:102D2000002070470160FBE70B680360F8E7012AA9
:102D300002D101600020704708B5FFF7E9FF0020CD
:102D400008BD08B54FF6FF710120FEF767F908BD11
:102D500008B54FF6FF710020FEF760F908BD0000CE
:102D600010B58CB0A44903A824F061FE26F0E8FF5A
:102D7000A24B1860A24824F008F930B9002403A837
:102D800024F00DFE20460CB010BD9D4824F00EFC32
:102D9000C1B203A824F054FF9A4B59689A4B1A68A1
:102DA0009A4BA3FB0232920C40F2D66303FB02F271
:102DB000944B5B685B1A9A42FADC914824F0F6FB6C
:102DC000C1B203A824F03CFF0BE08E4B5B685B1A9A
:102DD0009A42FADC8A4824F0E9FBC1B203A824F045
:102DE0002FFF8B4B197801EB41018A4B03EB8101DB
:102DF00003A824F0A6FFE8B9814824F0C6F8C8B1BA
:102E00000223012203A906A824F0C4FF06A903A8EF
:102E100024F06BFE06A824F0C2FD7A4B59687A4B69
:102E20001A687A4BA3FB0232920C40F2D66303FB82
:102E300002F2CAE70223002203A909A824F0AAFF8C
:102E4000734B197801EB4101724B03EB810109A827
:102E500024F077FF044609A824F0A1FD002C8ED0B1
:102E600026F06EFF0446059B072B22D826F068FF4C
:102E7000001B31281DD8634B5968634B1A68634B9C
:102E8000A3FB0232920C40F2D66303FB02F25D4BCD
:102E90005B685B1A9A42FADC594824F076F80028FD
:102EA000E1D0574824F082FBC1B203A824F0C8FE49
:102EB000D9E7059B082B01D0002460E708230222F4
:102EC00003A9684624F066FF534B1B787BB126F0BC
:102ED00037FF524B18605249684624F040FFB0B1AA
:102EE00000F07CFD684624F05AFD002447E70121EC
:102EF000132026F0D1FE4FF4FA7026F025FF0021B2
:102F0000132026F0C9FE444B01221A70DFE7454921
:102F1000684624F024FF00283FD14349684624F046
:102F20001EFF002840D14149684624F018FF0028C0
:102F30003ED13F49684624F012FF00283CD13D496C
:102F4000684624F00CFF00283AD13B49684624F03B
:102F500006FF002838D13949684624F000FFB8BB85
:102F60003749684624F0FBFEB0BB3649684624F07A
:102F7000F6FEA8BB3449684624F0F1FEB8BB3349DD
:102F8000684624F0ECFE0028ACD000F027FD26F0C7
:102F9000D7FE2F4B1860642402E000F01FFD0124CF
:102FA000684624F0FCFCEAE600F018FD0224F7E78E
:102FB00000F014FD0324F3E700F010FD0424EFE714
:102FC00000F00CFD0624EBE700F008FD0724E7E71E
:102FD00000F004FD1524E3E700F000FD1624DFE710
:102FE0001C4C0523237000F0F9FC2478D8E700F08E
:102FF000F5FC3724D4E700BFF8D80208FC0600200F
:10300000140D0020001000E0C803002083DE1B43E5
:1030100020070020B808002011070020F806002033
:10302000A0CA0208A8CA0208B0CA0208B8CA0208A0
:10303000C0CA0208C8CA0208D0CA0208D8CA020810
:10304000E0CA0208E8CA0208F0CA0208F8CA020880
:103050000807002034070020A94B1B78022B00F042
:103060001A822DE9F04782B00446A649A6481AF014
:103070003AF9A64B64221A600422DA72092C08DDA0
:10308000A34B1B88E21A092A01DD03F10A04642C10
:103090004EDC642C00F2E2819D4B1B88A34280F23F
:1030A000CB80E51A05EBD5756F10C5F347050026F3
:1030B000AE4280F0898001F0BFFA964BB3F800C0B1
:1030C000934B1A88944B1B8803FB02F1934880FBB7
:1030D00001E0C917C1EB60116144A21AB04606FBBA
:1030E00002F202FB03F3FAB2642000FB02F293FB4C
:1030F000F2F30B440193824A1178894A1278914283
:1031000001D05B420193019B4FF47A7202FB03F3FF
:1031100001930023032B0DD8C3F1030208326A4444
:1031200012F8041C794A1A4411730133DBB2F1E737
:103130006424B1E70022754973481AF061F8FEF77C
:10314000B1FB26F0FDFD774B1860F31EDBB2252B9B
:1031500002D94FF0230814E0734B1B7873B3C8EB0C
:103160000818724B83FB08234FEAE878A8EBA30802
:103170005FFA88F808F150085FFA88F801E0012347
:10318000B3B926F0DDFD674B1B68C31A434518D25F
:1031900001F052FA664B1B78192B03D001F006FEA2
:1031A0000528ECD0634B1B78002BE9D00123E7E71F
:1031B0005F4B05221A7001F0A3FB69E14FF0230871
:1031C000DFE70136F6B273E7F4B1524B1A88524B7F
:1031D0001B8804FB03F3514981FB0301DB17C3EB9D
:1031E000611313440193464B1A784D4B1B789A4256
:1031F00002D0019B5B420193019B4FF47A7202FB68
:1032000003F3019300230DE000230193EBE7C3F1E7
:10321000030208326A4412F8041C3C4A1A4411732F
:103220000133DBB2042BF2D900223849364819F0B9
:10323000E7FF374B1C8029E1A34240F3DC801D1BD4
:1032400005EBD5754FEA6508C5F3470500271E262F
:10325000AF4280F0988001F0EFF92E4BB3F800C038
:103260002B4B1A882C4B1B8803FB02F12B4880FB4D
:1032700001E0C917C1EB60116144121BB94607FB9D
:1032800002F202FB03F35FFA88FA642202FB0AF2FD
:1032900093FBF2F3CA1A0192194A1078204A127865
:1032A000904201D05B1A0193019B4FF47A7202FBAA
:1032B00003F3019300230AE0C3F1030208326A44D6
:1032C00012F8041C114A1A4411730133DBB2032BA8
:1032D000F2D900220D490C4819F092FFFEF7E2FAEC
:1032E00026F02EFD0F4B18600F4B1B7883B3C9EBF4
:1032F00009135B0093FBFAF3DBB21433DEB227E071
:10330000AC06002034000020CC0B00204C00002034
:10331000EA0600200C0000200E0000201F85EB5163
:10332000AA06002004070020AB0600206766666638
:103330003407002024070020574B1B78BBB9574B9C
:103340001B78192B19D0564B1B78022B00F0A0804C
:1033500026F0F6FC534B1B68C01AB04210D24F4BFC
:103360001B78192BE8D001F021FD0528E4D14B4B47
:1033700005221A7001F0C4FA8AE0FFF7F1FCE2E7D7
:103380000137FFB264E7F4B1474B1A88474B1B88FB
:1033900004FB03F3464981FB0301DB17C3EB611315
:1033A000134401933E4B1A78424B1B789A4202D049
:1033B000019B5B420193019B4FF47A7202FB03F382
:1033C000019300230DE000230193EBE7C3F1030217
:1033D00008326A4412F8041C374A1A441173013344
:1033E000DBB2032BF2D900223349344819F008FF2D
:1033F000334B1C804AE0A34248D12B4B1A882B4BFD
:103400001B8804FB03F32A4981FB0301DB17C3EB91
:10341000611313440193224A1178264A127891428B
:1034200001D05B420193019B4FF47A7202FB03F3DC
:10343000019300230AE0C3F1030208326A4412F840
:10344000041C1D4A1A4411730133DBB2032BF2D959
:1034500000221949194819F0D3FE17E000230193FF
:103460000AE0C3F1030208326A4412F8041C124A4B
:103470001A4411730133DBB2032BF2D900220E4937
:103480000E4819F0BDFE0E4B00221A80FEF70AFA14
:1034900002B0BDE8F0877047240700203407002001
:1034A000AC060020040700200C0000200E000020C5
:1034B0001F85EB51AA0600204C000020CC0B0020F9
:1034C000EA06002070B5ADF59A4D94B0A8490DF507
:1034D0009A40383024F0ABFAA64D0A2229780DF52F
:1034E0009A40443024F01AFB0DF59A4144310DF511
:1034F0009A40383024F0D6FB01469F4824F0AAF8C1
:103500000DF59A40443024F04AFA0DF59A403830CF
:1035100024F045FA994C422221460DF521503030D5
:10352000FDF7ECFC3E222146EAA8FDF7E7FC40222D
:10353000214675A8FDF79EFC3C2221466846FDF712
:1035400099FC2C78032C67D8DFE814F021009A004E
:1035500009016601894E30460BF020FD00213046FE
:103560000BF05AFF322D28DD854E8649304624F077
:10357000C4FA3146804824F06DF83146824824F080
:1035800069F80A2026F0E0FB1CF070F815E0002531
:10359000012414B30021422026F07EFB0A2026F0ED
:1035A000D3FB0DF52153303360221A721846FFF712
:1035B00011F804460135032DCCDC744B186840002B
:1035C00026F0C2FB032DE4DC714B1B78002BE0D00E
:1035D000704B1888FFF740FDDBE76F4C0DF5355356
:1035E0001033A3F59C635A6862601A7A2272DB6812
:1035F000E36042F2B0420DF5225104F1100027F0D1
:1036000018FB04F500540DF53553103303F5D95369
:10361000D3F8C034C4F8C034604C606821F08FF92E
:10362000606820F01BFE6A465D4B136075AA13604C
:10363000EAAB5C4A1A600DF5215330331A600DF580
:103640009A4D14B070BD4D4E30460BF0A7FC0021D2
:1036500030460BF0E1FE142D25DD494E4949304638
:1036600024F04BFA3146444823F0F4FF31464648F3
:1036700023F0F0FF0A2026F067FB1BF0F7FF12E0B3
:10368000002504B300213E2026F006FB0A2026F088
:103690005BFB62238DF8B033EAA8FEF79BFF04467C
:1036A0000135032DCFDC394B1868400026F04CFB68
:1036B000032DE6DC364B1B78002BE2D0354B188807
:1036C000FFF7CAFCDDE7384CEAAD6B6863602B7A24
:1036D0002372EB68E36042F2B042EEA904F11000FD
:1036E00027F0A7FA04F5005405F50055D5F8C034C5
:1036F000C4F8C03490E7254B18680A3026F024FB44
:1037000084B30021402026F0C7FA0A2026F01CFBD3
:1037100064238DF8DC3175A8FEF7B6FE044601354A
:10372000032DE8DD154E30460BF038FC0021304605
:103730000BF072FE142DDEDD114E1249304624F0DE
:10374000DCF931460C4823F085FF31460E4823F062
:1037500081FF0A2026F0F8FA1BF088FFCBE700254E
:103760000124CDE775A91148FFF788F854E700BF99
:1037700000CB020812070020E87F0020AC5B00208D
:103780001407002024CB0208D07E00200000002077
:10379000AD060020EA060020B8360020B80B002055
:1037A000A4D9020848D80208F011002018100020FF
:1037B0001D4B18680A3026F0C7FA84B300213C205C
:1037C00026F06AFA0A2026F0BFFA66238DF8083040
:1037D0006846FEF759FE04460135032DE8DD134E19
:1037E00030460BF0DBFB002130460BF015FE142DAC
:1037F000DEDD0F4E0F49304624F07FF931460E488A
:1038000023F028FF31460D4823F024FF0A2026F03C
:103810009BFA1BF02BFFCBE700250124CDE769467F
:103820000748FFF72BF8F7E600000020AC5B00200C
:103830001407002024CB0208E87F0020D07E00205F
:10384000440E0020F0B589B00446574B9F88037A98
:10385000642B69D0554B03221A70544B1B78022BF2
:1038600066D0032B6BD0524D2846FDF7ABFB514B76
:103870001B684FF4FA6202FB03F300EE103AB8EE55
:10388000400A4D49DFED4D7A87EE800A2846FFF762
:103890008DF9002858D001AAD4F8D01120460DF097
:1038A000F3FCBDF80C50049EC6F38F160022D4F82A
:1038B000D01120460CF0FDFF9DF81C30032B51D099
:1038C0003B4C606821F03BF8606820F0C7FC9DF835
:1038D0001C3043B93C2E06D9B5F5487F03D940F2D8
:1038E000DC5295424DD9012B3FD03BB9962E05D9DC
:1038F000B5F5C87F02D9B5F5487F42D93BB9B6F5D1
:103900002F7F04D9282D02D9B5F5C87F39D923B91D
:10391000B6F5FA6F01D9282D2FD983B3B5F5966F77
:1039200040D940F2DC552CE0204B02221A7094E77B
:10393000234A1278002A94D11B4BDF8893E7204B4F
:103940001B78002B8FD0F7E71E4D1F49284624F027
:10395000D4F829461D4823F07DFE29461C4823F053
:1039600079FE98E7FFF7AEFDAAE7B5F5966FBCD9EB
:1039700040F2DC52954204D9B7E7282501E040F235
:10398000DC55144B1B7853B1134B1B881E2B06D9E7
:10399000B7F5966F03D9B5F5C87F00D23D462846E6
:1039A00009B0F0BD3D46ECE7D80600201207002024
:1039B000B80B002000000020C53400080024744922
:1039C000AA0600201407002088CA0208E87F002009
:1039D000D07E0020AD060020EA0600202DE9F0414F
:1039E000ADF5447DA34B197801EB4101A24B03EBEC
:1039F00081011CA824F06FF8A0491CA824F05FF9ED
:103A00009F4B197824F06DF9014609A824F063F85A
:103A10001CA823F0C4FF9B4B1B786433DCB29A4B89
:103A20001D78002D40F08385984B1B781E2B00F2EB
:103A3000DD85DFE813F01F0065008400A300C200ED
:103A4000E10000014501DB05DB05DB0564018301C5
:103A5000A201CA01E8011F022D03DB05B703DB0544
:103A6000F0030E042C04DB054A046804DB05DB05C7
:103A70009104170509A91FA824F02DF884491FA84F
:103A800024F01DF9834B197824F02BF9824924F096
:103A900016F9824F397824F024F9814E314624F00A
:103AA0000EF901467F4D284623F0C1FD1FA823F0E3
:103AB00076FF704B197801EB41016F4B03EB8101ED
:103AC00022A824F008F8784922A824F0F8F804463F
:103AD0000A22397825A824F021F825A9204624F0C7
:103AE000E1F8314624F0EBF80146284623F09FFD2B
:103AF00025A823F054FF22A823F051FF00F076BD43
:103B000009A928A823F0E7FF684928A824F0D7F8D6
:103B1000604B197824F0E5F85F4924F0D0F85F4B4A
:103B2000197824F0DEF85E4924F0C9F801465D48B2
:103B300023F07DFD28A823F032FF00F057BD09A92E
:103B40002BA823F0C8FF5A492BA824F0B8F8514BF2
:103B5000197824F0C6F8504924F0B1F84F4B197881
:103B600024F0BFF84E4924F0AAF801464D4823F04E
:103B70005EFD2BA823F013FF00F038BD09A92EA885
:103B800023F0A9FF4B492EA824F099F8414B19784E
:103B900024F0A7F8404924F092F8404B197824F01B
:103BA000A0F83F4924F08BF801463E4823F03FFD42
:103BB0002EA823F0F4FE00F019BD09A931A823F0C6
:103BC0008AFF3D4931A824F07AF8324B197824F065
:103BD00088F8314924F073F8304B197824F081F8D3
:103BE0002F4924F06CF801462E4823F020FD31A81F
:103BF00023F0D5FE00F0FABC09A934A823F06BFF2E
:103C0000234934A824F05BF8224B197824F069F892
:103C1000214924F054F8214B197824F062F8204906
:103C200024F04DF801461F4823F001FD34A823F08D
:103C3000B6FE00F0DBBC09A937A823F04CFF1F49F2
:103C400037A824F03CF8134B197824F04AF81249AD
:103C500024F035F8114B197824F043F8104924F07A
:103C60002EF801460F4823F0E2FC37A823F097FE18
:103C700000F0BCBC20070020B808002044CB02089C
:103C8000A6060020A00600202407002034070020FC
:103C900048CB0208A4060020C8D70208AE060020C0
:103CA0004CCB0208140D002050CB020854CB020864
:103CB00058CB02085CCB020860CB020864CB020838
:103CC00009A93AA823F007FF5E493AA823F0F7FFB5
:103CD0005D4B197824F005F85C4923F0F0FF5C4B4C
:103CE000197823F0FEFF5B4923F0E9FF01465A48AB
:103CF00023F09DFC3AA823F052FE00F077BC09A9FE
:103D00003DA823F0E8FE55493DA823F0D8FF4E4BCF
:103D1000197823F0E6FF4D4923F0D1FF4C4B197879
:103D200023F0DFFF4B4923F0CAFF01464A4823F046
:103D30007EFC3DA823F033FE00F058BC09A940A842
:103D400023F0C9FE464940A823F0B9FF3E4B19783D
:103D500023F0C7FF3D4923F0B2FF3D4B197823F014
:103D6000C0FF3C4923F0ABFF01463B4823F05FFC1A
:103D700040A823F014FE00F039BC3A4B197801EB4F
:103D80004101394B03EB810143A823F0A4FE3749DD
:103D900043A823F094FF04460A222D4B197846A825
:103DA00023F0BCFE46A9204623F07CFF294923F0DE
:103DB00086FF0146284823F03AFC46A823F0EFFD91
:103DC00043A823F0ECFD00F011BC09A949A823F099
:103DD00082FE274949A823F072FF1B4B197823F074
:103DE00080FF1A4923F06BFF194B197823F079FFF4
:103DF000184923F064FF0146174823F018FC49A82E
:103E000023F0CDFDF2E309A94CA823F064FE184984
:103E10004CA823F054FF0C4B197823F062FF0B4998
:103E200023F04DFF0A4B197823F05BFF094923F07B
:103E300046FF0146084823F0FAFB4CA823F0AFFDEB
:103E4000D4E300BF68CB0208A4060020C8D702084C
:103E5000AE0600204CCB0208140D00206CCB0208EB
:103E600070CB020820070020B808002050CB0208C1
:103E700074CB0208AF4F397801EB4101AE4E06EB2F
:103E800081014FA823F027FEAC494FA823F017FF6C
:103E9000AB4B197823F025FF05460A22A94B198858
:103EA00052A823F04DFE52A9284623F0FBFEA64D52
:103EB000294623F004FFA54B198823F01DFF29464E
:103EC00023F0FDFEA24B197823F00BFF294623F0C7
:103ED000F6FE05460A229F4B198855A823F030FEAE
:103EE00055A9284623F0DEFE9B4923F0E8FE014653
:103EF0009A4823F09CFB55A823F051FD52A823F0CB
:103F00004EFD4FA823F04BFD142025F01DFF3978FE
:103F100001EB410106EB810158A823F0DCFD90493B
:103F200058A823F0CCFE014609A823F0C5FD58A8E7
:103F300023F035FD092C74D9632C00F28A8089495D
:103F400061A823F074FD0A22214664A823F0E6FD4F
:103F500064A961A823F0A6FE014609A823F05BFE30
:103F600064A823F01CFD61A823F019FD09A96AA823
:103F700023F0B1FD78496AA823F0A1FE01467748F5
:103F800023F055FB6AA823F00AFD142025F0DCFE7F
:103F9000684B197801EB4101674B03EB81016DA878
:103FA00023F099FD70496DA823F089FE014609A808
:103FB00023F082FD6DA823F0F2FC6C4B1B6842F2EB
:103FC0000F72934252DC674970A823F030FD674BB3
:103FD0001B68674981FB0321DB170A22C3EBA11190
:103FE00073A823F0ADFD73A970A823F05BFE014612
:103FF00009A823F010FE73A823F0D1FC70A823F0C9
:10400000CEFC09A979A823F066FD534979A823F0CD
:1040100056FE0146514823F00AFB79A823F0BFFC65
:10402000E4E254495BA823F002FD0A2221465EA87F
:1040300023F074FD5EA95BA823F034FE014609A8B5
:1040400023F0E9FD5EA823F0AAFC5BA823F0A7FCFF
:104050008CE70A22214667A823F060FD67A909A81A
:1040600023F0D9FD67A823F09AFC7FE7404981FB44
:104070000321DB170A22C3EBA11176A823F060FD10
:1040800076A909A823F0C7FD76A823F088FCB8E735
:10409000FDF74EFB384B1868FEF7B4FD374C208017
:1040A000374B1868FEF7AEFD6080364B1868FFF797
:1040B000C9FBA080344B1868FFF7C4FBE0801D4BA0
:1040C000197801EB41011C4B03EB81017CA823F023
:1040D00002FD2E497CA823F0F2FD014609A823F039
:1040E000EBFC7CA823F05BFC099D26886788B4F86C
:1040F0000480E48826480BF085FD264B1B78079347
:10410000254B1B780693254B1B780593244B1B7876
:10411000049303900294CDF80480009733462A4616
:1041200040210CA826F070FB0CA90C4823F086FA5D
:104130005CE200BF20070020B808002078CB02080E
:10414000AA0600200E000020C8D702080A0000209E
:1041500018000020080000204CCB0208140D00209D
:104160007CCB020884CB020888CB02081000002018
:10417000D34D621080CB02086C000020D8060020CE
:104180007000002064000020680000208CCB020832
:10419000400B0020AF060020B0060020B106002032
:1041A000B20600209A4B197801EB4101994B03EBC1
:1041B00081017FA823F08FFC97497FA823F07FFD22
:1041C000014609A823F078FC7FA823F0E8FB09E06A
:1041D00092490B88924A505D0122824013430B8022
:1041E0000135EDB20F2DF3D909A982A823F073FC94
:1041F0008C4982A823F063FD884B198823F07CFD4D
:10420000894923F05CFD0146884823F010FA82A812
:1042100023F0C5FBEAE109A985A823F05CFC8449E9
:1042200085A823F04CFD834B197823F05AFD824971
:1042300023F045FD814B197823F053FD804923F08D
:104240003EFD0146794823F0F2F985A823F0A7FB4B
:10425000CCE109A988A823F03EFC7A4988A823F07C
:104260002EFD744B197823F03CFD734923F027FD94
:10427000724B197823F035FD714923F020FD01467A
:104280006A4823F0D4F988A823F089FBAEE109A994
:104290008BA823F020FC6C498BA823F010FD654B04
:1042A000197823F01EFD644923F009FD634B19784A
:1042B00023F017FD624923F002FD01465B4823F01D
:1042C000B6F98BA823F06BFB90E109A98EA823F027
:1042D00002FC5E498EA823F0F2FC564B197823F0BD
:1042E00000FD554923F0EBFC544B197823F0F9FC01
:1042F000534923F0E4FC01464C4823F098F98EA87A
:1043000023F04DFB72E1424B197801EB4101414B27
:1043100003EB810191A823F0DEFB4D4991A823F026
:10432000CEFC014609A823F0C7FB91A823F037FB78
:1043300009A994A823F0CFFB464B197894A823F041
:10434000DBFC3F4923F0BBFC0146384823F06FF902
:1043500094A823F024FB49E12D4B197801EB41018E
:104360002C4B03EB810197A823F0B5FB3A4997A8A2
:1043700023F0A5FC014609A823F09EFB97A823F093
:104380000EFB364B1B6842F20F7293422DDC25491F
:104390009AA823F04CFB314B1B68314981FB032168
:1043A000DB170A22C3EBA1119DA823F0C9FB9DA92D
:1043B0009AA823F077FC014609A823F02CFC9DA8BD
:1043C00023F0EDFA9AA823F0EAFA09A9A3A823F0AA
:1043D00082FB1B49A3A823F072FC0146134823F07B
:1043E00026F9A3A823F0DBFA00E11D4981FB032194
:1043F000DB170A22C3EBA111A0A823F0A1FBA0A9FF
:1044000009A823F008FCA0A823F0C9FADDE700BF43
:1044100020070020B8080020B4CB0208E8060020DE
:104420002407002084CB0208B8CB0208140D00201A
:10443000BCCB0208A4060020C8D70208AE060020A4
:104440004CCB0208C0CB0208C4CB0208C8CB020880
:10445000CCCB02086806002088CB020810000020A0
:10446000D34D6210654B197801EB4101644B03EBAE
:104470008101A6A823F02FFB6249A6A823F01FFC08
:10448000014609A823F018FBA6A823F088FA082CF7
:1044900028D9622C3ED85C49AFA823F0C8FA0A227A
:1044A0002146B2A823F03AFBB2A9AFA823F0FAFB49
:1044B000014609A823F0AFFBB2A823F070FAAFA819
:1044C00023F06DFA09A9B8A823F005FB4F49B8A855
:1044D00023F0F5FB01464E4823F0A9F8B8A823F0D5
:1044E0005EFA83E04B49A9A823F0A1FA0A222146EB
:1044F000ACA823F013FBACA9A9A823F0D3FB014679
:1045000009A823F088FBACA823F049FAA9A823F056
:1045100046FAD7E70A222146B5A823F0FFFAB5A943
:1045200009A823F078FBB5A823F039FACAE709A94E
:10453000BBA823F0D0FA3849BBA823F0C0FB374B07
:10454000197823F0CEFB364923F0B9FB354B1978A7
:1045500023F0C7FB2D4923F0B2FB01462C4823F082
:1045600066F8BBA823F01BFA322025F0EDFB234BA5
:10457000197801EB4101224B03EB8101BEA823F026
:10458000AAFA2949BEA823F09AFB014609A823F0FC
:1045900093FABEA823F003FA00230BE02348028815
:1045A000234911F803C0012101FA0CF10A430280EA
:1045B0000133DBB20F2BF1D91C4C238843F00103EC
:1045C000238009A9C1A823F086FA0F49C1A823F0C6
:1045D00076FB218823F090FB164923F070FB0146FF
:1045E0000B4823F024F8C1A823F0D9F909A823F037
:1045F000D6F90DF5447DBDE8F08100BF200700200D
:10460000B80800207CCB020884CB02084CCB0208FF
:10461000140D002080CB0208D0CB0208A406002095
:10462000C8D70208AE060020B4CB0208E806002076
:1046300024070020B8CB020830B599B025F080FBE4
:10464000984B1B68C01A984B1B68984201D819B048
:1046500030BD964C2378013323709549954818F066
:1046600042FE23780A2B0BD05A1E0B2A00F2B1808F
:10467000DFE802F07481AFAF74AFAFAFAFAFAF811F
:104680008D4A1278192AEFD0FDF70CF98B4968464C
:1046900023F0CDF98A4D0A22296803A823F050FAA5
:1046A00003A9684623F0FEFA0146864C204623F013
:1046B00003FA03A823F073F9684623F070F9214642
:1046C000814822F0C7FF2146804822F0C3FF2A68B4
:1046D0007F4B1968531A002BB8BF5B4242B97D4B20
:1046E00018887D4B1B681B1A5B1A002BB8BF5B42F6
:1046F0007A49097881B17A49098869B1092B0BDCBB
:10470000784B1B781BB1774B01221A7011E025F012
:1047100017FB754B1860F6E76D4B1A60714B002163
:10472000197032B96B4B1A886B4B1B689B1A684A1D
:1047300013606C4B1B78CBB125F002FB6A4B1B68F6
:10474000C01A40F2DC53984210D900F0D9F85A4B05
:1047500005221A700A20FCF7DBFF78E701212020F0
:1047600025F09AFA0121222025F096FA25F0E8FAA0
:104770004C4B18606BE7504A1278192A29D0574BD6
:104780001B780BB3594906A823F051F90A22544B60
:10479000198809A823F0D4F909A906A823F082FAF8
:1047A0000146484823F088F909A823F0F8F806A83C
:1047B00023F0F5F8434C2146434822F04BFF2146B5
:1047C000424822F047FFD1E749493E4823F095F996
:1047D000F0E7032B0FD0072B0DD0042B17D0082B9D
:1047E0004ED00B2B57D0132B55D0142BBED12F4BA3
:1047F00000221A70BAE70021202025F04DFA00218E
:10480000222025F049FA3B4819F0BCF8AEE72A4AC5
:104810001278192AE3D0384B1B68002BA6D0374DED
:1048200029460CA823F003F9334C0A2221680FA86B
:1048300023F086F90FA90CA823F034FA0146224888
:1048400022F008FF0FA823F0AAF80CA823F0A7F87D
:10485000294612A823F0EBF80A22216815A823F0B4
:104860006FF915A912A823F01DFA0146174822F086
:10487000F1FE15A823F093F812A823F090F875E73D
:104880000D4A1478192CACD0154610231370FFF77D
:10489000A5F82C706AE7084A1278192AA5D0FFF704
:1048A0009DF863E700070020140000201307002094
:1048B00034000020CC0B002034070020D4CB0208A9
:1048C0008006002014070020E87F0020D07E002012
:1048D0007C0600200800002084060020AD06002091
:1048E000EA060020A106002050060020E0CB0208C6
:1048F000ECCB0208F87C00209806002000CC0208CF
:10490000864B1B78022B00F00781F0B58FB08449ED
:10491000844818F0E8FC844D294602A823F087F863
:10492000824C0A22218805A823F00AF905A902A8C9
:1049300023F0B8F901467E4822F08CFE05A823F04A
:104940002EF802A823F02BF8294608A823F06FF8C8
:104950000A2221880BA823F0F3F80BA908A823F05A
:10496000A1F90146734822F075FE0BA823F017F851
:1049700008A823F014F8704B64221A600422DA723B
:104980002688012E5FD9F7B2C6F34606344623E0E7
:10499000C3F1030238326A4412F8341C664A1A44DE
:1049A00011730133DBB2032BF2D9002262495D4857
:1049B00018F026FC614B1B78162B32D0072B30D019
:1049C000152F3CD905EB8500800090FBF6F00A30EE
:1049D00025F0BAF9013CE4B2002C34D0FFF72CFEEC
:1049E000574B1B88514A12885649098801FB02F22D
:1049F000254604FB02F2642106FB01F192FBF1F271
:104A0000134401934FF47A7202FB03F30193434A78
:104A100011784D4A1278914201D05B4201930023F4
:104A2000C1E74A4B1B78002BCAD0494AD38864336C
:104A300052889342C4DA0A2025F086F9CAE7322068
:104A400025F082F9C6E7FCF72DFF002301930AE069
:104A5000C3F1030238326A4412F8341C364A1A444D
:104A600011730133DBB2032BF2D9002232492D48F6
:104A700018F0C6FB314B1B78162B03D0072B01D047
:104A8000002433E0314B1C7884B3314AD38864333B
:104A90005288934218DB002428E0FFF7CDFD25F073
:104AA0004FF92C4B1B68C01A6328F6D90022224903
:104AB0001C4818F0A5FB0134E4B2092C1CD825F0E1
:104AC0003FF9244B1860EAE70024F6E7FFF7B4FD4E
:104AD00025F036F91F4B1B68C01A6328F6D900224F
:104AE0001549104818F08CFB0134E4B224B925F0C4
:104AF00027F9184B1860EBE700230C4A1380164A7D
:104B00001370064A02211170144A1370144B1A686C
:104B1000144B1A600FB0F0BD704700BFAC06002008
:104B200034000020CC0B00200CCC0208EA06002048
:104B3000E87F0020D07E00204C00002034070020B9
:104B40000C0000200E000020AA060020AB0600206A
:104B5000D806002004070020AD060020A106002092
:104B6000800600207C06002008B50B4B1B787BB12B
:104B7000052B0DD0094B1B785BB1FFF7C1FE064B2F
:104B800005221A700C20FCF7C3FD054B00221A8089
:104B900008BDFCF74DFDF2E734070020AB0600200E
:104BA000EA060020F0B589B0734E744C31462046B9
:104BB00022F05AFD724D2946204622F055FD714CD7
:104BC0003146204622F050FD2946204622F04CFD79
:104BD00025F0B6F8054625F0B3F86FF031030193E0
:104BE000694B0193694B65221A600422DA72002333
:104BF000032B0BD8C3F1030220326A4412F81C1CA9
:104C0000624A1A4411730133DBB2F1E7082025F040
:104C10006DF8002844D100273E46082025F066F8AC
:104C2000002848D000F0C2F805283FD0584B1B7828
:104C3000002B3BD125F084F8401B41F28833984289
:104C400039D80A2025F080F8524C00224F492046DE
:104C500018F0D6FAFFF7F0FC4F49204618F043FB56
:104C60000028DAD04C4B1B7A002BD6D14A4B1A685D
:104C700040F665139A42D0D1474B1A7C5B7C03EB1C
:104C80000223464A12689A4203DA032E01DD434AA0
:104C900013600136032E00DD1F4425F051F8BCE7F8
:104CA00000223A493B4818F0ABFAB4E73C4B0522E6
:104CB0001A7009B0F0BD00223449364818F0A0FA45
:104CC00025F03EF80446082025F010F840B30820EF
:104CD00025F00CF820B300F069F8052814D02C4B0F
:104CE0001B788BB925F02CF8001B41F288339842D1
:104CF0000ED80A2025F028F800222449254818F06B
:104D00007FFAFFF799FCE2E7254B05221A70D0E7FE
:104D1000FCF7CCFC0920FCF7FBFC214B05221A70A8
:104D20001D2024F0E3FF10B11E4B01221A70FCF786
:104D3000BDFC97FBF6F7194B1B68B3F5FA7F02DD54
:104D4000164BFA221A60184902A822F070FE0A22B5
:104D5000394605A822F0F4FE05A902A822F0A2FF18
:104D60000146084822F076FC05A822F018FE02A8A9
:104D700022F015FE9DE700BFC8C80208E87F0020AA
:104D800024CC0208D07E0020B03CFFFF4C00002065
:104D900024070020CC0B00203400002098060020BF
:104DA00034070020AB06002038CC02082DE9F04182
:104DB000ADF54A7D24F0C4FFA14B1B68C01A13282F
:104DC00006D8A04B1D7828460DF54A7DBDE8F08138
:104DD00024F0B6FF9A4B18609B4919A822F027FED1
:104DE0009A4822F0D2F8002835D16425964919A8AE
:104DF00022F083FE00242646954822F0C6F800B330
:104E0000934822F0D3FB11AB18550134E4B2C1B280
:104E100019A822F015FF8F4B59688F4B1A688F4BDA
:104E2000A3FB0232920C40F2D66303FB02F2894BE1
:104E30005B685B1A9A42FADC1B9B01261E2BDBD9AE
:104E40000126002E40F09C85642D01F04C8119A8AC
:104E500022F0A5FDB7E77D4822F0A8FBC1B219A852
:104E600022F0EEFE7B4B59687B4B1A687B4BA3FB11
:104E70000232920C40F2D66303FB02F2754B5B6880
:104E80005B1A9A42FADC714822F090FBC1B219A871
:104E900022F0D6FE0BE06F4B5B685B1A9A42FADC9D
:104EA0006A4822F083FBC1B219A822F0C9FE6C4BFC
:104EB000197801EB41016B4B03EB810119A822F03A
:104EC00040FFE8B9614822F060F8C8B1022301222E
:104ED00019A91CA822F05EFF1CA919A822F005FE42
:104EE0001CA822F05CFD5B4B59685B4B1A685B4B5E
:104EF000A3FB0232920C40F2D66303FB02F2CAE734
:104F0000574B197801EB4101564B03EB810119A86E
:104F100022F017FF08B9642568E724F011FF044662
:104F20001B9B072B21D824F00BFF001B31281CD81A
:104F3000484B5968484B1A68484BA3FB0232920C05
:104F4000642303FB02F2434B5B685B1A9A42FADC70
:104F50003E4822F01AF80028E2D03C4822F026FB16
:104F6000C1B219A822F06CFEDAE70223002219A9C7
:104F70000EA822F00FFF3A4B197801EB4101394B93
:104F800003EB81010EA822F0DCFE20B964250EA8F7
:104F900022F005FD2AE7344B1B78002B40D024F08B
:104FA000CFFE324B18600823022219A91FA822F055
:104FB000F1FE1FA90EA822F098FD1FA822F0EFFC19
:104FC0002B490EA822F0CBFE002857D0FEF706FD95
:104FD00064250523022219A973A822F0DBFE73A918
:104FE0000EA822F082FD73A822F0D9FC21490EA858
:104FF00022F0B5FE002800F06B830823052219A9D2
:1050000076A822F0C7FE76A822F0ECFE431E144CD0
:10501000237076A822F0C3FC2278174B1A70B6E7EB
:105020000121132024F038FE4FF4FA7024F08CFE96
:105030000021132024F030FE0B4B01221A70AEE742
:10504000FC06002034070020F8D80208140D0020C8
:10505000D07E0020001000E0C803002083DE1B4348
:1050600020070020B808002011070020F8060020C3
:10507000A0CA0208E8CC0208740B00209A490EA8C6
:1050800022F06DFEC0B119A922A822F024FD974993
:1050900022A822F014FE0146954822F0C8FA22A860
:1050A00022F07DFC934B1B78192B01D0032590E750
:1050B000FFF778FD64258CE78F490EA822F04FFE9C
:1050C000C0B119A925A822F006FD884925A822F01B
:1050D000F6FD0146864822F0AAFA25A822F05FFCD8
:1050E000844B1B78192B01D0042572E701F028F8B6
:1050F00064256EE781490EA822F031FE98B119A906
:1051000028A822F0E8FC794928A822F0D8FD014619
:10511000774822F08CFA28A822F041FC784B002234
:105120001A70052555E777490EA822F018FE80B1C0
:1051300019A92BA822F0CFFC6C492BA822F0BFFDA7
:1051400001466B4822F073FA2BA822F028FC0625B2
:105150003FE76D490EA822F002FE80B119A92EA8E2
:1051600022F0B9FC61492EA822F0A9FD0146604851
:1051700022F05DFA2EA822F012FC072529E76349E8
:105180000EA822F0ECFD80B119A931A822F0A3FCF1
:10519000564931A822F093FD0146554822F047FABE
:1051A00031A822F0FCFB0A2513E759490EA822F08A
:1051B000D6FD80B119A934A822F08DFC4B4934A842
:1051C00022F07DFD01464A4822F031FA34A822F04F
:1051D000E6FB0B25FDE64F490EA822F0C0FD80B18D
:1051E00019A937A822F077FC404937A822F067FDBB
:1051F00001463F4822F01BFA37A822F0D0FB0C25CD
:10520000E7E645490EA822F0AAFD80B119A93AA8FF
:1052100022F061FC35493AA822F051FD014634489C
:1052200022F005FA3AA822F0BAFB0D25D1E63B4957
:105230000EA822F094FD80B119A93DA822F04BFCE4
:105240002A493DA822F03BFD0146294822F0EFF90A
:105250003DA822F0A4FB0E25BBE631490EA822F0A2
:105260007EFD80B119A940A822F035FC1F4940A855
:1052700022F025FD01461E4822F0D9F940A822F06F
:105280008EFB0F25A5E627490EA822F068FD90B1F8
:1052900019A943A822F01FFC144943A822F00FFDCE
:1052A0000146134822F0C3F943A822F078FBFEF729
:1052B00095FB10258DE61C490EA822F050FDA8B3E1
:1052C00019A946A822F007FC084946A822F0F7FCD5
:1052D0000146074822F0ABF946A822F060FBFEF732
:1052E0007DFB112575E600BFB8CA02084CCB020849
:1052F000140D002034070020C0CA0208E8CA0208C2
:10530000A7060020C8CA0208D0CA020840CC02087A
:1053100048CC020850CC020858CC020860CC0208E5
:1053200068CC020870CC020878CC0208A0490EA80C
:1053300022F015FD80B119A949A822F0CCFB9D49A6
:1053400049A822F0BCFC01469B4822F070F949A80C
:1053500022F025FB13253CE698490EA822F0FFFC1D
:1053600098B119A94CA822F0B6FB92494CA822F09A
:10537000A6FC0146904822F05AF94CA822F00FFBF7
:105380008F4B01221A70142523E68E490EA822F0B5
:10539000E6FC80B119A94FA822F09DFB85494FA8D2
:1053A00022F08DFC0146844822F041F94FA822F0FA
:1053B000F6FA15250DE684490EA822F0D0FC80B13E
:1053C00019A952A822F087FB7A4952A822F077FC4B
:1053D0000146794822F02BF952A822F0E0FA16256E
:1053E000F7E57A490EA822F0BAFC80B119A955A8B0
:1053F00022F071FB6F4955A822F061FC01466E480E
:1054000022F015F955A822F0CAFA1825E1E57049ED
:105410000EA822F0A4FCB0B119A958A822F05BFB99
:10542000644958A822F04BFC0146634822F0FFF87B
:1054300058A822F0B4FA24F083FC664B1860FEF7FB
:10544000CDFA1925C5E564490EA822F088FC90B173
:1054500019A95BA822F03FFB56495BA822F02FFC5C
:105460000146554822F0E3F85BA822F098FAFEF7CF
:10547000B5FA1A25ADE559490EA822F070FC80B1A5
:1054800019A95EA822F027FB4A495EA822F017FC62
:105490000146494822F0CBF85EA822F080FA1B258D
:1054A00097E54F490EA822F05AFC80B119A961A8CE
:1054B00022F011FB3F4961A822F001FC01463E4861
:1054C00022F0B5F861A822F06AFA1D2581E5454968
:1054D0000EA822F044FC80B119A964A822F0FBFABE
:1054E000344964A822F0EBFB0146334822F09FF8D0
:1054F00064A822F054FA1E256BE53B490EA822F061
:105500002EFC40B119A92C4822F091F82C4B002216
:105510001A7064255DE535490EA822F020FC70B1B3
:1055200024F00EFC324B1B68C31AB3F5487F80F0A1
:10553000CB8024F005FC2E4B1860642549E52D49ED
:105540000EA822F00CFCB0B119A967A822F0C3FA8A
:10555000184967A822F0B3FB0146174822F067F804
:1055600067A822F01CFA0023234A1370234A82F80A
:10557000233064252DE522490EA822F0F0FB0028F7
:1055800040D019A96AA822F0A6FA0A496AA822F00E
:1055900096FB0146084822F04AF86AA822F0FFF973
:1055A0000123154A1370154A82F82330642510E54B
:1055B00080CC02084CCB0208140D002088CC0208D5
:1055C000A5060020D8CA0208E0CA020890CC02084A
:1055D00098CC020854060020A0CC0208A8CC0208EF
:1055E000B0CC0208B8CC0208C0CC0208F8CA020845
:1055F00008070020C8CC0208A6060020740B002073
:10560000D0CC0208A0490EA822F0A9FB00282AD07D
:1056100019A96DA822F05FFA9C496DA822F04FFBF2
:1056200001469B4822F003F86DA822F0B8F9002348
:10563000984A1370984A82F82230984B984A1A6018
:10564000984B994A1A60994B994A1A60994B9A4A11
:105650001A609A4A9A4B1B6811685B1AA3F5487343
:1056600013606425B5E497490EA822F078FB002862
:105670002CD019A970A822F02EFA844970A822F023
:105680001EFB0146824821F0D2FF70A822F087F964
:105690000123804A1370804A82F822307F4B824A6D
:1056A0001A60804B7E4A1A60804B834A1A60814B95
:1056B0007F4A1A60814A824B1B6811685B1AA3F506
:1056C00048731360642584E4642582E4642580E4DF
:1056D0007D490EA822F043FB78B10823052219A9C1
:1056E00079A822F057FB79A822F07CFB774B187041
:1056F00079A822F054F9172549E475490EA822F03B
:105700002EFBA8B10623052219A97CA822F042FB92
:105710007CA822F067FB031E18BF01236D4C237089
:105720007CA822F03CF922785B4B83F82D202EE4F4
:1057300069490EA822F013FB88B10823052219A994
:105740007FA822F027FB7FA822F04CFB634C20802F
:105750007FA822F024F922884F4B1A8417E460496D
:105760000EA822F0FCFAA8B10823052219A982A8E4
:1057700022F010FB82A822F035FB5A4C00EB80008F
:105780004300238082A822F00AF92288424BDA855E
:10579000FFF7FDBB54490EA822F0E1FA08B3082335
:1057A000052219A985A822F0F5FA85A822F01AFB8E
:1057B0004E4C208085A822F0F2F82388602B01D976
:1057C00060222280494B1A88494B1B889A4202D298
:1057D0000533464A1380454B1A882F4B9A83FFF7AF
:1057E000D6BB44490EA822F0BAFAC8B10823052254
:1057F00019A988A822F0CEFA88A822F0F3FA3E4C24
:10580000207088A822F0CBF82378322B01D93222DD
:105810002270394B1A78204B83F82C20FFF7B7BB46
:1058200036490EA822F09BFA98B10823052219A93F
:105830008BA822F0AFFA8BA822F0D4FA00EB8000FC
:1058400043002F4A13808BA822F0A9F80825FFF700
:105850009EBB2C490EA822F082FA0746002853D09E
:105860000823052219A98EA822F094FA8EA822F006
:10587000B9FA00EB80004300214A13808EA822F081
:105880008EF80925FFF783BBD8CC02084CCB020861
:10589000140D0020AA060020740B002070000020C8
:1058A000B83600206C000020F011002068000020B5
:1058B0001810002064000020440E00208006002004
:1058C00084060020E0CC0208ECCC0208A3060020ED
:1058D000F0CC020868060020F4CC02080A00002080
:1058E000F8CC020808000020FCCC02080E000020C2
:1058F0000C00002000CD02081800002004CD020892
:10590000B406002008CD02089B490EA822F027FA11
:105910000646B8B10723052219A991A822F03AFA40
:1059200091A822F05FFA4FF47A7300FB03F3934CD3
:10593000236091A822F033F82268914B1A633D4608
:10594000FFF725BB8F490EA822F009FA00283FF483
:105950001EAB0823052219A994A822F01BFA94A8CB
:1059600022F040FAA0F16403874C237094A822F03F
:1059700016F82278824B83F834203546FFF707BBB0
:105980000223002219A90BA822F004FA7F4B1978F0
:1059900001EB41017E4B03EB81010BA822F0D1F911
:1059A000002800F0068324F0CBF97A4B1860082316
:1059B000022219A997A822F0EDF997A90BA822F0C5
:1059C00094F897A821F0EBFF73490BA822F0C7F9D0
:1059D00060B3FEF703F80523022219A99AA822F062
:1059E000D9F99AA90BA822F080F89AA821F0D7FF3C
:1059F0006A490BA822F0B3F9002800F0808108233F
:105A0000052219A99DA822F0C5F99DA822F0EAF95E
:105A1000431E5E4C23709DA821F0C1FF2278584B95
:105A20001A700BA821F0BBFFFFF70EBA5C490BA858
:105A300022F095F908B10125CDE75A490BA822F0CB
:105A40008EF908B10225C6E757490BA822F087F95D
:105A500008B10325BFE755490BA822F080F908B12A
:105A60000425B8E752490BA822F079F920B1514B2F
:105A700000221A700525AEE74F490BA822F06FF9F6
:105A800008B10625A7E74D490BA822F068F908B12F
:105A90000725A0E74A490BA822F061F908B10A25B9
:105AA00099E748490BA822F05AF908B10B2592E76B
:105AB00045490BA822F053F908B10C258BE743495F
:105AC0000BA822F04CF908B10D2584E740490BA83A
:105AD00022F045F908B10E257DE73E490BA822F0DA
